:02000002D0002C
:1040000000400D00D05E0D00000005000D00050110
:0840100004014601000000005C
:104018006C5A0D0009480A49884208B505D0094A72
:10402800824202D0121A01F0D9FC0748074A00213F
:10403800121A01F0DEFC014808BD00BF2CE3032082
:10404800405E0D0094E3032094E30320F0E703208F
:1040580070B501F02BFB074C074BE41AA4080025A8
:104068001E46A54204D056F8253098470135F8E792
:1040780070BD00BF405E0D00085E0D0000F03CB84A
:1040880008B500F05BF8BDE8084001F0DDBA00F0C3
:1040980025BA00F023BA00F029BA00F027BA007850
:1040A800B0FA80F0400970470123037070470000A0
:1040B80008B503490268034800F060FC012008BD08
:1040C800805A0D0004E4032008B503490268034838
:1040D80000F054FC012008BD885A0D0004E40320B8
:1040E80008B503490268034800F048FC012008BDF0
:1040F800925A0D0004E4032010B5094C094A0A49F4
:10410800204600F076FA094A0949204600F071FA7B
:104118002046084A0849BDE8104000F06ABA00BFC6
:10412800CF450D00805A0D00B9400D00885A0D008A
:10413800D1400D009B5A0D00E9400D00704700F07A
:1041480049B8000008B5024B1B689B68019308BD7D
:104158004802030008B5024B1B681B69019308BDA0
:104168004802030008B5024B1B685B69019308BD50
:104178004802030008B5024B1B681B6B019308BD7E
:104188004802030008B5024B1B685B6C019308BD2D
:104198004802030008B5024B1B68DB6C019308BD9D
:1041A8004802030008B5024B1B685B6D019308BD0C
:1041B8004802030008B5024B1B685B68019308BD01
:1041C8001802030008B5024B1B685B69019308BD20
:1041D8001802030008B5024B1B681B68019308BD51
:1041E8002C02030008B5024B1B681B69019308BD2C
:1041F8006C02030008B5024B1B685B69019308BD9C
:104208006C02030008B5024B1B689B69019308BD4B
:104218006C02030008B5024B1B685B6D019308BD77
:104228006C02030008B5024B1B689B6D019308BD27
:104238006C02030008B5024B1B685B69019308BD5B
:104248006402030008B5024B1B689B69019308BD13
:104258006402030008B5024B1B681B6A019308BD82
:104268006402030008B5024B1B685B6A019308BD32
:104278006402030008B5024B1B689B6A019308BDE2
:104288006402030008B5024B1B689B68019308BDD4
:104298006802030008B5024B1B68DB68019308BD80
:1042A8006802030008B5024B1B685B68019308BDF0
:1042B8003802030008B5024B1B689B69019308BDCF
:1042C8003802030008B5024B1B68DB69019308BD7F
:1042D8003802030008B5024B1B68DB6A019308BD6E
:1042E8003802030008B5024B1B685B6B019308BDDD
:1042F8003802030008B5024B1B689B6B019308BD8D
:104308003802030008B5024B1B68DB69019308BD3E
:104318003002030008B5024B1B681B68019308BDF7
:104328003C02030008B5024B1B68DB68019308BD1B
:104338003C02030008B5024B1B681B69019308BDCA
:104348003C02030008B5024B1B685B69019308BD7A
:104358003C02030008B5024B1B689B69019308BD2A
:104368003C02030008B5024B1B68DB69019308BDDA
:104378003C02030008B5024B1B689B6A019308BD09
:104388003C02030008B5024B1B681B68019308BD7B
:104398004C02030008B5024B1B681B69019308BD5A
:1043A8004C02030008B5024B1B685B69019308BD0A
:1043B8004C02030008B5024B1B689B69019308BDBA
:1043C8004C02030008B5024B1B68DB69019308BD6A
:1043D8004C02030008B5024B1B681B6A019308BD19
:1043E8004C02030008B5024B1B685B68019308BDCB
:1043F8002002030008B5034B1B68D3F888300193EB
:1044080008BD00002002030008B5034B1B68D3F861
:104418009430019308BD00002002030008B5024B48
:104428001B685B68019308BD4402030008B5024B92
:104438001B68DB6B019308BD4402030008B5024BFF
:104448001B685B68019308BD4002030008B5024B76
:104458001B689B68019308BD4002030008B5024B26
:104468001B68DB68019308BD4002030008B5024BD6
:104478001B681B69019308BD4002030008B5024B85
:104488001B685B69019308BD4002030008B5024B35
:104498001B689B69019308BD4002030008B5024BE5
:1044A8001B68DB69019308BD4002030008B5024B95
:1044B8001B681B6A019308BD4002030008B5024B44
:1044C8001B681B6B019308BD4002030008B5024B33
:1044D8001B685B6B019308BD4002030008B5024BE3
:1044E8001B681B68019308BD1C02030008B5024B3A
:1044F8001B685B68019308BD1C02030008B5024BEA
:104508001B689B68019308BD1C020300002211462A
:104518004068FFF7ABBF002211464068FFF7C6BFEF
:10452800002211464068FFF7D1BF00224068FFF71C
:10453800C5BF002281F001014068FFF7AFBF00232B
:104548001A4619464068FFF7A1BF00231A461946C4
:104558004068FFF793BF002211464068FFF776BF17
:10456800002202214068FFF779BF00231A464068FD
:10457800FFF764BF38B50C4D282422460021284691
:1045880001F037FA4FF0FF336B602C80074D04239E
:1045980028466B60064B40F8083B2246002101F094
:1045A80028FA2C8138BD00BFC8E3032098E3032014
:1045B800AC5A0D0010B58368044613B103220146B6
:1045C8009847204610BD10B588B00446684600F0EC
:1045D800C2FB694604A800F0E0FB04A8A047044613
:1045E80004A800F071FB684600F06EFB204608B096
:1045F80010BDF0B5102485B007460E4615460021BB
:104608002246684601F0F5F9002269461046ADF8E1
:104618000040029703960195FFF700FF05B0F0BD33
:10462800002211464068FFF741BF0022114640684A
:10463800FFF74CBF00224068FFF740BF002281F01F
:1046480001014068FFF72ABF00231A46194640684F
:10465800FFF71CBF00231A4619464068FFF70EBF34
:10466800002211464068FFF701BF0022114640684A
:10467800FFF7ECBE002202214068FFF7EFBE0023DF
:104688001A464068FFF7DABE024B03225A60024A14
:104698001A607047F0E30320E05A0D00704710B528
:1046A8000446FFF7F8FC204610BDF0B5037D062B45
:1046B8008DB00E4600F104074FF0000402D000F15F
:1046C800080518E00CAD394605F8304D2F232A4669
:1046D8000A20FFF7AFFD284601F0BCF9336802460F
:1046E800DB682946304698470FE024B12E21304632
:1046F80000F088FA044415F8011D0A22304600F03B
:10470800B1FABD420444F0D120460DB0F0BD00001E
:1047180010B5054B0446112240F8043B002101F076
:1047280068F9204610BD00BF145B0D000346074A18
:1047380010B543F8042B01F1100251F8044B43F86B
:10474800044B9142F9D10A781A7010BD145B0D0020
:10475800037D042B01D1406808E0062B0AD1436889
:1047680053B1836843B1C36833B10069003018BFDF
:1047780001207047002070471846704710B59DF813
:10478800084044EA032343EA024242EA016104235F
:104798004160037510BD37B50D788B784A78C978B4
:1047A80000912946FFF7EAFF03B030BD014B024AEA
:1047B8001A607047F8E30320D55B0D00002211460C
:1047C8004068FFF773BE002211464068FFF77EBEBF
:1047D80000224068FFF772BE002281F001014068A4
:1047E800FFF75CBE00231A4619464068FFF74EBE25
:1047F80000231A4619464068FFF740BE00221146BA
:104808004068FFF733BE002211464068FFF71EBE1E
:10481800002202214068FFF721BE00231A464068A3
:10482800FFF70CBE10B103685B681847704738B5CE
:1048380004460068D0B1FFF785FCB8B9237C1BB9E2
:10484800206808B1FFF786FC656855B1AB681BB1F5
:1048580003222946284698472846FFF71CFC0023D0
:1048680063602068FFF77EFC0023236038BD0000EA
:1048780038B50B4B03600446D0F8CC0108B1FFF7FC
:104888000CFCD4F8C4512DB12846FFF7D0FF2846B8
:10489800FFF701FCA06808B1FFF7C4FF204638BD48
:1048A800085C0D000068FFF775BC000030B58DB0DE
:1048B80004461122002101A801F09BF8062301AA51
:1048C80009498DF814300A20FFF7BCFC07AD01A98F
:1048D80006A8FFF72BFF0FCD04340FC42B682370F5
:1048E80000200DB030BD00BF345C0D0030B504466B
:1048F80089B000F5E070FFF7D5FF236883BB4C2033
:10490800FFF7C5FB054608B100F00AFD20682560E1
:1049180008B1FFF787FF206820B300224FF49A619F
:1049280000F02DFD08A9002501F8195D1148FFF7D1
:1049380059FC20689DF80720036849F269011B6A41
:10494800984702A8FFF7E4FE02A8FFF7AFFF002888
:1049580004DB02A9206800F07AFD04E0054602E0C5
:10496800002500E0044DD4F8C001FFF71BFC2846E1
:1049780009B030BD415C0D00FCFEFFFF2DE9F0479A
:1049880005468CB016460F4609B10B780BB9354C65
:1049980064E0084601F05EF88046002E5CD03046A0
:1049A80001F058F8441C08F102032344B3F59A6F48
:1049B8004FD805F5E070FFF775FF2846FFF796FF1B
:1049C800002840DB6846FFF7A3FE6846FFF76EFF46
:1049D800002838DBD5F800A0DAF800300DF1040C17
:1049E800D3F83890204B0693BCE80F000DF11C0E4D
:1049F800AEE80F00DCF800308EF8003049F26902AA
:104A080006A95046C84700281DDB002328688DF8F2
:104A1800183003680122DB6806A9984728680368EC
:104A280008F10102DB68394698472CB12868036809
:104A38002246DB6831469847286803681B6C98470C
:104A480000EAE07400E00446D5F8C001FFF7AAFBCD
:104A580004E06FF0BD0401E03446A4E720460CB042
:104A6800BDE8F087F2FEFFFF145B0D0038B50D4C72
:104A78000D4B23600025022304F5E4706360A560F4
:104A8800C4F8C451C4F8C851FFF77CFB074BC4F8FD
:104A9800CC5123602046064A0649BDE8384000F05C
:104AA80041BE00BFFCE303206C5C0D00085C0D00F8
:104AB80094E3032079480D0000231A464068FFF765
:104AC800BDBC002202214068FFF7C8BC0022114685
:104AD8004068FFF7BBBC002211464068FFF7C6BC20
:104AE80000231A4619464068FFF7C8BC00231A4637
:104AF80019464068FFF7CABC002281F001014068EE
:104B0800FFF7CCBC00224068FFF7D8BC0022114652
:104B18004068FFF7DBBC002211464068FFF7C6BCBF
:104B280070B58CB014460646FFF7F2FD0CAB0022B8
:104B3800114643F8302D2046FFF7ACFB014658BB21
:104B4800009B4BB35A68022A0ED00A2A24D15C690A
:104B5800112201A800F04DFF06238DF8143001AD95
:104B680004F10803183405E0596930460431FFF7A9
:104B780012FE11E0186859682A4603C20833A34296
:104B88001546F7D101A906A807ADFFF7CFFD0FCD50
:104B9800341D0FC42B6823700098FFF773FB304651
:104BA8000CB070BD024B034A1A6000225A6070476D
:104BB800CCE503206C5C0D00F8B506460D468F1851
:104BC8000024BD420CD0336815F8011B9B683046A1
:104BD8009847002801DB0444F3E7002C08BF04468B
:104BE8002046F8BD70B505460C46084649B100F0A8
:104BF80031FF2B68024621462846DB68BDE8704035
:104C0800184770BD03689B68184730B58BB00B46D2
:104C180000218DF82410012A98BF0A220DF12304DF
:104C2800B3FBF2F505FB123303F0FF03092B94BF26
:104C380030333733DBB2214604F801392B46002DD7
:104C4800EED1FFF7CFFF0BB030BD10B42AB903681F
:104C58005DF8044B9B68C9B21847D2B25DF8044BA3
:104C6800FFF7D3BFFFF7F1BF10B50446FFF7A2FC6B
:104C7800204610BD0348044A04490023836000F01D
:104C880051BD00BFD4E5032094E30320714C0D000F
:104C9800704710B50446FFF7FEF9204610BD000026
:104CA80070B5084B0360044600250E4640F80C5FBB
:104CB800FFF760FA30462671FFF724FBA56020460F
:104CC80070BD00BFA05C0D0010B504460068FFF77A
:104CD8000DFC204610BD10B50446006808B1FFF76A
:104CE80005FC00232360A360636010BD38B504464B
:104CF8000D4600680131FFF701FC10B184E821007E
:104D0800012038BD10B50368044613B143688B42CF
:104D180007D22046FFF7EAFF20B1A3680BB9226843
:104D28001370012010BD70B50E4611460446154695
:104D3800FFF7E8FF18B92046FFF7CDFF09E02A463C
:104D48003146A560206800F049FE2268A36800216A
:104D5800D154204670BD38B5002304460360436033
:104D6800836003730D4639B1084600F073FE294687
:104D780002462046FFF7D7FF204638BD884210B5C7
:104D88000B46044607D0096819B19A68FFF7CBFFAC
:104D980001E0FFF7A0FF204610BD10B50023044630
:104DA8000360436083600373FFF7E8FF204610BD8C
:104DB800044B00204FF6FF72187058809A80FFF756
:104DC80011BB00BFE4E50320024B1A68024B1A60CE
:104DD800704700BF2CE30320ECE5032010B40468FF
:104DE800246BA4465DF8044B604703689B6C184726
:104DF800808E7047028FC08E101A704713B502ABB1
:104E0800026803F8011DD46819460122A04702B0C0
:104E180010BD10B503681B690446984728B1E38E96
:104E2800E26B591CE186D05C10BD4FF0FF3010BD1D
:104E380010B503681B690446984718B1E38EE26B06
:104E4800D05C10BD4FF0FF3010BD704710B4034662
:104E58000846DC6BD98E1A8F0368521ADB68214426
:104E68005DF8044B1847A0F11000FFF7EFBFF0B54D
:104E780003688DB01C265B6A04460F4615469847A2
:104E880001233246002105A8029300F0B2FD8DF8F7
:104E9800146038460A268DF81560FFF7EBF91122E1
:104EA800ADF8160002213046FFF724FA00286061A9
:104EB80024DB0422009202AB40F6FF71FFF7FAF9F7
:104EC800E0B995B10390ADF8100003A9E8B2FFF777
:104ED80091F998B90623009341F20B0203AB40F60F
:104EE800FF716069FFF7E6F940B91C2205A96069FE
:104EF800FFF7D8F910B96564012004E0236820465B
:104F08005B6A984700200DB0F0BD10B504464069B3
:104F1800002801DBFFF7D6F94FF0FF336361002368
:104F2800E386238710BD38B5C36B0546C08E13B121
:104F38002C6C241A00E01C46944228BF14462246D2
:104F4800184400F04BFDEB8E2344EB86204638BD19
:104F580070B503681B6904460E461546984788B124
:104F6800236820461B699847E38EE16B8542A8BFFA
:104F7800054619442A46304600F030FDE38E2B449E
:104F8800E38601E04FF0FF35284670BD70B5044652
:104F9800054B44F8043B01F1200506460FCD0FC42C
:104FA8002B682370304670BD145B0D00F0B5944635
:104FB800026889B0976A0A4A02921D1D8E46064603
:104FC8000FCD03AC0FC42B682370BDF838300093A5
:104FD800624602AB71463046B84709B0F0BD00BF23
:104FE800145B0D00F0B50368B0F836E09F6A0D4B0E
:104FF80089B000F12006044602930FCE03AD0FC519
:1050080033682B70A38E0093724602ABE16B204687
:10501800B84723680546DB6920469847284609B003
:10502800F0BD00BF145B0D00F0B54378022B8DB0C6
:1050380005460C46174601D1011D33E00A2B35D130
:105048001122002101A800F0D4FCAB6843B9EB6839
:1050580033B94FF6FF702E69FFF7FCF886421FD070
:1050680005F1080301AE05F1180E186859683246B3
:1050780003C2083373451646F7D1062301A906A8CB
:1050880007AE8DF81430FFF751FB0FCE04340FC470
:105098003368237057B16888FFF7E4F8388005E073
:1050A80005F114012046FFF776FBF3E70DB0F0BDDC
:1050B8002DE9F0418EB00EAB00250646174608468E
:1050C80043F8345D2A462946FFF7E4F800281FDB39
:1050D800019BFBB15B69EBB102A8FFF719FB019BD0
:1050E8002A46586902A9FFF79FFF02A8FFF730FB7D
:1050F80080B1336803ADD3F838800B4B08930FCDDC
:1051080009AC0FC42B6823703A4608A93046C0473B
:10511800044601E04FF0FF340198FFF7B3F820464A
:105128000EB0BDE8F08100BF145B0D002DE9F0471B
:10513800D0F81480B8F1000F8CB005460C4617461D
:10514800994600DB11B94FF0FF3035E04FF01C0AEB
:1051580005AE52460021304600F04BFCCDF808A0C1
:10516800B9F1000F14D04FF47A72B9FBF2F1039140
:1051780002FB11914A4308230492009341F206026C
:1051880003AB40F6FF714046FFF794F808B113E00F
:10519800082002AB01932146034600963A46686907
:1051A800FFF798F8041E06DB05F1340205F11C012F
:1051B8003046FFF739FF20460CB0BDE8F08738B518
:1051C800054614462B7D062B084611D11C23137067
:1051D8000A235370FFF74EF8083424F8060C2B1DE9
:1051E800143553F8042B44F8042BAB42F9D138BDDD
:1051F800042B0AD11023137002235370FFF73AF8D7
:1052080060806868FFF726F8606038BD2DE9F043D4
:105218008BB003AC1C25994606460F4690460021E4
:105228002A46204600F0E5FB2246BDF848104846CD
:10523800FFF7C5FF9DF80D3043B18DE8300000231E
:10524800424639467069FFF74DF801E04FF0FF30EC
:105258000BB0BDE8F083F0B591B00C4606460021CE
:10526800154609A81C221F4600F0C3FB09AA002105
:105278002046FFF7A4FF9DF82530022B2ED10023EE
:1052880005930A9B0493DDB102A92846FEF7BAFFED
:10529800B0B910A941F8340D0298FEF7BBFF60B908
:1052A800039B53B1DA6812685178022903D1526816
:1052B8000AB1059201E01B68F3E70398FEF7B2FF15
:1052C800002F4FF00803009318BF032204AB08BF58
:1052D800042200213046FEF7EDFF1EE00A2B1AD10A
:1052E80004AC14220021204600F083FB0BAB0FCB4B
:1052F800002F84E80F004FF01403009318BF0C220E
:10530800234608BF0D22292130460895FEF7D2FF13
:1053180000EAE07001E04FF0FF3011B0F0BD00008E
:1053280038B54FF47A7383600B4B03F108026C3382
:10533800002503614FF0FF33044645600260436176
:105348001C30FFF7E5F94FF40073E5862587E56320
:1053580023646564204638BDD45C0D0010B590F810
:10536800483004461BB1C06B08B1FEF794FE002319
:10537800E36384F848302364E386238710BD70B55F
:10538800044616460D46FFF7E9FF0023E66323644B
:105398003EB935B12846FEF77CFE0123E06384F868
:1053A8004830E36B03B12564206C003018BF01203E
:1053B80070BDF8B51746C26B05460C461AB9016CA4
:1053C80009B1FFF7DCFF04340FCC05F120060FC646
:1053D800236833700023AF86EB862B87286CF8BDD3
:1053E80070B5C26B04461AB9016C09B1FFF7C7FF63
:1053F800E16B0023E386238741B1226C32B1206838
:10540800056B2046A8470028C8BF20872368204688
:105418001B69BDE87040184710B5074B03F1080237
:105428006C33044602600361FFF76FFD2046FFF707
:1054380095FF204610BD00BFD45C0D0010B5044692
:10544800FFF7EAFF2046FEF726FE204610BD02467B
:105458004069002804DB012392F84420FFF7FBBED3
:105468004FF0FF307047704741747047007CFEF77B
:1054780081BF007CFEF75EBF007CFEF76BBF007C3F
:10548800FEF760BF007CFEF76DBF10B50446FEF75F
:1054980002FE204610BD70B5457C04460E4625B96F
:1054A800007CFEF767FF002805DD3146207CBDE85B
:1054B8007040FEF737BF284670BD000010B504469F
:1054C80008461146002262604FF47A72A260054ACB
:1054D80022600122207462741A46FEF71BFF2046E0
:1054E80010BD00BF4C5D0D0038B50C4D296811F09A
:1054F800010411D12846FEF7D2FD68B1084A094BCC
:1055080009482146FFF7DAFF2846FEF7CDFD074A8E
:105518000749054800F006F9034838BD88E6032026
:105528008CE6032004E60320F0E5032094E303203F
:105538006F540D004174704770470021007CFEF7DE
:1055480039BF0121007CFEF735BF007CFEF72ABF7A
:10555800007CFEF71FBF38B50446007C0D46FEF7F9
:1055680021FF002801DC607C20B12946207CFEF761
:1055780029FF012038BD007CFEF72CBF10B504467A
:10558800FEF789FD204610BD10B504460023636070
:105598004FF47A73A360054B2360012308462174F6
:1055A80063741146FEF7EEFE204610BD7C5D0D00CB
:1055B80010B514220446002100F01BFA204610BD45
:1055C80030B50E4D87B001A8FFF7F2FF296811F03A
:1055D800010410D12846FEF762FD60B101AA2146F8
:1055E8000748FFF7D1FF2846FEF75EFD054A064942
:1055F800034800F097F8024807B030BD10E70320D1
:1056080014E7032094E3032041550D0008B50C4B23
:1056180033B1FFF7D5FF03681B699847002809DCF9
:10562800084B63B1FFF760FF03681B6998470028C0
:1056380003DC08BDAFF30080F2E7AFF3008008BDDC
:10564800000000000000000008B5FFF7DFFFFEF7CC
:10565800B9FD014B186008BD2CE7032007B50023EE
:1056680000931A466FF07701FEF7CEFE03B05DF89F
:1056780004FB000007B543880A2B08D0502B09D13A
:10568800094B1B683BB103B05DF804EB1847FFF703
:10569800E5FF06E0002300931A466FF07701FEF756
:1056A800B3FE03B05DF804FB28E7032010B5FEF74E
:1056B80081FD044600F0A6F9074B13B12046AFF36D
:1056C800008000210448FEF7B1FE00210348BDE830
:1056D8001040FEF78FBE00BF000000007D560D0091
:1056E80070B50C4C0C4E0D4D00212046FFF7D8FA32
:1056F80020460B4C3246294600F014F8012120467A
:10570800FFF7CEFA324629462046BDE8704000F041
:1057180009B800BF30E7032094E30320994C0D003B
:1057280040E703200B460146184600F049B900003F
:10573800244B1A68D0075CBF01221A60224B1A68F2
:10574800D1075CBF01221A60204B1A68D2075CBFE0
:1057580001221A601E4B1A68D0075CBF01221A602A
:105768001C4B1A68D1075CBF01221A601A4B1A68D1
:10577800D2075CBF01221A60184B1A68D0075CBFB9
:1057880001221A60164B1A68D1075CBF01221A6001
:10579800144B1A68D2075CBF01221A60124B1A68B0
:1057A800D0075CBF01221A60104B1A68D1075CBF92
:1057B80001221A600E4B1A68D2075CBF01221A60D8
:1057C800704700BF7CE7032078E7032074E70320D5
:1057D80070E703206CE7032068E7032064E70320F1
:1057E80060E703205CE7032058E7032054E7032021
:1057F80050E70320184B1A68D1075CBF01221A60D2
:10580800164B1A68D2075CBF01221A60144B1A683B
:10581800D0075CBF01221A60124B1A68D1075CBF1F
:1058280001221A60104B1A68D2075CBF01221A6065
:105838000E4B1A68D0075CBF01221A600C4B1A681D
:10584800D1075CBF01221A600A4B1A68D2075CBFF5
:1058580001221A60704700BF9CE7032098E70320E5
:1058680094E7032090E703208CE7032088E70320D0
:1058780084E7032080E70320184B1A68D1075CBF30
:1058880001221A60164B1A68D2075CBF01221A60FF
:10589800144B1A68D0075CBF01221A60124B1A68B1
:1058A800D1075CBF01221A60104B1A68D2075CBF8F
:1058B80001221A600E4B1A68D0075CBF01221A60D9
:1058C8000C4B1A68D1075CBF01221A600A4B1A6890
:1058D800D2075CBF01221A60704700BFBCE70320F3
:1058E800B8E70320B4E70320B0E70320ACE70320C0
:1058F800A8E70320A4E70320A0E70320244B1A68A5
:10590800D0075CBF01221A60224B1A68D1075CBF1E
:1059180001221A60204B1A68D2075CBF01221A6064
:105928001E4B1A68D0075CBF01221A601C4B1A680C
:10593800D1075CBF01221A601A4B1A68D2075CBFF4
:1059480001221A60184B1A68D0075CBF01221A603E
:10595800164B1A68D1075CBF01221A60144B1A68EB
:10596800D2075CBF01221A60124B1A68D0075CBFCD
:1059780001221A60104B1A68D1075CBF01221A6015
:105988000E4B1A68D2075CBF01221A60704700BF2D
:10599800ECE70320E8E70320E4E70320E0E703203F
:1059A800DCE70320D8E70320D4E70320D0E703206F
:1059B800CCE70320C8E70320C4E70320C0E703209F
:1059C80010B5054C13462CB10A4601460220AFF328
:1059D800008010BD204610BD0000000010B5431E19
:1059E8000A44914204D011F8014B03F8014FF8E73B
:1059F80010BD02440346934202D003F8011BFAE7A4
:105A08007047000038B5124B1C68A36B0546D3B924
:105A18001820FEF763FD43F20E33A06303804AF6B5
:105A2800CD33438041F2342383804EF26D63C380CB
:105A38004DF6EC630381052343810B238381012207
:105A48000023C0E90423A36B00221D615A6138BDFD
:105A580090E30320034613F8012B002AFBD1181A00
:105A6800013870471D400D0059400D0085400D005C
:105A780089400D00000000007365744D6F64650077
:105A8800736574436F6C6F72730073746172744FD3
:105A98006E65006368617365000000000000000027
:105AA8000000000073450D0069450D005F450D00BD
:105AB80015450D0053450D0047450D003B450D00AC
:105AC80033450D0029450D001F450D00294B0D00DC
:105AD800000000000000000087460D007D460D0014
:105AE80073460D0069460D005D460D0051460D00D8
:105AF80045460D003D460D0033460D0029460D0074
:105B0800294B0D000000000000000000B3460D0006
:105B1800A5460D00A7460D0066006C6E00666E0077
:105B2800636F64650064657461696C000D0A002523
:105B38003031307520005D20002C200028293A20C3
:105B480000205B00636F6465203D200025690064C8
:105B5800657461696C73203D20006261756400534F
:105B6800657269616C0053657269616C31007479A2
:105B7800706500706172616D00636D640069640036
:105B8800686E64007374726D0066696C74006C767C
:105B98006C0061646448616E646C65720072656D66
:105BA8006F766548616E646C657200656E756D48E8
:105BB800616E646C657273004A534F4E537472651C
:105BC800616D4C6F6748616E646C657200617070DE
:105BD800006E6F6E6500747261636500696E666F52
:105BE800007761726E006572726F720070616E6923
:105BF8006300616C6C000000000000000000000001
:105C080023480D0019480D000F480D0005480D00E8
:105C1800F9470D00ED470D00E1470D00D9470D008C
:105C2800CF470D00C5470D00294B0D006666303380
:105C38003A3A313A3130303100746831006D657369
:105C48006870756200776972696E67007061727357
:105C580065207061636B6574202564000000000096
:105C680000000000C14A0D00CB4A0D00D54A0D00C6
:105C7800DF4A0D00E94A0D00F54A0D00014B0D0001
:105C88000D4B0D00154B0D001F4B0D00294B0D0042
:105C98000000000000000000994C0D009B4C0D0016
:105CA8005A00252B3033643A253032750025592D9A
:105CB800256D2D25645425483A254D3A2553257AD6
:105CC8000061736374696D650000000000000000E6
:105CD8000000000021540D0045540D00054E0D0034
:105CE8002F4F0D00FD4D0D001B4E0D00394E0D00C0
:105CF800534E0D00774E0D00134F0D0015520D0039
:105D0800B54F0D0035510D00E54D0D00BB530D008D
:105D1800B9500D00ED4F0D00E9530D00594F0D001E
:105D2800F34D0D00954F0D00F94D0D00554E0D002A
:105D3800F0FFFFFF000000006F4E0D0000000000A4
:105D4800000000006F540D0093540D009F540D0087
:105D5800C14B0D007B540D0087540D0081540D007C
:105D68008D540D0071540D0075540D000000000095
:105D78000000000041550D0085550D005F550D00D0
:105D8800C14B0D0059550D0043550D004B550D00E5
:105D98007F550D0053550D003D550D0000000000C6
:105DA80000000000000000000000000000000000EB
:105DB80000000000000000000000000000000000DB
:105DC80000000000000000000000000000000000CB
:105DD80000000000000000000000000000000000BB
:105DE80000000000000000000000000000000000AB
:105DF8000000000000000000000000004300000058
:105E080047410D007D450D0091460D00B5470D0039
:105E1800754A0D00AD4B0D007D4C0D00B94D0D00C0
:105E2800D14D0D00E9560D0039570D00FD570D00F5
:085E380081580D0005590D0011
:105E4000C95C0D0000000000A45D0D00C45D0D00E4
:105E5000E45D0D00000000000000000000000000F4
:105E600000000000045E0D000000000000000000C3
:105E70000000000000000000000000000000000022
:105E80000000000000000000000000000000000012
:105E90000000000000000000000000000000000002
:085EA0000000000030E30320C4
:105EA800FFFFFFFF00000102030405060708090AB7
:105EB8000B0C0D0E0F101112131415161718191AB2
:085EC8001B1C1D1E1F202800F9
:045ED00078563412BA
:04000003D0004018D1
:00000001FF
