:02000002D0002C
:1040000000400D00E0AD0D00000005000E000501B0
:0840100004014601000000005C
:1040180030A60D0009480A49884208B505D0094A62
:10402800824202D0121A04F0B0FC0748074A002165
:10403800121A04F0B5FC014808BD00BFE8E20320ED
:10404800F0AC0D00B0E30320B0E30320F4E7032055
:1040580070B502F025FC074C074BE41AA4080025AC
:104068001E46A54204D056F8253098470135F8E792
:1040780070BD00BFECAC0D00B4AC0D0000F014B97D
:1040880008B500F081F9BDE8084002F0D7BB01F09F
:1040980007B901F005B901F00BB901F009B90078C9
:1040A800B0FA80F0400970470123037070470000A0
:1040B800014B00221A707047B9E3032008B501F0DC
:1040C800EEFE024B1860012008BD00BFD0E30320BC
:1040D800F0B52DED028B85B06946074605F0F0FA7C
:1040E8001A4BB0EE408AF0EE608A00221A70184D22
:1040F800184E194CA7B10022002351EC100B04F004
:104108008BFB68B9B0EE480AF0EE680A01A800F027
:1041180063FB019B2B60029B3360039B236011E0D0
:104128004FF48071012001F0CEFD4FF480713060B2
:10413800012001F0C8FD4FF480712860012001F0D2
:10414800C2FD206005B0BDEC028BF0BDB8E30320D2
:10415800E8E20320ECE20320F0E2032008B504F0D3
:10416800EBFB034B1860034B01221A7008BD00BF1C
:10417800B4E30320B8E3032008B50C4B00224FF446
:10418800807101201A7001F09EFD094B4FF4807177
:104198001860012001F097FD064B4FF480711860FC
:1041A800012001F090FD044B186008BDB8E303201E
:1041B800ECE20320E8E20320F0E20320074B0122AF
:1041C8001A70074B1B689342084603D0022B03D191
:1041D800FFF7C4BFFFF77CBFFFF7CEBFB9E30320EB
:1041E800D0E30320C043C0B2542809D800EB4002F2
:1041F800A0EB80000138D2B20021C0B200F0A2BD0D
:10420800A9280BD85538C1B2A1EB8102013A01EBBC
:104218004101D2B2C9B2002000F094BD5630C0B2FC
:10422800A0EB8001013900EB40000022C9B2C0B206
:1042380000F088BDF7B5154E154F0024154800F05D
:1042480086FD84421BDA3378A5B263B1124B1B7822
:104258004BB1124B1878FFF7C5FF294602460D48A7
:1042680000F025FD09E00E490E4A09783B781278DE
:1042780008480091294600F0EBFC0134DEE70548C8
:1042880003B0BDE8F04000F041BB00BFB8E3032035
:10429800ECE20320BCE30320B9E30320B4E30320EA
:1042A800F0E20320E8E2032010B5194C02F082FA8C
:1042B8004FF4165102F072FA9621204600F049FD9B
:1042C800204600F0ECFA204600F020FB114B124C7F
:1042D800FF221A60FFF7AEFF4FF47A7001F010F872
:1042E8000E4A0F49204601F00DFB0E4A0E492046A2
:1042F80001F008FB0D4A0E490E4801F023F800238F
:1043080002220D490D48BDE8104000F061BF00BF12
:10431800BCE30320E8E20320ECE30320C5410D00E1
:1043280047A60D00B9400D0044A60D004CA60D008F
:10433800C5400D0021530D00D0E3032054A60D0005
:1043480070B50646002500240E4800F000FD8442A2
:104358000BD26019C0B2FFF745FF2146024601346F
:10436800084800F0A4FCA4B2EEE70648013500F0C6
:10437800CDFAADB2304600F0C3FFB5F5807FE2D18B
:1043880070BD00BFBCE30320084B1B68042B0AD098
:10439800074B1B782BB9074A1360074A1360074A73
:1043A8001360FFF747BF1420FFF7CABFD0E303200D
:1043B800B9E30320E8E20320ECE20320F0E2032063
:1043C80010B5084C00F05EFD02231A461E21204657
:1043D80000F08AFA2046044A0449BDE8104002F079
:1043E800FFBA00BFBCE30320B0E3032051480D002F
:1043F800D0B52DED028BB0EE418AF0EE618A82B025
:104408008DED000B0C4603F039FF00220023064611
:104418000F4604F001FA9DED000B08BB53EC102B7E
:104428003046394603F090FFB0EE481AF0EE681AAD
:1044380041EC100B02F098FC53EC102B2046CDE910
:10444800002303F01BFFDDE9002303F07DFF41ECAF
:10445800100B02B0BDEC028BBDE8D04002F02ABCC4
:104468009FED030B02B0BDEC028BD0BDAFF3008013
:1044780000000000000000002DE9F04F2DED028B38
:1044880055EC104B83B0B8A3D3E90023019029461B
:1044980010EE100A04F0DEF9D8B10022C24B204613
:1044A800294604F0C3F9A0B10022BF4BBF4F2046F4
:1044B800294603F095FD002201F10041BC4B04F0B0
:1044C8006DF80026804689464FF0000A4FF0000B31
:1044D800ACE00022B44B2046294604F0BBF9B0B149
:1044E8009DA3D3E900232046294604F09FF970B123
:1044F8000022AD4BAD4F2046294603F071FD002246
:10450800AC4B04F04BF8002682468B4622E092A37F
:10451800D3E900232046294604F09CF9F8B190A37A
:10452800D3E900232046294604F080F9B8B18CA3CA
:10453800D3E900232046294603F052FD002201F169
:1045480000419D4BDFF864B204F028F84FF0000AF0
:1045580006460F464FF000084FF000095EE080A3C2
:10456800D3E900232046294604F074F9D0B100228B
:10457800924B2046294604F059F998B178A3D3E91B
:1045880000232046294603F02BFD00228C4BDFF840
:104598001CB204F003F800268046894600274FF035
:1045A800000A3BE00022854B2046294604F052F9D8
:1045B800B8B10022834B2046294604F037F980B170
:1045C8000022804B2046294603F00AFD002201F113
:1045D80000417D4B03F0E2FF002682468B46002710
:1045E80011E00022774B2046294604F033F978B1D0
:1045F8000022764B2046294604F022F9002600279F
:10460800B246BB4640B14FF00008DFF8A09105E084
:1046180000260027B246BB46B046B94652A3D3E9A6
:1046280000232046294604F015F9D0B10022684B32
:104638002046294604F0FAF898B14BA3D3E90023A1
:104648002046294603F0CCFC49A3D3E9002303F014
:104658007BFE00225A4B03F0A1FF47A3D3E90023B6
:104668002EE000225A4B2046294604F0F3F830B1D8
:104678000022544B2046294604F0D8F828BB0022D3
:10468800504B2046294604F0E5F808B300224F4B6A
:104698002046294604F0D4F8D0B122462B46002003
:1046A8004A4903F09DFC36A3D3E9002303F04CFEEE
:1046B80035A3D3E9002303F071FF35A3D3E9002321
:1046C80003F090FC41EC180B04E09FED338B01E004
:1046D8009FED338B4946404604F0E6F8B0EE480AB1
:1046E800F0EE680A9FED2C1BFF21FFF781FE51ECCD
:1046F800100B04F001F9019B59461860504604F06C
:10470800D3F8B0EE480AF0EE680A9FED231BFF21AC
:10471800FFF76EFE51EC100B04F0EEF8019B3946E2
:104728005860304604F0C0F8B0EE480AF0EE680A67
:104738009FED191BFF21FFF75BFE51EC100B04F0F6
:10474800DBF8019B9860184603B0BDEC028BBDE80E
:10475800F08F00BFAFF300800000000000A07E4093
:104768000000000000E07F400000000000E075400D
:10477800CDCCCCCCCCCCEC3F9A9999999999B93FAE
:104788009A9999999999E93F0000000000E06040E2
:104798009A9999999999C93F000000000000F03F43
:1047A800000000000000000000807B400000F03F97
:1047B80000805640000049400000344000208240FC
:1047C80000805140002884400040504000608840EC
:1047D80000407A40000000002DE97043164BD3E9F1
:1047E800008955EC104B064642464B462046294662
:1047F80004F01CF822462B4630B12046294603F027
:10480800F1FB04460D46EFE70C49D1E9000103F03E
:10481800C5FE07A3D3E9002303F096FD41EC100B76
:104828003046FFF729FE3046BDE87083AFF30080BD
:104838000000000065CDCD4100E30320F8E203202D
:1048480000F010BB00F006BB10B50446C06808B104
:1048580000F02EFD23781BB10021E07902F054F816
:10486800204610BD38B50446C0680D4608B100F0B2
:104878001FFDA379062B0CBF0420032010FB05F0B5
:1048880080B2A08000F00CFDE06028B1A288002171
:1048980004F086F8658038BDA080608038BD10B50A
:1048A80004460121C07902F02FF80021E07902F0D6
:1048B8003CF80123237010BD38B5037805460C4633
:1048C8001BB10021C07902F01FF82B78EC7153B1AD
:1048D800A4B22046012102F017F820460021BDE8C5
:1048E800384002F022B838BD70B500250446164697
:1048F800837105700572C5600561FFF7B3FF204637
:104908003146FFF7D9FF204670BD0000C368002B71
:1049180000F08B812DE9F04F8379023BDBB2042B49
:104928009CBFC44A52F8234087B0054688BF32244A
:10493800FFF786FF2B69C01AA042F9D3BE4AAB889D
:1049480007CA06AC04E90700039C1B01D4F800253C
:104958000433019322B9D4F86035002BC0F2558195
:10496800049CD4F8003523B9D4F86035002BC0F284
:104978003C81059CD4F800351BB9D4F86035002B70
:104988006EDBAE4BEA791E68AD4CAE49E0681201A9
:10499800B31840F080705B78B75CE0600A6803F099
:1049A8001F0343EA471301273A430A600C46A888C5
:1049B800D5F80C90D4F804A09F408846002844D02D
:1049C800CC4600224FF0A0411CF801EB08208026BD
:1049D80063689B1A462BFBD9D8F80420D1F8083510
:1049E8001EEA060F43EA0703C1F808352FD06368AB
:1049F8009B1A282BFBD9D1F80C35013843EA070359
:104A08004FEA5606C1F80C35E2D1C9EB0C03A88869
:104A18009BB29842D8D84FF4307303FB00F0636818
:104A28009B1A462BFBD9D8F80430CAEB030A8245F7
:104A3800C0F0D5804FF49670FFF704FFA888D5F82A
:104A48000C90D4F804A00028BAD10246E7E76368BE
:104A58009B1A112BCFD863689B1A112BF7D9CAE779
:104A6800D4F86435002B8CDAD4F86835002B88DA52
:104A7800D4F86C35002B84DA019800F011FC00287A
:104A88003FF47FAFAB88002B00F0D08000273B4677
:104A98006D4E6E4900E01346EA68D25D03F1010EDF
:104AA80012F0800F14BFB04688461FFA8EFE12F02F
:104AB800400F14BFB146894612F0200F20F813802A
:104AC80018BFB24620F81E9008BF8A4603F10208B4
:104AD80012F0100F03F1030E14BFB4468C461FFAF0
:104AE80088F812F0080F1FFA8EFE03F104091FFA66
:104AF80089F914BFB3468B4612F0040F20F818A0AA
:104B080020F81EC014BFB2468A4603F1050812F009
:104B1800020F03F1060C03F1070E20F819B01FFA73
:104B28008EFE14BFB14689461FFA88F812F0010FAD
:104B38001FFA8CFC14BF32460A4620F818A020F849
:104B48001C9020F81E200137B5F804E0BFB203F12D
:104B58000802BE4592B29ED803F109020A3392B206
:104B68009BB252005B0001994FF4004686524908F7
:104B7800C65200221423C4F80425304EC4F80C256C
:104B8800C4F80835C4F81425C4F81025C4F820055D
:104B9800C4F82415C4F82825C4F82C25EB79316805
:104BA8001B01CE18C95C737803F01F0343EA411355
:104BB8000121C4F86035C4F80015C4F81021A160BB
:104BC800D4F81031002BFBD000234FF0FF32C4F88B
:104BD8001031C4F80035C4F8602500F069FBFFF710
:104BE8002FFE286107B0BDE8F08FD4F86435002B9C
:104BF800BFF6BFAED4F86835002BBFF6BAAED4F80E
:104C08006C35002BBFF6B5AE36E7D4F86435002B0B
:104C1800BFF6A6AED4F86835002BBFF6A1AED4F81F
:104C28006C35002BBFF69CAE26E7704704230222A2
:104C380099E700BF68A60D005CA60D00D4E3032029
:104C4800F0ED00E0001000E00D80FFFF0680FFFFA0
:104C5800F0B544889DF814508C4227D9047A44B1A1
:104C680012FB04F214FB03F314FB05F4120A1B0AEB
:104C7800250A8779C66801EB4101082F06EB010474
:104C880011D80120B84010F4D27F08D1C0060AD547
:104C9800FF2A08BFFE2272546570A370F0BD7354DA
:104CA8006270A570F0BD72546370A570F0BD438842
:104CB8008B42F0B545D9057AC2F30743C2F30724FE
:104CC800D6B245B16B436C436E43C3F30723C4F3B9
:104CD8000724C6F3072690F806C0C768BCF1060F7C
:104CE8000CBF042503256943BCF1080F07EB010538
:104CF80024D84FF0010E0EFA0CFE1EF4D27F0CD110
:104D08001EF0400F0DD11EF0100F17D0FF2B08BF5B
:104D1800FE237B546E70AC70F0BD7C546B70AE702B
:104D2800F0BD7B546C70AE70037A120E0BB9D2B220
:104D380002E05A43C2F30722EA70F0BD7B546C705C
:104D4800AE70F0BD42EA012242EA00407047408856
:104D580070474A1C037AD2B29A4270B51ED0013B02
:104D680013F0FF03C4680CD0FF291FBF110201F123
:104D7800FF3191FBF3F39BB204BF4FF6FF7191FB38
:104D8800F3F32546291B868889B28E4205D92978EE
:104D98005943091205F8011BF4E7027270BD0000BF
:104DA80008B500F06FF800F06DF8014B186008BD09
:104DB800D4E3032008B5024B1B685B68019308BD68
:104DC8004802030008B5024B1B689B68019308BDA5
:104DD8004802030008B5024B1B681B69019308BD14
:104DE8004802030008B5024B1B685B69019308BDC4
:104DF8004802030008B5024B1B681B6B019308BDF2
:104E08004802030008B5024B1B685B6C019308BDA0
:104E18004802030008B5024B1B68DB6C019308BD10
:104E28004802030008B5024B1B685B6D019308BD7F
:104E38004802030008B5024B1B68DB6E019308BDEE
:104E48004802030008B5024B1B689B68019308BD24
:104E58001802030008B5024B1B68DB68019308BD04
:104E68001802030008B5024B1B681B69019308BDB3
:104E78001802030008B5024B1B685B69019308BD63
:104E88001802030008B5024B1B681B68019308BD94
:104E98002C02030008B5024B1B689B68019308BDF0
:104EA8002C02030008B5024B1B68DB68019308BDA0
:104EB8002C02030008B5024B1B681B69019308BD4F
:104EC8002C02030008B5024B1B681B6A019308BD3E
:104ED8002802030008B5024B1B685B6A019308BDF2
:104EE8002802030008B5024B1B689B6A019308BDA2
:104EF8002802030008B5024B1B68DB6A019308BD52
:104F08002802030008B5024B1B681B6B019308BD00
:104F18002802030008B5024B1B685B6B019308BDB0
:104F28002802030008B5024B1B681B6C019308BDDF
:104F38002802030008B5024B1B681B69019308BDD2
:104F48006C02030008B5024B1B685B69019308BD3E
:104F58006C02030008B5024B1B689B69019308BDEE
:104F68006C02030008B5024B1B685B6D019308BD1A
:104F78006C02030008B5024B1B689B6D019308BDCA
:104F88006C02030008B5024B1B685B69019308BDFE
:104F98006402030008B5024B1B689B69019308BDB6
:104FA8006402030008B5024B1B681B6A019308BD25
:104FB8006402030008B5024B1B685B6A019308BDD5
:104FC8006402030008B5024B1B689B6A019308BD85
:104FD8006402030008B5024B1B689B68019308BD77
:104FE8006802030008B5024B1B68DB68019308BD23
:104FF8006802030008B5024B1B685B68019308BD93
:105008003802030008B5024B1B689B69019308BD71
:105018003802030008B5024B1B68DB69019308BD21
:105028003802030008B5024B1B68DB6A019308BD10
:105038003802030008B5024B1B685B6B019308BD7F
:105048003802030008B5024B1B689B6B019308BD2F
:105058003802030008B5024B1B68DB69019308BDE1
:105068003002030008B5024B1B681B6A019308BD98
:105078003002030008B5024B1B681B68019308BD8A
:105088003C02030008B5024B1B68DB68019308BDAE
:105098003C02030008B5024B1B681B69019308BD5D
:1050A8003C02030008B5024B1B685B69019308BD0D
:1050B8003C02030008B5024B1B689B69019308BDBD
:1050C8003C02030008B5024B1B68DB69019308BD6D
:1050D8003C02030008B5024B1B681B6A019308BD1C
:1050E8003C02030008B5024B1B689B6A019308BD8C
:1050F8003C02030008B5024B1B681B68019308BDFE
:105108004C02030008B5024B1B685B68019308BD9D
:105118004C02030008B5024B1B681B69019308BDCC
:105128004C02030008B5024B1B685B69019308BD7C
:105138004C02030008B5024B1B689B69019308BD2C
:105148004C02030008B5024B1B68DB69019308BDDC
:105158004C02030008B5024B1B681B6A019308BD8B
:105168004C02030008B5024B1B681B6D019308BD78
:105178006002030008B5024B1B685B68019308BD19
:105188002002030008B5024B1B685B69019308BD48
:105198002002030008B5034B1B68D3F8883001933D
:1051A80008BD00002002030008B5034B1B68D3F8B4
:1051B8009430019308BD00002002030008B5034B9A
:1051C8001B68D3F8A430019308BD00002002030037
:1051D80008B5024B1B681B68019308BD4402030015
:1051E80008B5024B1B685B68019308BD44020300C5
:1051F80008B5024B1B68DB6B019308BD4402030032
:1052080008B5024B1B685B68019308BD40020300A8
:1052180008B5024B1B689B68019308BD4002030058
:1052280008B5024B1B68DB68019308BD4002030008
:1052380008B5024B1B681B69019308BD40020300B7
:1052480008B5024B1B685B69019308BD4002030067
:1052580008B5024B1B689B69019308BD4002030017
:1052680008B5024B1B68DB69019308BD40020300C7
:1052780008B5024B1B681B6A019308BD4002030076
:1052880008B5024B1B681B6B019308BD4002030065
:1052980008B5024B1B685B6B019308BD4002030015
:1052A80008B5024B1B681B68019308BD1C0203006C
:1052B80008B5024B1B685B68019308BD1C0203001C
:1052C80008B5024B1B689B68019308BD1C020300CC
:1052D80008B5024B1B68DB6A019308BD1C0203007A
:1052E80008B5024B1B681B6B019308BD1C02030029
:1052F80008B5024B1B68DB6B019308BD1C02030059
:105308000021FFF73FBF10B58368044613B103229D
:1053180001469847204610BD10B588B00446684637
:1053280000F05DFD694604A800F07BFD04A8A047D5
:10533800044604A800F00CFD684600F009FD20466C
:1053480008B010BDF0B5102485B007460E461546C6
:1053580000212246684603F023FB002269461046D6
:10536800ADF80040029703960195FFF739FF05B0A5
:10537800F0BD002211464068FFF77ABF00221146AF
:105388004068FFF785BF00224068FFF779BF002219
:1053980081F001014068FFF763BF00231A461946F0
:1053A8004068FFF755BF00231A4619464068FFF7C3
:1053B80047BF002211464068FFF73ABF0022114656
:1053C8004068FFF725BF002202214068FFF728BF89
:1053D80000231A464068FFF713BF0000024B032260
:1053E8005A60024A1A607047D8E3032084A60D0069
:1053F8007047F8B5064615460C468F18BC4206D0CD
:10540800336814F8011B9B6830469847F6E728462E
:10541800F8BD0022007CFFF755BD0021007CFFF796
:1054280059BD0021007CFFF75DBD0021007CFFF71E
:1054380061BD0021007CFFF765BD10B50446FEF78D
:105448002AFE204610BD000010B504464FF47A73BA
:105458000846A3600021044B207461602360FFF7B5
:1054680061FD204610BD00BFB8A60D000021007CDC
:10547800FFF750BD704710B50446FEF70CFE2046F6
:1054880010BDF0B5037D062B8DB00E4600F1040764
:105498004FF0000402D000F1080518E00CAD3946C1
:1054A80005F8304D2F232A460A20FFF76BFD2846C2
:1054B80003F0C0FA33680246DB682946304698474D
:1054C8000FE024B12E21304600F0C0FB044415F84B
:1054D800011D0A22304600F0E9FBBD420444F0D128
:1054E80020460DB0F0BD000010B5054B0446112252
:1054F80040F8043B002103F053FA204610BD00BFDA
:10550800E0A60D000346074A10B543F8042B01F145
:10551800100251F8044B43F8044B9142F9D10A7830
:105528001A7010BDE0A60D00037D042B01D1406860
:1055380008E0062B0AD1436853B1836843B1C368B6
:1055480033B10069003018BF012070470020704750
:105558001846704710B59DF8084044EA032343EA0B
:10556800024242EA016104234160037510BD37B568
:105578000D788B784A78C97800912946FFF7EAFFB9
:1055880003B030BD014B024A1A607047E0E30320C4
:105598009FA70D0010B5836804460BB1C06806E0EC
:1055A800406828B183680BB901F039FAC368984795
:1055B800012323740020BDE81040FFF73BBC002204
:1055C80011464068FFF754BE002211464068FFF7B5
:1055D8005FBE00224068FFF753BE002281F0010140
:1055E8004068FFF73DBE00231A4619464068FFF79A
:1055F8002FBE00231A4619464068FFF721BE002235
:1056080011464068FFF714BE002211464068FFF7B4
:10561800FFBD002202214068FFF702BE00231A46A0
:105628004068FFF7EDBD10B103685B681847704725
:1056380038B504460068D0B1FFF7C4FBB8B9237C7D
:105648001BB9206808B1FFF7C5FB656855B1AB68A1
:105658001BB103222946284698472846FEF71BFD1A
:10566800002363602068FFF7BDFB0023236038BD7B
:1056780038B50B4B03600446D0F8CC0108B1FEF7EF
:105688000CFDD4F8C4512DB12846FFF7D1FF2846A8
:10569800FEF701FDA06808B1FFF7C5FF204638BD39
:1056A800D0A70D000068FFF7B5BB2DE9F84F0B9F99
:1056B8009DF828B00646884691469A460446002535
:1056C800236C4B4529D1636C534526D194F8483057
:1056D8005B4522D14021404603F0C9F941460246C4
:1056E800204603F0AFF9C0B96FB10C21384603F07A
:1056F800BEF9024638B1582303FB056039464930E4
:1057080003F0A0F904E0582000FB056595F849006E
:10571800B0FA80F04009BDE8F88F0135052D04F195
:105728005804CDD10020BDE8F88F00002DE9F04FD6
:1057380085B007469DF838A00F9E0196CDF800A0C9
:10574800894602920393FFF7B0FF00283CD1044634
:10575800582303FB0475D5F84080B8F1000F2ED10B
:105768004021484603F083F94946834602462846C5
:1057780003F00BF9CBF14002414605EB0B0003F0B7
:105788000FF9029B2B64039B6B6485F849802EB14B
:105798000C21304603F06BF9054600E035465820E9
:1057A800444338193C442A4631464930254403F0DD
:1057B800ECF8002085F8490084F848A005E0013499
:1057C800052CC6D1024800E0002005B0BDE8F08FE6
:1057D800FCFEFFFF07B5002301930093FFF7A6FF28
:1057E80003B05DF804FB2DE9F341044608460D4675
:1057F800904603F01FF904F5DC760746236CABB13D
:105808004021204603F033F9874202460BD329464C
:10581800204603F0ABF830B9009043462A462146AB
:105828005820FFF7CBFC5834B442E7D102B0BDE8AA
:10583800F081000030B58DB004461122002101A886
:1058480003F0AEF8062301AA09498DF814300A209E
:10585800FFF7A0FB07AD01A906A8FFF753FE0FCD80
:1058680004340FC42B68237000200DB030BD00BF76
:10587800FCA70D0030B5044689B000F5E070FFF7CD
:1058880011FF236883BB4C20FEF701FC054608B1D5
:1058980000F01AFE2068256008B1FFF7C4FE2068F2
:1058A80020B300224FF49A6100F03DFE08A90025BC
:1058B80001F8195D1148FFF73DFB20689DF80720A6
:1058C800036849F269011B6A984702A8FFF70CFEB2
:1058D80002A8FFF7AFFF002804DB02A9206800F048
:1058E800A8FE04E0054602E0002500E0044DD4F8D7
:1058F800C001FFF797FA284609B030BD09A80D0086
:10590800FCFEFFFF2DE9F341044600F5E0700F4669
:105918009046FFF7C7FED4F8BC61FEB91A491420B7
:1059280001F06CF8054670B1184B83604FF4406382
:1059380006604660C4600674032201930090144B0D
:105948001449FFF737FAD4F8BC61C4F8BC512EB13A
:105958003046FFF76DFE3046FEF79DFB2046FFF709
:1059680089FF002807DB42463946201DFFF732FF32
:1059780000EAE07500E00546D4F8C001FFF752FAE6
:10598800284602B0BDE8F081CCA90D00B15A0D003F
:105998009D550D000DA80D002DE9F041054600F5B7
:1059A800E0768AB03046FFF77DFE2C68D5F8C00156
:1059B800FFF738FA002C63D0D5F8C43163B12368F7
:1059C800D5F8C4111F6B20464FF47A734FF49A62CE
:1059D800B847041E13DC56E02D494FF49A6001F0D5
:1059E8001CF8D5F8C431C5F8C40113B11846FEF740
:1059F80054FBD5F8C431002BE1D1264844E02023DC
:105A0800254A029300920023019402AA2349039392
:105A18000120FFF7A7FBD5F8C4315F1C1B786BBBCF
:105A2800013C2146384603F022F838B3241A002CEA
:105A380007EB000822DD3B5C03BB013C0ED008F1FC
:105A480001082146404603F012F8241A002C15DDFF
:105A580018F8003093B9012C02D00FE0DFF8448029
:105A68003046FFF71FFE42463946281DFFF7BBFEAA
:105A7800D5F8C001FFF7D6F9002005E0084803E093
:105A88006420FFF7DFF920460AB0BDE8F08100BFC7
:105A9800CCA90D00FCFEFFFF1CA80D0015A80D00E9
:105AA800E8FEFFFF00A70D0008B504462046FFF7F3
:105AB80073FFFBE738B50D4C0D4B2360002502231F
:105AC80004F5E4706360A560C4F8C451C4F8C85113
:105AD800FFF798F9074BC4F8CC5123602046064AD3
:105AE8000649BDE8384000F07BBF00BFE4E303206F
:105AF80034A80D00D0A70D00B0E3032079560D009F
:105B080000231A464068FFF77BBB00220221406849
:105B1800FFF786BB002211464068FFF779BB0022D9
:105B280011464068FFF784BB00231A4619464068AF
:105B3800FFF786BB00231A4619464068FFF788BB63
:105B4800002281F001014068FFF78ABB002240680B
:105B5800FFF796BB002211464068FFF799BB002269
:105B680011464068FFF784BB70B58CB014460646F2
:105B7800FFF7BAFC0CAB0022114643F8302D204643
:105B8800FFF730FA014658BB009B4BB35A68022A0C
:105B98000ED00A2A24D15C69112201A802F000FF64
:105BA80006238DF8143001AD04F10803183405E01C
:105BB800596930460431FFF7DAFC11E01868596872
:105BC8002A4603C20833A3421546F7D101A906A8FD
:105BD80007ADFFF797FC0FCD341D0FC42B6823705A
:105BE8000098FFF7F7F930460CB070BD024B034A36
:105BF8001A6000225A607047B4E5032034A80D00EB
:105C0800F8B506460D468F180024BD420CD03368FF
:105C180015F8011B9B6830469847002801DB0444AF
:105C2800F3E7002C08BF04462046F8BD70B50546CA
:105C38000C46084649B102F0FDFE2B680246214693
:105C48002846DB68BDE87040184770BD03689B684C
:105C5800184730B58BB00B4600218DF82410012A67
:105C680098BF0A220DF12304B3FBF2F505FB1233AA
:105C780003F0FF03092B94BF30333733DBB22146DF
:105C880004F801392B46002DEED1FFF7CFFF0BB0FA
:105C980030BD10B42AB903685DF8044B9B68C9B2DB
:105CA8001847D2B25DF8044BFFF7D3BFFFF7F1BF37
:105CB80010B5044630B102F07BFE90FBF4F303FB11
:105CC800140010BD10BD884210B5044604DA081A45
:105CD800FFF7EEFF204410BD10BD10B50446FFF7D6
:105CE80012FB204610BD00000348044A0449002363
:105CF800836000F075BE00BFBCE50320B0E303205D
:105D0800E35C0D00704710B50446FEF7C4F9204661
:105D180010BD000070B5084B0360044600250E4610
:105D280040F80C5FFFF766F830462671FFF792F9E6
:105D3800A560204670BD00BF68A80D000079FFF778
:105D480091B9704710B50446FEF7A5F9204610BD75
:105D580010B504460068FFF7ABFA204610BD10B531
:105D68000446006808B1FFF7A3FA00232360A36084
:105D7800636010BD38B504460D4600680131FFF771
:105D88009FFA10B184E82100012038BD10B50368DE
:105D9800044613B143688B4207D22046FFF7EAFF57
:105DA80020B1A3680BB922681370012010BD70B52B
:105DB8000E46114604461546FFF7E8FF18B9204677
:105DC800FFF7CDFF09E02A463146A560206802F0BA
:105DD800DCFD2268A3680021D154204670BD38B587
:105DE8000023044603604360836003730D4639B1A2
:105DF800084602F01FFE294602462046FFF7D7FF55
:105E0800204638BD884210B50B46044607D00968BD
:105E180019B19A68FFF7CBFF01E0FFF7A0FF204612
:105E280010BD10B50023044603604360836003730C
:105E3800FFF7E8FF204610BD70B504460E4609B9C5
:105E4800002070BD6AB18368D5182946FFF79EFF08
:105E58000028F5D02068A3683146184402F0E2FD16
:105E6800A560012070BD38B5044680688568FFF7D5
:105E7800E3FFA3689868401B38BD07B500238DF879
:105E88000410012201A98DF80530FFF7D5FF03B0F2
:105E98005DF804FB08B58068FFF7EFFF08BD0068F0
:105EA80008B102F04DBD704730B585B000230D46EE
:105EB800029303604360836003731421064B0193CC
:105EC80004460390FFF762FF2B6801A91B68284668
:105ED8009847204605B030BD78A80D00054B4FF611
:105EE8009C7200205A804FF6FF7218709A80FFF754
:105EF80041B900BFCCE50320024B1A68024B1A6077
:105F0800704700BF08E30320D4E5032010B40468F9
:105F1800246BA4465DF8044B604703689B6C1847E4
:105F2800808E7047028FC08E101A704713B502AB6F
:105F3800026803F8011DD46819460122A04702B07F
:105F480010BD10B503681B690446984728B1E38E55
:105F5800E26B591CE186D05C10BD4FF0FF3010BDDC
:105F680010B503681B690446984718B1E38EE26BC5
:105F7800D05C10BD4FF0FF3010BD704710B4034621
:105F88000846DC6BD98E1A8F0368521ADB682144E5
:105F98005DF8044B1847A0F11000FFF7EFBFF0B50C
:105FA80003688DB01C265B6A04460F461546984761
:105FB80001233246002105A8029302F0F1FC8DF876
:105FC800146038460A268DF81560FEF7FBFF11228B
:105FD800ADF8160002213046FFF734F8002860615A
:105FE80024DB0422009202AB40F6FF71FFF70AF8A7
:105FF800E0B995B10390ADF8100003A9E8B2FEF737
:10600800A1FF98B90623009341F20B0203AB40F6B7
:10601800FF716069FEF7F6FF40B91C2205A96069A7
:10602800FEF7E8FF10B96564012004E02368204604
:106038005B6A984700200DB0F0BD10B50446406972
:10604800002801DBFEF7E6FF4FF0FF336361002312
:10605800E386238710BD38B5C36B0546C08E13B1E0
:106068002C6C241A00E01C46944228BF1446224691
:10607800184402F08AFCEB8E2344EB86204638BD98
:1060880070B503681B6904460E461546984788B1E3
:10609800236820461B699847E38EE16B8542A8BFB9
:1060A800054619442A46304602F06FFCE38E2B441D
:1060B800E38601E04FF0FF35284670BD70B5044611
:1060C800054B44F8043B01F1200506460FCD0FC4EB
:1060D8002B682370304670BDE0A60D00F0B59446DD
:1060E800026889B0976A0A4A02921D1D8E460646C2
:1060F8000FCD03AC0FC42B682370BDF83830009364
:10610800624602AB71463046B84709B0F0BD00BFE1
:10611800E0A60D00F0B50368B0F836E09F6A0D4BB5
:1061280089B000F12006044602930FCE03AD0FC5D7
:1061380033682B70A38E0093724602ABE16B204646
:10614800B84723680546DB6920469847284609B0C2
:10615800F0BD00BFE0A60D00F0B54378022B8DB06E
:1061680005460C46174601D1011D33E00A2B35D1EF
:106178001122002101A802F013FCAB6843B9EB68B7
:1061880033B94FF6FF702E69FEF70CFF86421FD019
:1061980005F1080301AE05F1180E18685968324672
:1061A80003C2083373451646F7D1062301A906A88A
:1061B80007AE8DF81430FFF7A5F90FCE04340FC4DD
:1061C8003368237057B16888FEF7F4FE388005E01D
:1061D80005F114012046FFF7CAF9F3E70DB0F0BD49
:1061E8002DE9F0418EB00EAB00250646174608464D
:1061F80043F8345D2A462946FEF7F4FE00281FDBE3
:10620800019BFBB15B69EBB102A8FFF76DF9019B3C
:106218002A46586902A9FFF79FFF02A8FFF784F9E9
:1062280080B1336803ADD3F838800B4B08930FCD9A
:1062380009AC0FC42B6823703A4608A93046C047FA
:10624800044601E04FF0FF340198FEF7C3FE2046F4
:106258000EB0BDE8F08100BFE0A60D002DE9F047C3
:10626800D0F81480B8F1000F98B005460C461746D0
:10627800994600DB11B94FF0FF304EE04FF01C0A91
:1062880009AE52460021304602F08AFBCDF810A034
:10629800B9F1000F14D04FF47A72B9FBF2F11091F2
:1062A80002FB11914A4308231192009341F206021E
:1062B80010AB40F6FF714046FEF7A4FE08B12CE093
:1062C800082004AB01932146034600963A466869C4
:1062D800FEF7A8FE041E1FDB05F11C0705F13402BA
:1062E80030463946FFF738FF00262023394605A8EF
:1062F80010931196FFF7D8FDAB8E0393059B02937D
:10630800074B009301200194334610AA0549FEF774
:1063180029FF05A8FFF71CFD204618B0BDE8F08747
:10632800B1A80D0015A80D0038B5054614462B7DFB
:10633800062B084611D11C2313700A235370FEF74D
:1063480041FE083424F8060C2B1D143553F8042B91
:1063580044F8042BAB42F9D138BD042B0AD11023E1
:10636800137002235370FEF72DFE60806868FEF7F5
:1063780019FE606038BD00002DE9F04F984691B0D5
:106388002023002482468B4604A841461646BDF8C1
:10639800689008930994FFF787FD049B029308AD62
:1063A800154B164900932A4623460120CDF80C9038
:1063B8000196FEF7D7FE1C2704A8FFF7C9FC3A464A
:1063C8002146284602F0ECFA2A4649464046FFF79D
:1063D800ABFF9DF821304BB18DE8A0002346324633
:1063E8005946DAF81400FEF725FE01E04FF0FF30B9
:1063F80011B0BDE8F08F00BFCEA80D0015A80D00A4
:10640800F0B591B00C4606460021154609A81C2295
:106418001F4602F0C5FA09AA00212046FFF784FFAB
:106428009DF82530022B2ED1002305930A9B049357
:10643800DDB102A92846FEF78DFDB0B910A941F8D3
:10644800340D0298FEF78EFD60B9039B53B1DA68EC
:1064580012685178022903D152680AB1059201E005
:106468001B68F3E70398FEF785FD002F4FF008033C
:10647800009318BF032204AB08BF04220021304652
:10648800FEF7C0FD1EE00A2B1AD104AC142200212D
:10649800204602F085FA0BAB0FCB002F84E80F00E3
:1064A8004FF01403009318BF0C22234608BF0D2297
:1064B800292130460895FEF7A5FD00EAE07001E0C5
:1064C8004FF0FF3011B0F0BD38B54FF47A738360E8
:1064D8000B4B03F108026C33002503614FF0FF33C7
:1064E80004464560026043611C30FEF7FDFF4FF42F
:1064F8000073E5862587E56323646564204638BD17
:10650800FCA80D0010B590F8483004461BB1C06BCC
:1065180008B1FDF7C0FD0023E36384F84830236425
:10652800E386238710BD70B5044616460D46FFF76F
:10653800E9FF0023E66323643EB935B12846FDF739
:10654800A8FD0123E06384F84830E36B03B12564B8
:10655800206C003018BF012070BD70B5C26B0446B6
:106568001AB9016C09B1FFF7DEFFE16B0023E3867E
:10657800238741B1226C32B12068056B2046A847B9
:106588000028C8BF2087236820461B69BDE87040E3
:1065980018470000F0B591B020230546002604A84E
:1065A80017460C4608930996FFF77EFC049B019357
:1065B800104B009308AA33460F4902970120FEF7B3
:1065C800D1FD04A8FFF7C4FBEA6B22B9296C11B10D
:1065D8002846FFF7A8FF04340FCC05F120060FC6A4
:1065E80023683370286CAF860023EB862B8711B0A5
:1065F800F0BD00BFE8A80D0015A80D0010B5074BA9
:1066080003F108026C33044602600361FFF715FDCD
:106618002046FFF777FF204610BD00BFFCA80D00FD
:1066280010B50446FFF7EAFF2046FDF734FD204683
:1066380010BD02464069002804DB012392F844207B
:10664800FFF7DEBE4FF0FF30704770474174704768
:10665800007CFEF747BD007CFEF71CBD007CFEF702
:1066680029BD007CFEF71EBD007CFEF72BBD10B5D2
:106678000446FDF710FD204610BD70B5457C044664
:106688000E4625B9007CFEF72DFD002805DD3146B4
:10669800207CBDE87040FEF7F5BC284670BD0000C0
:1066A80010B5044608461146002262604FF47A721B
:1066B800A260054A22600122207462741A46FEF71D
:1066C800D9FC204610BD00BF74A90D00007CFEF760
:1066D80001BD000038B50C4D296811F0010411D135
:1066E8002846FDF7DCFC68B1084A094B09482146F1
:1066F800FFF7D6FF2846FDF7D7FC074A07490548A4
:1067080000F06EF9034838BD70E6032074E60320F4
:10671800ECE50320D8E50320B0E3032053660D0021
:106728004174704770470021007CFEF703BD0121CA
:10673800007CFEF7FFBC007CFEF7F4BC007CFEF793
:10674800E9BC38B50446007C0D46FEF7EBFC002892
:1067580001DC607C20B12946207CFEF7F3FC012097
:1067680038BD007CFEF7F6BC10B50446FDF793FC77
:10677800204610BD10B50446002363604FF47A73B9
:10678800A360054B236001230846217463741146F6
:10679800FEF7B0FC204610BDA4A90D000022007C25
:1067A800FEF7B0BC10B514220446002102F0F8F838
:1067B800204610BD30B50E4D87B001A8FFF7F2FF97
:1067C800296811F0010410D12846FDF768FC60B172
:1067D80001AA21460748FFF7CDFF2846FDF764FCCC
:1067E800054A0649034800F0FBF8024807B030BDE7
:1067F800F8E60320FCE60320B0E303202D670D0034
:1068080008B50C4B33B1FFF7D5FF03681B699847F0
:10681800002809DC084B63B1FFF75CFF03681B69BC
:106828009847002803DC08BDAFF30080F2E7AFF318
:10683800008008BD000000000000000008B5FFF758
:10684800DFFFFEF717FB014B186008BD14E70320B4
:1068580007B5002300931A466FF07701FEF7A4FCF2
:1068680003B05DF804FB000007B543880A2B08D085
:10687800502B09D1094B1B683BB103B05DF804EB01
:106888001847FFF7E5FF06E0002300931A466FF06C
:106898007701FEF789FC03B05DF804FB10E70320DD
:1068A80008B500210448FEF7A3FC00210348BDE811
:1068B8000840FEF76FBC00BF0000000071680D00C3
:1068C80010B504460F48FFF739FA28B1A4F10B03B5
:1068D800022B01D8002010BD00F040F8FEF7C6FDDD
:1068E80008B1012CF6D9FFF7F5FEFFF7EFFE18B156
:1068F800A4F10903012BEDD91E2C8CBF0020012027
:1069080010BD00BF30E703201E2838B504460D46E9
:106918000AD8FF2908D0FFF7D3FF28B12946204617
:10692800BDE83840FEF7B6BA38BD38B504460D465E
:10693800FEF7B8FAFF2810D0062804D84D2323FA0A
:1069480000F0C30709D42046FFF7BAFF28B129464B
:106958002046BDE83840FEF7ADBA38BD38B50B4D16
:10696800296811F001040FD12846FDF798FB58B1AA
:1069780021460748FEF768FD2846FDF795FB054ABE
:106988000549034800F02CF8014838BD18E70320F2
:106998001CE70320B0E30320F9530D0070B50C4C3D
:1069A8000C4E0D4D00212046FFF7B4F920460B4C44
:1069B8003246294600F014F801212046FFF7AAF9CB
:1069C800324629462046BDE8704000F009B800BFAD
:1069D80030E70320B0E303200D5D0D0040E70320FE
:1069E8000B460146184601F0AFBF0000024B18687D
:1069F800BFF35F8F704700BF50E7032010B5002832
:106A080014BF044601242046FEF74AFC20B9FFF7CC
:106A1800EDFF08B18047F6E710BDFFF7EFBF08B5F7
:106A2800FEF756FC244B1A68D0075CBF01221A6097
:106A3800224B1A68D1075CBF01221A60204B1A68E2
:106A4800D2075CBF01221A601E4B1A68D0075CBFD0
:106A580001221A601C4B1A68D1075CBF01221A6018
:106A68001A4B1A68D2075CBF01221A60184B1A68C1
:106A7800D0075CBF01221A60164B1A68D1075CBFA9
:106A880001221A60144B1A68D2075CBF01221A60EF
:106A9800124B1A68D0075CBF01221A60104B1A68A3
:106AA800D1075CBF01221A600E4B1A68D2075CBF7F
:106AB80001221A60704700BF80E703207CE70320AB
:106AC80078E7032074E7032070E703206CE70320CE
:106AD80068E7032064E7032060E703205CE70320FE
:106AE80058E7032054E70320184B1A68D1075CBF06
:106AF80001221A60164B1A68D2075CBF01221A607D
:106B0800144B1A68D0075CBF01221A60124B1A682E
:106B1800D1075CBF01221A60104B1A68D2075CBF0C
:106B280001221A600E4B1A68D0075CBF01221A6056
:106B38000C4B1A68D1075CBF01221A600A4B1A680D
:106B4800D2075CBF01221A60704700BFA0E703208C
:106B58009CE7032098E7032094E7032090E70320AD
:106B68008CE7032088E7032084E70320184B1A6882
:106B7800D1075CBF01221A60164B1A68D2075CBFA6
:106B880001221A60144B1A68D0075CBF01221A60F0
:106B9800124B1A68D1075CBF01221A60104B1A68A1
:106BA800D2075CBF01221A600E4B1A68D0075CBF7F
:106BB80001221A600C4B1A68D1075CBF01221A60C7
:106BC8000A4B1A68D2075CBF01221A60704700BFDF
:106BD800C0E70320BCE70320B8E70320B4E703209D
:106BE800B0E70320ACE70320A8E70320A4E70320CD
:106BF800244B1A68D0075CBF01221A60224B1A681E
:106C0800D1075CBF01221A60204B1A68D2075CBF0B
:106C180001221A601E4B1A68D0075CBF01221A6055
:106C28001C4B1A68D1075CBF01221A601A4B1A68FC
:106C3800D2075CBF01221A60184B1A68D0075CBFE4
:106C480001221A60164B1A68D1075CBF01221A602C
:106C5800144B1A68D2075CBF01221A60124B1A68DB
:106C6800D0075CBF01221A60104B1A68D1075CBFBD
:106C780001221A600E4B1A68D2075CBF01221A6003
:106C8800704700BFF0E70320ECE70320E8E70320A4
:106C9800E4E70320E0E70320DCE70320D8E703204C
:106CA800D4E70320D0E70320CCE70320C8E703207C
:106CB800C4E70320F8B553EC102BC3F30A54A4F22D
:106CC800FF301328194610EE107A12DC002832DB48
:106CD800234E064133421D462AD04FF4002101417C
:106CE800294421EA060100240B46224643EC102BD6
:106CF800F8BD332805DDB0F5806F22D043EC102BAA
:106D0800F8BDA4F213444FF0FF3525FA04F42242EB
:106D1800F4D00123C0F1330003FA00F0C01928BFF2
:106D2800C91820EA04040B46224643EC102BF8BD90
:106D3800002AD2D1E2E7013003F0004109D0002453
:106D4800D2E710EE100A194601F04CF941EC100B8D
:106D5800F8BD41F07F5141F440110024C4E700BF61
:106D6800FFFF0F00000000002DE9F04F2DED028B12
:106D7800DFF824A38BB057EC106B55EC114B00F0E7
:106D88008FF99AF90080B0EE408AF0EE608AB8F187
:106D9800FF3F48D022462B462046294601F06EFD8B
:106DA800834600283FD132463B463046394601F0FB
:106DB80065FD8146002840F0908030463946002223
:106DC800002301F029FD002836D0002200232046A8
:106DD800294601F021FD8346B8B19FEDA57B01222C
:106DE800A94BCDF820900092CDE90267CDE9044582
:106DF8008DED067B0193B8F1000F5BD09FED9E0BE4
:106E08000BB0BDEC028BBDE8F08F45EC104B00F0E9
:106E1800A7FF40B1002200232046294601F006FDC5
:106E2800002840F0C580B0EE480AF0EE680A0BB0C2
:106E3800BDEC028BBDE8F08FB0EE480AF0EE680AB0
:106E480000F08EFF8046002861D04FF000084FF018
:106E5800000951EC180B42464B4601F0DDFC0028B6
:106E6800E1D047EC106B00F07BFF0028DBD045EC4D
:106E7800104B00F075FF0028D5D09AF90030824AEF
:106E8800019204210022022BCDE90267CDE90445D5
:106E9800CDE906890091089203D0684600F068FFA2
:106EA80070B9FEF725FA2223036009E09FED707B95
:106EB8008DED067B684600F05BFF002800F08E80B1
:106EC800089B1BB1FEF714FA089B03609DED060BA7
:106ED8000BB0BDEC028BBDE8F08F002200232046EA
:106EE800294601F099FC00289DD09FED630B664B65
:106EF800CDF820B00122B8F1020FCDE90267CDE943
:106F080004458DED060B8DE80C00D3D18FE747ECD7
:106F1800106B00F025FF002897D045EC104B00F0CF
:106F28001FFF002891D053EC182B18EE100A1946B1
:106F380001F0A4FC00287CD103239AF90080009377
:106F4800514B0890CDE90267CDE904450193B8F1AA
:106F5800000F48D1DFF844914FF060480022002329
:106F680030463946CDE9068901F060FC002894D006
:106F78000022464B2046294601F0E6F904460D4614
:106F880045EC104B00F000FF204653EC102B29462F
:106F980001F042FC002849D13D4B9AF900804FF09E
:106FA8006042CDE90623B8F1020F7FF476AF78E7A7
:106FB800354A9AF90030CDF820B00121CDE90267B1
:106FC800CDE904458DE80600002B3FF46FAF314949
:106FD8000020022BCDE906017FF46CAFFEF788F99B
:106FE800212303606CE79FED267B002200233046B7
:106FF80039468DED067B01F019FC0028D3D000221C
:10700800224B2046294601F09FF904460D4645ECDF
:10701800104B00F0B9FE204653EC102B294601F026
:10702800FBFB18B91B4B0022CDE906239AF9008017
:10703800B9E7154B9AF90090CDF820800122CDE9E7
:107048000267CDE904458DE80C00B9F1000F3FF463
:107058002DAF002200231046194601F09FFAB9F11E
:10706800020FCDE90601B9D024E700BFAFF30080D5
:107078000000000000000000000000000000F03FD9
:10708800000000000000F07FD0A90D000000E03FE4
:10709800FFFFEFC70000F0FF0CE30320FFFFEF47FF
:1070A8002DE9F04F51EC110B21F0004858EA00048B
:1070B80093B03CD053EC102B6D4E23F00044B442F7
:1070C80010EE10AA1D462BDC894611EE10EA26D0D8
:1070D800B04525DC664EB04577D0002D16461F46D4
:1070E800CDE9000175DB4FF0000BBEF1000F2DD18B
:1070F8005F4B984500F089805E4B98455ED0B9F1AA
:10710800804F00F0DE835C4B99451FD1002D1DDBBD
:1071180047EC106B13B0BDE8F04F00F049BD5AB111
:1071280004F1404404F5801454EA0A0306D19FEDA3
:107138004A0B13B0BDE8F08FA045CBDD4F4813B024
:10714800BDE8F04F00F018BE4FF0000B47EC106B95
:1071580000F0FEFD51EC100BBAF1000F1ED0ED0F40
:1071680005F1FF3A5BEA0A0363D0454B984540F3C3
:107178008D8003F10473984540F33884414B9C4259
:1071880062DDB9F1000F62DD35A3D3E900231046B3
:10719800194601F0D9F841EC100BCAE724B1354B78
:1071A80025F040429A42DAD1B9F1000FC0F2CB8300
:1071B800002DC0F2748341EC100BBAE7B9F1000F4F
:1071C800C0F27A8447EC106BB3E7BEF1000F84D0AD
:1071D800A6E72D4B984529DCA3F15473984582DD29
:1071E8004FEA2853A3F2FF33142B40F37F84C3F1F3
:1071F80034032EFA03F202FA03F39E457FF473AFC9
:1072080002F00102C2F1020B6FE704F1404303F5FB
:10721800801353EA0A038AD01A4B9C4240F38583B1
:10722800B9F1000F13DB9DED000B82E74FF0020B65
:107238005BE732463B461046194600F0D1FE02464F
:107248000B4601F0ABF9B6E7B9F1000F9CDB9FEDF7
:10725800060B6EE7AFF30080000000000000F03F6F
:107268009C7500883CE4377E0000000000000000A8
:107278000000F07F0000F03F0000E03FD4A90D00BF
:107288000000E041FFFFEF3FFFFF3F43B4F5801FE1
:107298004FF0000205DAD64B01F056F86FF03402D1
:1072A8000C462315D34EC4F31304A3F2FF3313443F
:1072B80044F07F55B4421A460D9345F4401540F307
:1072C8004983CD4B9C4240F32D849FEDB37B8DEDDC
:1072D800087B8DED0E7B9FEDB27B13468DED067B13
:1072E80001330D93A5F580154FF00008DDE906235D
:1072F8002946CDE90A0100F073FEDDE906230646BA
:107308000F46DDE90A0100F06DFE02460B4600203B
:10731800BA4901F043F903460C46CDE91034024658
:107328000B463046394601F00FF86B1043F0005316
:1073380003F5002303EB08050A4600230146CDE9BF
:1073480002120293DDE902890024CDE904122B46DA
:1073580022464046494600F0F7FF02460B463046B3
:10736800394600F03DFEDDE9062306460F46204675
:10737800294600F035FE02460B46DDE90A0100F019
:107388002FFE42464B4600F0DFFF02460B463046D2
:10739800394600F025FEDDE9102300F0D5FFDDE9D0
:1073A8000445CDE9060122462B462046294600F031
:1073B800CBFF7DA3D3E9002304460D4600F0C4FFAC
:1073C8007BA3D3E9002300F00DFE22462B4600F0F4
:1073D800BBFF79A3D3E9002300F004FE22462B4625
:1073E80000F0B2FF76A3D3E9002300F0FBFD2246AC
:1073F8002B4600F0A9FF74A3D3E9002300F0F2FDA7
:1074080022462B4600F0A0FF71A3D3E9002300F029
:10741800E9FD224606460F462B462046294600F03F
:1074280093FF02460B463046394600F08DFF424630
:1074380004460D464B46DDE9040100F0D3FDDDE9C5
:10744800062300F081FF22462B4600F0CBFD424682
:1074580006460F464B464046494600F075FF002257
:10746800674BCDE90A0100F0BDFD32463B4600F00E
:10747800B9FD02980D46044622462B464046494629
:1074880000F062FF0022804689465D4B204629466F
:1074980000F0A6FDDDE90A2300F0A2FD02460B4636
:1074A8003046394600F09CFDDDE9042300F04CFF2E
:1074B800224606460F462B46DDE9060100F044FF4A
:1074C80002460B463046394600F08CFD06460F460C
:1074D80002460B4640464946CDE9048900F082FD44
:1074E80002983DA3D3E9002304460D4600F02CFF83
:1074F800DDE90423804689462046294600F070FDD0
:1075080002460B463046394600F06AFD34A3D3E9FB
:10751800002300F019FF34A3D3E9002306460F46E1
:107528002046294600F010FF02460B4630463946F1
:1075380000F058FDDDE90E2300F054FD06460D98D5
:107548000F4600F09BFE324604460D463B46404639
:10755800494600F047FDDDE9082300F043FD2246D7
:107568002B4600F03FFD029822462B46CDE902014A
:1075780000F036FDDDE9082300F032FD42464B46B7
:1075880000F02EFD02460B463046394600F028FD35
:107598008046894636E000BF000000000000000079
:1075A800000000000000F03FEF4E454A287ECA3F29
:1075B80065DBC9934A86CD3F01411DA96074D13F5F
:1075C8004D268F515555D53FFFAB6FDBB66DDB3F71
:1075D800033333333333E33F000000E009C7EE3FA2
:1075E800FD033ADC09C7EE3FF5015B14E02F3EBE10
:1075F800000040438E98030079B60B000000F03F6E
:10760800000008400BF1FF3353EA0A0300F08881B9
:107618009FEDD77B8DED067BDDE900AB53465C46DD
:10762800CDE9003400230093DDE9004550462246A9
:107638002B46594600F0D4FCDDE9022300F084FE15
:10764800524606460F465B464046494600F07CFED9
:1076580002460B463046394600F0C4FC22468046B6
:1076680089462B46DDE90201CDE9048900F06CFE6C
:107678000B46024606460F464046494600F0B2FC15
:10768800D54B994204460D468A4640F3238101F1C1
:107698003F4303F5E003034340F01882B6A3D3E960
:1076A8000023DDE9040100F09DFC3246804689464E
:1076B8003B462046294600F093FC02460B464046CE
:1076C800494601F0D1F8002840F00082A8464FEA68
:1076D80028534FF48012A3F2FE3342FA03F35344C3
:1076E800C3F30A52BD4DA2F2FF321541C3F3130B87
:1076F8000020C2F1140423EA05014BF4801BBAF1FF
:10770800000F02460B464BFA04FB30463946B8BF19
:10771800CBF1000B00F064FC02460B4606460F4610
:10772800DDE9040100F05EFC4FEA0B5A002494A343
:10773800D3E9002320460D4600F006FE3246804677
:1077480089463B462046294600F04AFC02460B463D
:10775800DDE9040100F044FC8BA3D3E9002300F029
:10776800F3FD8BA3D3E9002306460F46204629469E
:1077780000F0EAFD02460B463046394600F032FC7E
:1077880006460F4602460B464046494600F02AFC8C
:1077980042464B4604460D4600F022FC02460B4684
:1077A8003046394600F01CFC2246804689462B4666
:1077B8002046294600F0C8FD77A3D3E900230646F2
:1077C8000F4600F0C1FD76A3D3E9002300F008FCC2
:1077D80032463B4600F0B8FD73A3D3E9002300F01E
:1077E80001FC32463B4600F0AFFD71A3D3E900230C
:1077F80000F0F6FB32463B4600F0A6FD6EA3D3E947
:10780800002300F0EFFB32463B4600F09DFD0246A8
:107818000B462046294600F0E3FB06460F46024683
:107828000B462046294600F08FFD0022CDE90001D5
:107838004FF080433046394600F0D2FB02460B46F3
:10784800DDE9000100F0AAFE424606460F464B4617
:107858002046294600F078FD42464B4600F0C2FB20
:1078680002460B463046394600F0BAFB22462B4604
:1078780000F0B6FB02460B460020594900F0B0FB69
:107888008A44BAF5801F02460B46C0F25B81514616
:10789800DDE9062300F058FD41EC100B49E404F142
:1078A800404404F5801454EA0B0300F03781BBF11F
:1078B800010F7FF480AC024601F1004343EC102B2A
:1078C80037E432463B463046394600F03DFD41EC50
:1078D800100B2EE4434B21F00048984540F31581E6
:1078E800414B0B4403430CD132463B4600F078FB36
:1078F80002460B46DDE9040100F0A2FF00283FF430
:10790800E6AE2FA3D3E90023DDE9060100F01CFD54
:107918002BA3D3E9002300F017FD41EC100B08E47A
:107928009FED297B8DED067B76E6B9F1000FBFF65A
:107938008EACDDE9003400EE103A04F1004300EEAD
:10794800903AFFF7F6BB02460B460020244900F0A8
:1079580025FE2DE49FED1E7B8DED087B8DED0E7BC6
:107968009FED037B4FF000088DED067BBEE400BF62
:10797800000000000000F03FFE822B654715973C91
:1079880000000000432EE63FEF39FAFE422EE63FA4
:10799800396CA80C615C20BED0A4BE726937663E03
:1079A800F16BD2C541BDBB3E2CDE25AF6A56113FF7
:1079B80093BDBE166CC1663F3E5555555555C53FDE
:1079C80059F3F8C21F6EA501000000000000F0BFC7
:1079D8000000000000000000FFFF8F40FFFF0F00C5
:1079E8000000F03FFFCB904000346F3F6C4B9C424F
:1079F8007FF72AAC6B4B9C423FF7C3AB0022694B25
:107A080000F0EEFA56A3D3E9002304460D4600F031
:107A18009BFC55A3D3E90023804689462046294686
:107A280000F092FC0022CDE902015F4B2046294676
:107A380000F08AFC02460B464DA1D1E9000100F096
:107A4800CFFA22462B4600F07FFC02460B46002068
:107A5800564900F0C5FA22462B4606460F462046F0
:107A6800294600F071FC02460B463046394600F0C4
:107A78006BFC41A3D3E9002300F066FC02460B46E9
:107A8800DDE9020100F0ACFA02460B4604460D4659
:107A98004046494600F0A6FA42464B460020CDE94A
:107AA800020100F09DFA02460B462046294600F0E6
:107AB80097FA80468946A5E532463B460020394973
:107AC80000F06CFD41EC100BFFF733BB2CA3D3E99E
:107AD8000023DDE9060100F037FC29A3D3E90023E0
:107AE80000F032FC41EC100BFFF723BBBEF1000F96
:107AF8007FF42AABC3F1140348FA03F202FA03F342
:107B0800984527D0F346FFF7F7BA284B98453FF733
:107B1800DEADDDE900349A469B4607E602460B4691
:107B2800FFF789BB9FED187B8DED087B9FED187BD8
:107B38008DED0E7B9FED187B4FF480288DED067B35
:107B4800FFF7D4BB584643EC102B00F0B1F951ECC9
:107B5800100B9DE602F00102C2F1020BFFF7CCBA4E
:107B6800000000604715F73F44DF5DF80BAE543E58
:107B7800555555555555D53FFE822B654715F73F49
:107B88009C7500883CE4377E0000004003B8E23F63
:107B980006D0CF43EBFD4C3E000000000000F83F4C
:107BA800FEFFEF3F0000F03F0000D03F0000E03F45
:107BB8002DE9F041654955EC104B0E462940B1427C
:107BC80000F09780002D2B4610EE102A74DD2F153B
:107BD8007FD0A7F2FF37C3F31303F90743F48013E9
:107BE80065D403EBD27100260B447F105200B646D1
:107BF80016204FF400110EEB01049C424FEAD27597
:107C08004FEA420203DC1B1B04EB010E0E44013851
:107C180005EB43034FEA5101EDD1844620244FF090
:107C2800004109E020D003EBD275013C4FEA510135
:107C38002B444FEA420220D09E4501EB0C05F1DAB5
:107C4800002D05EB010C09DBF0469542CEEB030352
:107C580000D9013B521B0844C646E4E7BCF1000FBB
:107C6800F2DB0EF10108F0E795421ED8002D05EB76
:107C7800010C50DB98460023ECE7134304D0421C68
:107C88004DD000F00103184440087110F30701F1CA
:107C98007F5101F5001148BF40F0004001EB075348
:107CA800024643EC102BBDE8F0817346BBE75B004E
:107CB80003EBD273520094E725F00041214328D00A
:107CC800ADBB2F46D30A153F5205002BFAD0DD0273
:107CD80028D4002100E001465B00DC0201F101002C
:107CE800F9D5C0F1200422FA04F423437F1A824014
:107CF8006FE710EE102A2B4610EE100A294600F006
:107D080023FB22462B4600F06DF941EC100BBDE831
:107D1800F081BDE8F081BCF1000FA2DAAAE70136D4
:107D28002046B2E720244FF0FF310020DBE710EEB9
:107D3800102A2B462046294600F052F902460B46E7
:107D480000F02CFC41EC100BBDE8F0810000F07F46
:107D580053EC102B23F0004343EC102B704700BF6B
:107D680010EE903A43F0004000F58010C00F7047C5
:107D780000207047000000009FED010B704700BF16
:107D8800000000000000F87FF0B553EC102BC3F39F
:107D98000A56A6F2FF30132883B019464FEAD37467
:107DA80010EE105A2FDC002849DB3F4E064103EA4B
:107DB800060717432CD0760833401D430CD04FF4E8
:107DC8008023132821EA060643FA00F141EA060156
:107DD8000CBF4FF000450025344800EBC4042A4688
:107DE800D4E9004510462B46224600F0FBF8CDE9C1
:107DF800000122462B46DDE9000100F0F1F841ECD4
:107E0800100B03B0F0BD332806DDB0F5806F42D00B
:107E180043EC102B03B0F0BDA6F213464FF0FF3031
:107E2800F0400242F4D040080242D5D04FF08043DF
:107E380025EA000043FA06F646EA0005CCE723F0F7
:107E48000040104310EE107AE2D0C3F3130007434A
:107E5800784207431548590C3F0B490407F400279B
:107E680000EBC40047EA0103D0E900671946104651
:107E78003B46324600F0B6F8CDE900013B463246B3
:107E8800DDE9000100F0ACF821F0004343EAC471D9
:107E980041EC100BBEE710EE100A194600F0A2F8EC
:107EA80041EC100BB6E700BFFFFF0F00D8A90D008B
:107EB80053EC102B70B5C3F30A541946054614BB8E
:107EC80023F0004111432AD019460022384B394E7D
:107ED80010EE100A00F038FAB54202460B461FDBD6
:107EE800C1F30A54363C2C4440F2FE7084421FDC35
:107EF800002C2DDD21F0FF4121F4E00141EA04537B
:107F080043EC102B70BD40F2FF708442EBD110EEB1
:107F1800100A194600F066F841EC100B70BD70BDF0
:107F28001FA3D3E9002300F00FFA41EC100B70BD3A
:107F380043EC112B9FED1C0B00F040F81AA3D3E97A
:107F4800002351EC100B00F0FFF941EC100B70BD51
:107F580014F1350F13DA4CF250318D4243EC112BEA
:107F6800E8DC9FED0F0B00F029F80DA3D3E90023FF
:107F780051EC100B00F0E8F941EC100B70BD21F04A
:107F8800FF4121F4E001363441EA04531046194612
:107F98000022094B00F0D8F941EC100B70BD00BF6E
:107FA80059F3F8C21F6EA5019C7500883CE4377E22
:107FB80000005043B03CFFFF0000903C53EC102BF6
:107FC80011EE900A23F0004100F0004041EA00035E
:107FD80043EC102B704700BF81F0004102E000BF66
:107FE80083F0004330B54FEA41044FEA430594EA71
:107FF800050F08BF90EA020F1FBF54EA000C55EAAC
:10800800020C7FEA645C7FEA655C00F0E2804FEA7C
:108018005454D4EB5555B8BF6D420CDD2C4480EA5E
:10802800020281EA030382EA000083EA010180EA8E
:10803800020281EA0303362D88BF30BD11F0004FDC
:108048004FEA01314FF4801C4CEA113102D0404212
:1080580061EB410113F0004F4FEA03334CEA13334D
:1080680002D0524263EB430394EA050F00F0A78065
:10807800A4F10104D5F1200E0DDB02FA0EFC22FA60
:1080880005F2801841F1000103FA0EF2801843FA54
:1080980005F359410EE0A5F120050EF1200E012A45
:1080A80003FA0EFC28BF4CF0020C43FA05F3C01883
:1080B80051EBE37101F0004507D54FF0000EDCF1FC
:1080C800000C7EEB00006EEB0101B1F5801F1BD3A5
:1080D800B1F5001F0CD349085FEA30004FEA3C0CA9
:1080E80004F101044FEA445212F5800F80F09A809F
:1080F800BCF1004F08BF5FEA500C50F1000041EBA3
:10810800045141EA050130BD5FEA4C0C404141EBA6
:10811800010111F4801FA4F10104E9D191F0000FCD
:1081280004BF01460020B1FA81F308BF2033A3F150
:108138000B03B3F120020CDA0C3208DD02F1140C47
:10814800C2F10C0201FA0CF021FA02F10CE002F182
:108158001402D8BFC2F1200C01FA02F120FA0CFC7B
:10816800DCBF41EA0C019040E41AA2BF01EB0451C4
:10817800294330BD6FEA04041F3C1CDA0C340EDCC2
:1081880004F11404C4F1200220FA04F001FA02F305
:1081980040EA030021FA04F345EA030130BDC4F1C3
:1081A8000C04C4F1200220FA02F001FA04F340EAB8
:1081B8000300294630BD21FA04F0294630BD94F069
:1081C800000F83F4801306BF81F480110134013D50
:1081D8004EE77FEA645C18BF7FEA655C29D094EAC1
:1081E800050F08BF90EA020F05D054EA000C04BF3F
:1081F8001946104630BD91EA030F1EBF002100202A
:1082080030BD5FEA545C05D14000494128BF41F0C8
:10821800004130BD14F580043CBF01F5801130BD2C
:1082280001F0004545F0FE4141F470014FF00000B7
:1082380030BD7FEA645C1ABF194610467FEA655C68
:108248001CBF0B46024650EA013406BF52EA03350A
:1082580091EA030F41F4002130BD00BF90F0000FF8
:1082680004BF0021704730B54FF4806404F1320434
:108278004FF000054FF0000150E700BF90F0000FED
:1082880004BF0021704730B54FF4806404F1320414
:1082980010F0004548BF40424FF000013EE700BFE4
:1082A80042004FEAE2014FEA31014FEA02701FBF74
:1082B80012F07F4393F07F4F81F06051704792F046
:1082C800000F14BF93F07F4F704730B54FF46074C0
:1082D80001F0004521F0004120E700BF50EA01020B
:1082E80008BF704730B54FF000050AE050EA0102B8
:1082F80008BF704730B511F0004502D5404261EB28
:1083080041014FF4806404F132045FEA915C3FF468
:10831800DCAE4FF003025FEADC0C18BF03325FEA01
:10832800DC0C18BF033202EBDC02C2F1200300FAB6
:1083380003FC20FA02F001FA03FE40EA0E0021FADB
:1083480002F11444C1E600BF70B54FF0FF0C4CF4C5
:10835800E06C1CEA11541DBF1CEA135594EA0C0F7B
:1083680095EA0C0F00F0DEF82C4481EA030621EAB6
:108378004C5123EA4C5350EA013518BF52EA0335F1
:1083880041F4801143F4801338D0A0FB02CE4FF0A3
:108398000005E1FB02E506F00042E0FB03E54FF0D3
:1083A8000006E1FB03569CF0000F18BF4EF0010ECB
:1083B800A4F1FF04B6F5007F64F5407404D25FEAC7
:1083C8004E0E6D4146EB060642EAC62141EA55517A
:1083D8004FEAC52040EA5E504FEACE2EB4F1FD0CBC
:1083E80088BFBCF5E06F1ED8BEF1004F08BF5FEA3A
:1083F800500E50F1000041EB045170BD06F00046EC
:1084080046EA010140EA020081EA0301B4EB5C0498
:10841800C2BFD4EB0C0541EA045170BD41F4801190
:108428004FF0000E013C00F3AB8014F1360FDEBFB5
:10843800002001F0004170BDC4F10004203C35DA91
:108448000C341BDC04F11404C4F1200500FA05F314
:1084580020FA04F001FA05F240EA020001F00042B5
:1084680021F0004110EBD37021FA04F642EB06012B
:108478005EEA430E08BF20EAD37070BDC4F10C0455
:10848800C4F1200500FA04F320FA05F001FA04F219
:1084980040EA020001F0004110EBD37041F1000105
:1084A8005EEA430E08BF20EAD37070BDC4F1200510
:1084B80000FA05F24EEA020E20FA04F301FA05F278
:1084C80043EA020321FA04F001F0004121FA04F220
:1084D80020EA020000EBD3705EEA430E08BF20EAF0
:1084E800D37070BD94F0000F0FD101F0004640002A
:1084F80041EB010111F4801F08BF013CF7D041EAAC
:10850800060195F0000F18BF704703F000465200AF
:1085180043EB030313F4801F08BF013DF7D043EA80
:108528000603704794EA0C0F0CEA135518BF95EA36
:108538000C0F0CD050EA410618BF52EA4306D1D1BD
:1085480081EA030101F000414FF0000070BD50EADC
:10855800410606BF1046194652EA430619D094EA66
:108568000C0F02D150EA013613D195EA0C0F05D150
:1085780052EA03361CBF104619460AD181EA0301A4
:1085880001F0004141F0FE4141F470014FF000005C
:1085980070BD41F0FE4141F4780170BD70B54FF0F7
:1085A800FF0C4CF4E06C1CEA11541DBF1CEA135577
:1085B80094EA0C0F95EA0C0F00F0A7F8A4EB050459
:1085C80081EA030E52EA03354FEA013100F0888050
:1085D8004FEA03334FF0805545EA131343EA126319
:1085E8004FEA022245EA111545EA10654FEA0026CE
:1085F8000EF000419D4208BF964244F1FD0404F587
:10860800407402D25B084FEA3202B61A65EB0305E2
:108618005B084FEA32024FF480104FF4002CB6EB9F
:10862800020E75EB030E22BFB61A754640EA0C001F
:108638005B084FEA3202B6EB020E75EB030E22BF5F
:10864800B61A754640EA5C005B084FEA3202B6EBA0
:10865800020E75EB030E22BFB61A754640EA9C005F
:108668005B084FEA3202B6EB020E75EB030E22BF2F
:10867800B61A754640EADC0055EA060E18D04FEAED
:10868800051545EA16754FEA06164FEAC30343EA8D
:1086980052734FEAC2025FEA1C1CC0D111F4801F5A
:1086A8000BD141EA00014FF000004FF0004CB6E753
:1086B80011F4801F04BF01430020B4F1FD0C88BFF2
:1086C800BCF5E06F3FF6AFAEB5EB030C04BFB6EBFD
:1086D800020C5FEA500C50F1000041EB045170BDF0
:1086E8000EF0004E4EEA113114EB5C04C2BFD4EB1D
:1086F8000C0541EA045170BD41F480114FF0000EA1
:10870800013C90E645EA060E8DE60CEA135594EA1C
:108718000C0F08BF95EA0C0F3FF43BAF94EA0C0F1F
:108728000AD150EA01347FF434AF95EA0C0F7FF494
:1087380025AF104619462CE795EA0C0F06D152EAE8
:1087480003353FF4FDAE1046194622E750EA4106CC
:1087580018BF52EA43067FF4C5AE50EA41047FF4DD
:108768000DAF52EA43057FF4EBAE12E74FF0FF3C42
:1087780006E000BF4FF0010C02E000BF4FF0010C13
:108788004DF804CD4FEA410C7FEA6C5C4FEA430C8C
:1087980018BF7FEA6C5C1BD001B050EA410C0CBFDB
:1087A80052EA430C91EA030F02BF90EA020F00203D
:1087B800704710F1000F91EA030F58BF994208BFA4
:1087C80090422CBFD8176FEAE37040F00100704761
:1087D8004FEA410C7FEA6C5C02D150EA013C07D1B8
:1087E8004FEA430C7FEA6C5CD6D152EA033CD3D003
:1087F8005DF8040B704700BF8446104662468C46FD
:108808001946634600E000BF01B5FFF7B7FF00282F
:1088180048BF10F1000F01BD4DF808EDFFF7F4FF58
:108828000CBF012000205DF808FB00BF4DF808EDE3
:10883800FFF7EAFF34BF012000205DF808FB00BF06
:108848004DF808EDFFF7E0FF94BF012000205DF828
:1088580008FB00BF4DF808EDFFF7CEFF94BF0120DD
:1088680000205DF808FB00BF4DF808EDFFF7C4FFD6
:1088780034BF012000205DF808FB00BF4FEA410C1F
:108888007FEA6C5C02D150EA013C0AD14FEA430C02
:108898007FEA6C5C02D152EA033C02D14FF000003F
:1088A80070474FF0010070474FEA410212F500127D
:1088B80015D211D56FF47873B3EB625212D94FEA1F
:1088C800C12343F0004343EA505311F0004F23FA09
:1088D80002F018BF404270474FF00000704750EA5E
:1088E800013005D111F0004008BF6FF0004070471B
:1088F8004FF00000704700BF4A0011D212F5001275
:1089080011D20DD56FF47873B3EB62520ED44FEADF
:10891800C12343F0004343EA505323FA02F070475F
:108928004FF00000704750EA013002D14FF0FF309D
:1089380070474FF0000070470A22002100F04EBF38
:108948000A22002100F04ABF10B5054C13462CB18D
:108958000A4601460220AFF3008010BD204610BD34
:10896800000000000048704778E3032010B5013983
:108978000244904207D010F8013B11F8014FA3427E
:10898800F7D0181B10BD002010BD10B5431E0A44B7
:10899800914204D011F8014B03F8014FF8E710BDDC
:1089A80002440346934202D003F8011BFAE77047DA
:1089B800194B10B51C68A36BD3B91820FCF770FCD1
:1089C80043F20E33A06303804AF6CD33438041F26D
:1089D800342383804EF26D63C3804DF6EC630381CC
:1089E800052343810B23838101220023C0E904234B
:1089F800A16B0A4C0B694869094A5C4302FB0040B9
:108A0800A3FB02230132034443F10003C1E9042319
:108A180023F0004010BD00BF74E303202DF451582B
:108A28002D7F954C034611F8012B03F8012B002AE2
:108A3800F9D17047034613F8012B002AFBD1181A05
:108A48000138704730B582B1451E013915F8013F2C
:108A580011F8014FA34206D1EC431444E04201D07F
:108A6800002BF3D11C46181B30BD104630BD10B585
:108A7800034601448B4204D01A785C1C0AB1234691
:108A8800F8E7181A10BD70B504460D4645EC104BB2
:108A9800164601F091FC51EC100B7EB1C5F30A5358
:108AA800C3F16B03002B09DD1B0503F17F5500247F
:108AB80005F5401522462B46FFF746FC70BD000021
:108AC8002DE9F04F9DB0002302900C4613921893A5
:108AD8004FF0000A4FF0000B1791179B1A780D2AD8
:108AE80005D8092A13D2002A00F0AC8112E02B2AFB
:108AF80004D02D2A04D0202A0CD108E0002200E05E
:108B080001220C925A1C17925B782BB99AE1013317
:108B18001793E2E700230C93179D2B78302B5CD139
:108B28006B78582B01D0782B4CD10C9B019318AB48
:108B38000093A94A029819AB17A900F0A4FE10F0F7
:108B48000706044600F08785062E05D10135002367
:108B580017950C9300F07FBD189A3AB135211AA8E1
:108B680001F017FD1899029801F094F9062E22D801
:108B7800DFE806F0040D08181D0D04004FF0000B87
:108B8800DA4618E0DDF868A0DDF86CB013E01B9B4E
:108B9800199ADDF868A023F4801302F2334243EAFD
:108BA800025B08E0DFF834B24FF0000A03E06FF030
:108BB800004B4FF0FF3A210740F14D854BF0004B39
:108BC80000F049BD179B5A1C17925B78302BF9D0DF
:108BD800002B00F04085012300E000234FF000083F
:108BE8000693179B0793CDF81480CDF810800A22BE
:108BF800179D2E78A6F13003D9B209290ED8049909
:108C08000829DDBF059902FB0133059302FB0838EB
:108C1800049B0135013304931795E9E70298FFF7A0
:108C2800A1FE07680298FFF79DFE0068FFF702FFA4
:108C3800394602462846FFF705FF074628B10020B7
:108C48003346049D0246014657E00298FFF78AFE24
:108C58000068FFF7EFFE179B1A181792049A1B5C1F
:108C6800002A42D11046302B05D1179B5A1C179267
:108C780001305B78F7E7A3F13102082A43D8179A45
:108C88000792024600200546303B00F1010126D03C
:108C98000A4405EB000C29460A2661450ED001312D
:108CA80001F1FF3EBEF1080F03DC059F77430597EE
:108CB800F3E71029D8BF06FB08F8EEE72844082890
:108CC80000F1010505DC05980A2101FB0033059335
:108CD80004E0102DDCBF0A2101FB08380021179B96
:108CE800581C17905B78084602E0049D38463A46BF
:108CF800A3F130010929C7D90121652B01D0452BE2
:108D080051D16DB904E0652B40F0B38400220121F4
:108D180028B9069B002B00F09580054600E0002549
:108D2800179C631C179363782B2B06D02D2B02D02E
:108D38000026039606E0012300E000230393A31C0A
:108D48001793A378A3F13006092E2BD8302B04D122
:108D5800179B5E1C17965B78F8E7A3F13106082E7F
:108D680021D8A3F1300E179B4FF00A0C1F46179B12
:108D78005E1C17965B78A3F13009B9F1090F04D886
:108D88000CFB0E3EAEF1300EF1E7F61B082E44F652
:108D98001F6902DCF145A8BFF146039E2EB1C9F157
:108DA800000902E017944FF00009002D53D1002864
:108DB80040F05184069A002A40F04D84002941D1A0
:108DC8004E2B20D002DC492B0AD03BE0692B07D080
:108DD8006E2B18D036E000BF58AB0D000000F07FB6
:108DE800A84917A800F080FF60B3179BA649013B6C
:108DF80017A8179300F078FF10B9179B0133179342
:108E0800DFF8A0B21AE0A14917A800F06DFFC8B1B9
:108E1800179B1B78282B0FD11AAA9D4917A800F079
:108E280076FF052808D11B9BDDF868A043F0FF4BAF
:108E38004BF4E00B00F00FBCDFF86CB24FF0000A07
:108E480000F009BC139B1794002B00F00F8400233B
:108E58000C9300F002BC049B0598002B08BF2B461E
:108E6800102D2C46C2EB0909A8BF10240493FFF764
:108E7800F5F9092C82468B4613DD864B03EBC403B8
:108E880053E91223FFF760FA064640460F46FFF7FC
:108E9800E5F902460B4630463946FFF7A3F8824605
:108EA8008B460F2D36DCB9F1000F00F0D48324DD9A
:108EB800B9F1160F07DC774D05EBC90952465B4639
:108EC800D9E9000114E0C5F12503994522DC714C6C
:108ED800C5F10F0504EBC501C5EB090552465B4614
:108EE800D1E9000104EBC504FFF72EFAD4E9002309
:108EF800FFF72AFA82468B46ADE319F1160F09DB14
:108F0800644DA5EBC909D9E9002350465946FFF736
:108F180045FBEFE72C1B4C44002C57DD14F00F01E8
:108F28000AD05C4B03EBC10152465B46D1E9000114
:108F3800FFF70AFA82468B4634F00F0400F0B88037
:108F4800B4F59A7F0BDD0024254605940494029A13
:108F5800DFF850B1222313604FF0000A87E14E4E2C
:108F6800002324115046594698463746012C0BDDFC
:108F7800E20704D5D6E90023FFF7E6F9012308F153
:108F8800010864100836F1E70BB182468B46ABF155
:108F9800547B07EBC80752465B46D7E90001FFF749
:108FA800D3F921F000438B460A461B0D3B491B05AC
:108FB8008B428246C7D8A1F580118B4286BFDFF865
:108FC800ECB04FF0FF3A02F1547B71E070D064428C
:108FD80014F00F020AD02F4B03EBC2035046594638
:108FE800D3E90023FFF7DAFA82468B4624115FD0D3
:108FF8001F2C04DD002425460594049430E114F068
:10900800100F0CBF00236A23254E03935046594680
:109018000023002C09DDE20704D5D6E90023FFF779
:1090280093F9012364100836F3E70BB182468B46A7
:10903800039BEBB1CBF30A53C3F16B03002B5946E7
:1090480016DD1F2B0EDD342BDEBF203B4FF0FF3229
:1090580002FA03F34FF0000ACCBF4FF05C7B03EA3F
:10906800010B05E04FF0FF3202FA03F303EA0A0AA4
:109078000022002350465946FFF7CEFB0028B9D1FD
:1090880018E000BF80AB0D0083AB0D0089AB0D006D
:109098006CAB0D00B8AB0D0080AC0D000000A07CDF
:1090A80090AB0D000000F07F0000F8FFFFFFEF7F9E
:1090B80000230393059B0093049A079902982B4673
:1090C80000F03AFF059000283FF43DAFB9F1000FDA
:1090D800C9F10003A8BF00230D93002429EAE9730E
:1090E80012932546059B0298596800F09EFE04904D
:1090F80000283FF42CAF059B1A69023203F10C01DA
:1091080092000C30FFF741FC1AAA19A94BEC10ABDE
:109118000298CDE908AB01F0C4F9189000283FF493
:1091280016AF0121029800F092FF054600283FF48F
:109138000EAF199B03991A9E002BADBF0D9A129A78
:10914800DDF8348002EB0308B8BFD21AA3EB0103A1
:109158003344B549A8BF129A013B8B42C6F1360683
:1091680080F28A80C91A1F29C8BFB04F4FF0010981
:10917800D4BF09FA01F3FF1AA6EB0106D9BF06937B
:10918800002709FA07F7CDF8189008EB0609039BA2
:10919800C84516441E444346A8BF4B46B342A8BF21
:1091A8003346002BC2BFC3EB0909F61AC3EB080804
:1091B8000D9B002B64D1B9F1000F7ADC129B002BB8
:1091C80040F08180002E00F38880B8F1000F00F392
:1091D8008E80049A1899029801F08FF804460028A6
:1091E8003FF4B5AEC36807930023C360294601F076
:1091F80068F8002880F28980079B002B40F00482E1
:10920800BAF1000F40F00082CBF31303002B40F0BB
:10921800FB812BF000431B0D1B05B3F1D66F40F209
:10922800F3816369002B6CD021460122029800F07B
:10923800F7FF2946044601F044F8002840F3E4818A
:109248002BF00043039A1B0D1B05002A00F08C80AD
:10925800B3F1D66F00F38880B3F15C7F00F3D68159
:10926800029A22234FF0000A4FF0000B1360059B6F
:10927800002B40F0DC81EEE101230027069384E710
:1092880029461A46029800F07DFF054600283FF45B
:109298005EAE0146189A029800F0E2FE0790002898
:1092A8003FF455AE1899029800F0F4FD079B189307
:1092B80081E74A461899029800F0B2FF18900028F2
:1092C8007FF47CAF43E6129A0499029800F05AFFA3
:1092D800049000287FF476AF39E632460499029864
:1092E80000F09EFF049000287FF46FAF2FE6294618
:1092F8004246029800F094FF054600287FF469AFC3
:1093080025E62369012B8FDC7EE161D1079ACBF337
:10931800130322B346498B425A462ED1039B51462A
:1093280063B1444B1340B3F1D46F07D81B0DC3F19D
:109338006B034FF0FF3000FA03F301E04FF0FF3307
:109348008B421AD13C498A4202D101333FF4FFAD26
:10935800384B134003F5801B4FF0000A54E163B902
:10936800BAF1000F09D16BE7A3F580136FEA135B1D
:109378006FEA0B5B4FF0FF3A46E117B117EA0B0FA4
:1093880002E0069B13EA0A0F00F03E81079B039A4E
:109398005046594653B1FFF776FB02460B46DDE9C6
:1093A8000801FEF71FFE82468B462DE1FFF76BFB97
:1093B80002460B46DDE90801FEF712FE00220023F3
:1093C80082468B46FFF728FA00287FF449AF1BE155
:1093D8002946204601F0B3F857EC106B00224FF0F5
:1093E800804310EE100A3946FFF72AFA002842D0C7
:1093F800079B23B14FF00008DFF8409011E0BAF165
:10940800000F03D1CBF313033BB91BE0BAF1010FF3
:1094180003D1BBF1000F3FF423AFDFF824904FF0E6
:1094280000080026054F39E002FCFFFFE2FBFFFFC2
:10943800FFFF0F000000F07FFFFFEF7F0000F03F0D
:109448000000F0BF0022984B30463946FFF7EEF98E
:1094580040B9304639460022944BFEF775FF064660
:109468000F4601E0914F002607F10043149615932B
:10947800DDE9148912E08D4B304639460022FEF7AB
:1094880063FF079B06460F4623B901F100430E9080
:109498000F9301E0CDE90E67DDE90E892BF000435B
:1094A8001B0D1B050693069A814B9A422BD1DDE9C9
:1094B8000823ABF1547B4BEC10ABCDE90A2300F049
:1094C8007BFF404653EC102B4946FEF73DFF5246C2
:1094D8005B46FEF787FD21F000431B0D754A1B050F
:1094E800934282460CD9744B0B9A9A4203D10A9B39
:1094F80001333FF42CADDFF8C0B14FF0FF3A72E012
:1095080001F1547B38E0039B33B3069BB3F1D46F6E
:1095180022D85DA3D3E9002330463946FFF790F9F6
:10952800A8B139463046FFF7E7F9002808BF0120FF
:10953800FEF794FE079B06460F4623B901F1004348
:109548001090119301E0CDE91067DDE91089069AC2
:1095580009F1D663C2EB03099DED080B00F02CFF5F
:10956800404653EC102B4946FEF7EEFEDDE9082392
:10957800FEF738FD82468B46039BA3BB2BF00043C6
:109588001B0D069A1B059A42D8462CD139463046FF
:10959800FFF78AF9FEF772FE0B4602463946304657
:1095A800FEF71EFD079B06460F462BB9BAF1000FC2
:1095B80002D1CBF3130383B135A3D3E9002330469B
:1095C8003946FFF733F9002831D133A3D3E9002313
:1095D80030463946FFF748F904E031A3D3E90023C0
:1095E800FFF724F918BB1899029800F053FC049966
:1095F800029800F04FFC2946029800F04BFC2146E7
:10960800029800F047FC6DE5039B83B12B4B0B934D
:1096180000230A9350465946DDE90A23FEF794FED3
:1096280082468B4619B910B9029A222313601899F9
:10963800029800F02FFC0499029800F02BFC2946B0
:10964800029800F027FC0599029800F023FC2146B7
:10965800029800F01FFC139B13B1139A179B136019
:109668000C9B1BB152460BF1004307E052465B4688
:1096780004E000252A460121FFF741BB43EC102BEB
:109688001DB0BDE8F08F00BF0000C0FFFFFFDF4145
:109698009535A094FFFFDF3F35E5AF350000E03F8B
:1096A8009535A094FFFFCF3F0000F03F0000E03F5A
:1096B8000000E07FFFFF9F7CFFFFEF7F0000503935
:1096C800024B0A4601461868FFF7FAB974E303200B
:1096D8002DE9F04780464048D0F800900F463D46B7
:1096E80015F8014B09EB0400407800F0080000F081
:1096F800FF0608B12F46F2E72D2C03D1BD1C7C785C
:10970800012603E02B2C04BF7C78BD1C13B1102B61
:109718000AD15BE0302C57D1287800F0DF005828B8
:109728004DD16C7810230235002E14BF4FF0004C39
:109738006FF0004C0027BCFBF3FA384603FB1ACC49
:1097480009EB040E9EF801E01EF0040F01D0303C36
:109758000BE01EF0030E1BD0BEF1010F0CBF4FF043
:10976800370E4FF0570ECEEB0404A34210DDB7F1CD
:10977800FF3F0AD0504506D801D1644503DC03FBFE
:109788000040012701E04FF0FF3715F8014BD7E7FC
:109798007B1C0CD1002E4FF0220314BF4FF0004069
:1097A8006FF00040C8F800302AB9BDE8F08706B16C
:1097B800404272B107B1691E1160BDE8F0873024DC
:1097C800002BB1D10823AFE70A23ADE7302CA3D093
:1097D800AAE7BDE8F08700BF10E3032013460A4656
:1097E800014602480068FFF773BF00BF74E3032017
:1097F800F0B506694B11B34200F1140527DA11F0F0
:109808001F0105EB860605EB830201D1294616E008
:10981800141D55F82320C1F1200ECA402B46B4422E
:1098280009D2276807FA0EF73A4343F8042B54F88D
:10983800042BCA40F3E71A6052B1043308E0B2427D
:109848000B4605D252F8043B41F8043BF7E72B4698
:109858005B1B9B10036103B94361F0BDA0F13003AA
:10986800092B01D820380AE0A0F16103052B01D8A3
:10987800473804E0A0F14103052B02D82738C0B2CD
:109888007047002070472DE9F04F8BB08A4690460C
:1098980006930290FFF766F8036803931846FFF7EC
:1098A800C9F8039B019003444FF0000B13F8013CE7
:1098B8000793DAF8003002331F4613F8010B3028FB
:1098C80002D10BF1010BF7E7FFF7C8FF0446E0B937
:1098D800019A03993846FFF7B5F8002834D1019B5F
:1098E800F85CFE18FFF7BAFF80B3334618783028C3
:1098F8001F4603F10103F9D0FFF7B0FFB0FA80F576
:109908006D0934464FF0010B01E000252C463A461C
:10991800164601323078FFF7A1FF0028F8D1019AE6
:1099280003993046FFF78EF850B954B9019BF418E3
:109938002246164601323078FFF790FF0028F8D10A
:1099480034B1A41BA40003E03E4600E00446012510
:109958003378502B01D0702B2AD173782B2B08D059
:109968002D2B03D0711C4FF0000905E04FF00109C1
:1099780001E04FF00009B11C0878FFF76FFF431EA4
:10998800DBB2182B14D8A0F1100211F8010FFFF761
:1099980065FF431EDBB2182B04D80A2303FB02021F
:1099A800103AF2E7B9F1000F00D05242144400E037
:1099B8003146CAF800102DB1BBF1000F14BF0020CA
:1099C80006207CE1F31B013B2946072B02DD013110
:1099D8005B10FAE7029800F028FA019B00F1140ADC
:1099E8004FF00009C3F101030546CDF810A0CB469E
:1099F8000893B7422FD2731E0593079A16F8013CB5
:109A080093420BD0BBF1200F16D1049BC3F80090F2
:109A180004334FF000090493CB460DE0059B089AE8
:109A280013449F42EED81846019A03990993FFF709
:109A380009F8099B68B1E5E716F8010CFFF70EFF76
:109A480000F00F0000FA0BF0059B49EA00090BF142
:109A5800040B1E46CDE7049840F8049BCAEB0000AF
:109A6800801028614701484600F0A4FAD8F8006041
:109A7800381AB04226DD871B3946284600F0A3FD78
:109A8800C8B17B1E591103F01F024FF001095AF8A3
:109A9800211009FA02F20A420ED04B4502DC4FF0BF
:109AA800020909E0B91E284600F08DFD0028F6D00D
:109AB8004FF0030900E0814639462846FFF798FE33
:109AC8003C440CE009DA371A29463A46029800F075
