:02000002D0002C
:1040000000400D0058C30D00000005000E00050122
:0840100004019301000000000F
:1040180050BB0D0009480A49884208B505D0094A2D
:10402800824202D0121A05F0F4FE0748074A00211E
:10403800121A05F0F9FE014808BD00BF40D403205C
:1040480070C20D0000D5032000D50320F0E703203F
:1040580070B503F00FFE074C074BE41AA4080025BF
:104068001E46A54204D056F8253098470135F8E792
:1040780070BD00BF70C20D0034C20D0000F0CCBB93
:1040880008B500F0BDFDBDE8084003F0C1BD02F071
:104098000FB802F00DB802F013B802F011B80078AA
:1040A800B0FA80F0400970470123037070470000A0
:1040B800D0B52DED028BB0EE418AF0EE618A82B068
:1040C8008DED000B0C4605F0CDFA002200230646C4
:1040D8000F4605F095FD9DED000B08BB53EC102B2A
:1040E8003046394605F024FBB0EE481AF0EE681A5F
:1040F80041EC100B04F02CF853EC102B2046CDE9C2
:10410800002305F0AFFADDE9002305F011FB41ECCF
:10411800100B02B0BDEC028BBDE8D04003F0BEBF6F
:104128009FED030B02B0BDEC028BD0BDAFF3008056
:1041380000000000000000002DE9F04F2DED028B7B
:1041480055EC104B83B0B8A3D3E90023019029465E
:1041580010EE100A05F072FDD8B10022C24B2046BD
:10416800294605F057FDA0B10022BF4BBF4F20469E
:10417800294605F029F9002201F10041BC4B05F060
:1041880001FC0026804689464FF0000A4FF0000BDC
:10419800ACE00022B44B2046294605F04FFDB0B1F3
:1041A8009DA3D3E900232046294605F033FD70B1CD
:1041B8000022AD4BAD4F2046294605F005F90022F7
:1041C800AC4B05F0DFFB002682468B4622E092A32B
:1041D800D3E900232046294605F030FDF8B190A325
:1041E800D3E900232046294605F014FDB8B18CA375
:1041F800D3E900232046294605F0E6F8002201F11C
:1042080000419D4BDFF864B205F0BCFB4FF0000A9B
:1042180006460F464FF000084FF000095EE080A305
:10422800D3E900232046294605F008FDD0B1002235
:10423800924B2046294605F0EDFC98B178A3D3E9C6
:1042480000232046294605F0BFF800228C4BDFF8F2
:104258001CB205F097FB00268046894600274FF0E0
:10426800000A3BE00022854B2046294605F0E6FC83
:10427800B8B10022834B2046294605F0CBFC80B11B
:104288000022804B2046294605F09EF8002201F1C5
:1042980000417D4B05F076FB002682468B460027C1
:1042A80011E00022774B2046294605F0C7FC78B17B
:1042B8000022764B2046294605F0B6FC002600274A
:1042C800B246BB4640B14FF00008DFF8A09105E0C8
:1042D80000260027B246BB46B046B94652A3D3E9EA
:1042E80000232046294605F0A9FCD0B10022684BDE
:1042F8002046294605F08EFC98B14BA3D3E900234C
:104308002046294605F060F849A3D3E9002305F0C3
:104318000FFA00225A4B05F035FB47A3D3E90023D7
:104328002EE000225A4B2046294605F087FC30B182
:104338000022544B2046294605F06CFC28BB00227D
:10434800504B2046294605F079FC08B300224F4B14
:104358002046294605F068FCD0B122462B460020AD
:104368004A4905F031F836A3D3E9002305F0E0F90E
:1043780035A3D3E9002305F005FB35A3D3E90023D2
:1043880005F024F841EC180B04E09FED338B01E0B5
:104398009FED338B4946404605F07AFCB0EE480A5B
:1043A800F0EE680A9FED2C1BFF21FFF781FE51EC10
:1043B800100B05F095FC019B59461860504605F016
:1043C80067FCB0EE480AF0EE680A9FED231BFF2158
:1043D800FFF76EFE51EC100B05F082FC019B39468D
:1043E8005860304605F054FCB0EE480AF0EE680A12
:1043F8009FED191BFF21FFF75BFE51EC100B05F039
:104408006FFC019B9860184603B0BDEC028BBDE8B9
:10441800F08F00BFAFF300800000000000A07E40D6
:104428000000000000E07F400000000000E0754050
:10443800CDCCCCCCCCCCEC3F9A9999999999B93FF1
:104448009A9999999999E93F0000000000E0604025
:104458009A9999999999C93F000000000000F03F86
:10446800000000000000000000807B400000F03FDA
:10447800008056400000494000003440002082403F
:10448800008051400028844000405040006088402F
:1044980000407A40000000002DE97043164BD3E934
:1044A800008955EC104B064642464B4620462946A5
:1044B80005F0B0FB22462B4630B12046294604F0D1
:1044C80085FF04460D46EFE70C49D1E9000105F0E8
:1044D80059FA07A3D3E9002305F02AF941EC100B98
:1044E8003046FFF729FE3046BDE87083AFF3008001
:1044F8000000000065CDCD4148D4032040D40320FE
:10450800014B00221A70704709D5032008B502F044
:104518001DFF024B1860012008BD00BF90E3032077
:104528001FB5684602F09EFE684602F00FFF04467B
:10453800684602F050FE024B1C6004B010BD00BF7C
:1045480090E3032010B5034B0360044600F05EFCC3
:10455800204610BD6CBB0D0010B50446FFF7F2FFF6
:104568002046FFF798FD204610BD0000F0B52DED60
:10457800028B85B06946074606F032FB1A4BB0EE4F
:10458800408AF0EE608A00221A70184D184E194CB5
:10459800A7B10022002351EC100B05F031FB68B9DC
:1045A800B0EE480AF0EE680A01A8FFF775FF019B14
:1045B8002B60029B3360039B236011E04FF48071F2
:1045C800012002F0CAFD4FF480713060012002F032
:1045D800C4FD4FF480712860012002F0BEFD206008
:1045E80005B0BDEC028BF0BD08D503200CD5032027
:1045F80050D4032054D4032008B505F0E1FB034B45
:104608001860034B01221A7008BD00BF04D50320AF
:1046180008D5032008B50C4B00224FF48071012007
:104628001A7002F09AFD094B4FF48071186001204E
:1046380002F093FD064B4FF480711860012002F0E0
:104648008CFD044B186008BD08D5032050D4032006
:104658000CD5032054D40320074B01221A70074BB2
:104668001B689342084603D0022B03D1FFF7C4BF4F
:10467800FFF77CBFFFF7CEBF09D5032090E30320E7
:104688002DE9F04105460F48DFF844800E4F0F4EE4
:1046980001F045FA04469CB198F800203978307842
:1046A80001F038FA21460246064801F0E8F90548C3
:1046B80001F014F8013C284601F032FDA4B2EAE703
:1046C800BDE8F08110D5032050D403200CD5032079
:1046D80054D4032073B505460B4801F020FA002690
:1046E80004467CB1002321461A460748009601F08B
:1046F80097F9054800F0F2FF013C284601F010FD4B
:10470800A4B2EEE702B070BD10D5032008B50A4B7D
:104718001B68052B0FD11E20FFF7B2FF00220749A7
:10472800074802F0C1FA322001F0FAFC1E20BDE869
:104738000840FFF7CFBF08BD90E3032074BB0D000E
:10474800E8E30320C043C0B2542808B50BD800EBF7
:104758004002A0EB80000138D2B20021C0B201F0C3
:10476800D9F980B208BDA9280DD85538C1B2A1EB36
:104778008102013A01EB4101D2B2C9B2002001F035
:10478800C9F980B208BD5630C0B2A0EB800101392A
:1047980000EB40000022C9B2C0B201F0BBF980B200
:1047A80008BD00002DE9F347DFF86490DFF864A046
:1047B80006460F4690460024134801F0B0F984429B
:1047C8001BDA99F80030A5B263B19AF800304BB102
:1047D8000E4B1878FFF7B6FF294602460A4801F043
:1047E8004EF908E05FFA88F30093F2B2FBB229466B
:1047F800054801F015F90134DEE7034802B0BDE8C9
:10480800F04700F06BBF00BF10D5032004D503208C
:1048180008D5032009D5032038B5214C214D03F0D4
:10482800ABF94FF4165103F09BF99621204601F09D
:1048380078F9204600F01BFF204600F04FFF0021CA
:10484800194C0846FF22FFF7ADFF4FF47A7001F0CC
:1048580067FC164A1649204602F09EFA154A164980
:10486800204602F099FA2A461449154801F0BAFC84
:10487800002302221349144801F0AAFB134A1449E1
:10488800204602F089FA2946124A204602F084FAA4
:104898002046114A1149BDE8384002F07DBA00BFF0
:1048A80010D5032085BB0D00E8E3032061460D0009
:1048B80080BB0D0009450D007DBB0D0015450D00A1
:1048C800C1610D0090E303208DBB0D0015470D005D
:1048D80092BB0D0029450D00C14C0D009BBB0D007E
:1048E80070B50646002500240E4801F018F98442E8
:1048F8000BD26019C0B2FFF725FF214602460134EA
:10490800084801F0BCF8A4B2EEE70648013500F00B
:10491800E5FEADB2304601F003FCB5F5807FE2D18B
:1049280070BD00BF10D50320F8B505460E461746E2
:1049380000243A463146284601F0ECF8A1B2024676
:104948000134054801F09BF83C2CF2D10248BDE83F
:10495800F84000F0C3BE00BF10D503202DE9F04F8A
:10496800834689B08A4617460024204604F07AFE1A
:1049780000224E4B04F0DCFE80465846894604F07F
:1049880071FECDE90001504604F06CFECDE902014C
:10499800384604F067FE02460B46CDE9040140465E
:1049A800494604F0C5FE05F0BBF907EE900AFCEE97
:1049B800E77ADDE9022340464946CDED077A04F05F
:1049C800B7FE05F0ADF907EE900AFCEEE77ADDE9EF
:1049D8000023404649469DF81C60CDED077A04F057
:1049E800A7FE05F09DF907EE900AFCEEE77A9DF820
:1049F8001C50CDED077A324629469DF81C00FFF77A
:104A080093FF2B4800F06AFE0134052001F088FB73
:104A1800B4F5807FA9D1FF24204604F023FE0022AC
:104A2800224B04F085FE02460B4606460F46DDE99A
:104A3800040104F07DFE05F073F907EE900AFCEE20
:104A4800E77A32463B46DDE90201CDED077A04F00C
:104A58006FFE05F065F907EE900AFCEEE77A3B4633
:104A68003246DDE900019DF81C80CDED077A04F09F
:104A78005FFE05F055F907EE900AFCEEE77A9DF81F
:104A88001C50CDED077A424629469DF81C00FFF7D9
:104A98004BFF074800F022FE023C052001F040FBD6
:104AA800631CB9D109B0BDE8F08F00BF0000703FAA
:104AB80010D5032000000000D3B50446084604F0D2
:104AC800D1FD21A3D3E9002304F05CFF20A3D3E99F
:104AD800002304F02DFE0022002306460F4605F0B1
:104AE800ADF80022164B40B13046394604F06EFC52
:104AF80005F0CEF804F0B6FD07E03046394604F07C
:104B080063FC05F0C5F804F0ADFD05F0E9F8C0B2A6
:104B180082008028D2B2A1B206D9FF2300920948A8
:104B28001A4600F07DFF09E040284FF0000300938B
:104B3800044884BF1346FF2200F072FF02B0D0BDC4
:104B48000000E03F10D503200000000000E06F40A7
:104B58000000000000E067402DE9F843244C0625DA
:104B68000F4690FBF5F01646851C04F13C084FF003
:104B780000092946002002F0F0FA14F8013F984293
:104B8800D6BF1B1A84F800902370A045F1D1194BA9
:104B98000321A3F13A041A7813F8010DDFF85C80B9
:104BA8009C4202EB400292FBF1F29A70F3D1FF2093
:104BB80002F0C8FAB8420ADA072002F0C3FAFF2165
:104BC800255C0746A02002F0C8FA2844E0550024D6
:104BD80018F8041020460134FFF76EFF3C2CF7D17B
:104BE800054800F07BFD3046BDE8F84301F098BA6F
:104BF80093E30320CEE3032010D5032094E303209E
:104C08000F4B1B681A1F032A06D90E4B1A78B2B924
:104C180011461046FFF7C6BD042B02D11420FFF73A
:104C28005FBE062B04D100227721FF20FFF796BE36
:104C3800072B04D10F2278213720FFF78DBF70474B
:104C480090E3032009D5032037B5144B144C154DB8
:104C580000221A7001F006F86423009304F12C0175
:104C680004F62C034FF40062204600F021F90E4BA5
:104C780023602A460D4920460D4C03F0A5F802236F
:104C88001A463C21204600F017FD0A492A462046CC
:104C980003B0BDE8304003F097B800BF0AD5032041
:104CA80024D5032000D503206CBB0D004D450D0015
:104CB80010D5032021560D0010B53B488AB00C468C
:104CC80000F0F2F8204605F046F92146024636483B
:104CD80000F0CCF8344800F04AFC00283FD006A881
:104CE800314900F0F5F8314A06A903A800F058FA4E
:104CF800002103A800F06CF92D4B186003A800F000
:104D080065F806A800F062F806A8274900F0E0F860
:104D1800284A06A903A800F043FA002103A800F0D6
:104D280057F9254B186003A800F050F806A800F0C2
:104D38004DF806A81C4900F0CBF8204A06A903A89C
:104D480000F02EFA002103A800F042F91C4B18606D
:104D580003A800F03BF806A800F038F822E0214646
:104D680006A802F07FFA174B069A1B788DF80030D8
:104D780015493C2303A801F06BFB049C7CB16368D4
:104D8800013B63605BB9236820469B689847A3682A
:104D9800013BA3601BB923682046DB68984706A837
:104DA80002F019FA0AB010BD24D50320A4BB0D00E7
:104DB8000CD50320A8BB0D0050D40320AEBB0D00BA
:104DC80054D403200AD50320B3BB0D00704710B597
:104DD8000446FFF760F9204610BD000010B5054BEA
:104DE8000360037C04461BB9406808B101F068F908
:104DF800204610BDD8BB0D0010B50446FFF7EEFFE6
:104E08002046FFF748F9204610BD000010B5074BB3
:104E18000360037C04461BB9406908B101F050F9EE
:104E28002046FFF7DBFF204610BD00BF18BC0D0071
:104E380010B50446FFF7EAFF2046FFF72CF9204695
:104E480010BD38B5037C04460D460BB1002038BDB3
:104E5800406810B101F03CF902E0084601F028F979
:104E68000028F3D06060A560012038BD70B54368A4
:104E78000E4604461546C1687BB1531882689342B2
:104E88000BD8E36860682A463146184404F0C1FF2D
:104E9800E3681D44E560012070BD29442046FFF702
:104EA800D0FF0028EDD170BD0023C360704700001B
:104EB80010B582600022C260012202744361034A75
:104EC800029B41600260C36110BD00BF18BC0D00A9
:104ED8008B694A6941609A42034B03602ABF0023E9
:104EE80082608360704700BFC8BB0D0070B513684F
:104EF8009D68136803F1100414608669B4420AD2ED
:104F08009B698C68A34201DA9D42F2DAA342CCBFC6
:104F18000020012070BD002070BD2DE9F34702ADCF
:104F28009A4601F110030A9E45F8043D07460C46CF
:104F380091464FF00008019BBA699A421ED99968B8
:104F4800A26891421ADAB0450BD1C9F800302A4656
:104F580021463846FFF7CAFF18B1019BCAF800304E
:104F68000DE02A4621463846FFF7C0FF2A4621466B
:104F7800384608F10108FFF7B9FFDCE7002002B066
:104F8800BDE8F08770B5013B00244E688D68AD1B05
:104F9800AC4207DA9C4205DA45682544AD5D1555F3
:104FA8000134F2E70023135570BD00001FB5144605
:104FB80010236A46FFF7E6FF22460449684601F0D7
:104FC8008FF8431E5842584104B010BD09BE0D0069
:104FD80007B50191816819B101AA4068FFF7E6FF9A
:104FE800019803B05DF804FB38B5044600680D4627
:104FF80010B102F08CF907E0616829B1A368E26892
:10500800013B9A4238BF8D54E3680133E36038BDF1
:105018007F2870B50C4601D8C1B219E0B0F5006F11
:105028004FEAA01500F03F0603D265F03F01C9B270
:1050380009E0010B41F0E0012046FFF7D5FF05F03C
:105048003F0141F080012046FFF7CEFF46F0800186
:105058002046BDE87040FFF7C7BF00002DE9FF41BB
:105068004D6880460F4616460024B868854246DAE1
:10507800D8F80430CCB3595D6E2903EB05020FD084
:1050880005D862290AD066290BD10C2109E07429B8
:105098000ED075290ED0722903D107E0082100E04F
:1050A8000A213046FFF7A0FF002426E00D21F8E78B
:1050B8000921F6E72B1D9842F6DD002302A812F815
:1050C800011F19540133042BF8D1002301AA0E49FA
:1050D8008DF80C3001F004F80128E5D13146BDF80F
:1050E8000400FFF795FF0535DEE7595D5C2903D01D
:1050F8003046FFF779FF00E001240135B5E70120CC
:1051080004B0BDE8F08100BFE4BB0D007FB50C46DC
:1051180006460C491046154602F0D1F8A3686168A6
:10512800591A0131284602F074F800236A462146CC
:1051380030460095019302930393FFF78FFF04B065
:1051480070BD00BFE0BC0D002DE9F04389B00646F4
:105158000F4604A811499046994602F083F80025A5
:1051680000954B4603AA39463046FFF7D6FE04465B
:1051780068B104AA03993046FFF7C8FF044620B176
:10518800414604A802F0D0F808B90135E8E704A8B8
:1051980002F021F8204609B0BDE8F083E0BC0D001C
:1051A80073B50D4689680A4E044621B101AB68689B
:1051B800FFF7CAFF20B96B6863602660002303E02D
:1051C8006B686360019B26602046A36002B070BDD7
:1051D800C8BB0D002DE9F04F44684FF0FF354FF084
:1051E800030ED0F800C0944580F09E8111F80C8021
:1051F800B8F1000F00F09881B8F12C0F00F016817B
:1052080018D8B8F10D0F00F08B8106D8A8F109085D
:10521800B8F1010F40F284813DE1B8F1200F00F0B0
:105228007F81B8F1220F40F036810CF10109C0F8F6
:10523800009092E0B8F15D0F3CD007D8B8F13A0F72
:1052480000F0F080B8F15B0F07D024E1B8F17B0FD4
:1052580003D0B8F17D0F2DD01DE10134002B00F0F3
:105268005F814768099EBE4240F27D8107F1010CCB
:10527800C0F804C04FEA071C03EB0C0A0026CAF862
:105288000450CAF80C60CAF8085087687E1C1FBF13
:1052980003EB0719D9F80C700137C9F80C70B8F18D
:1052A8007B0F14BF0227012703F80C700768CAF8A0
:1052B8000470B7E0002B00F033814768B8F17D0F28
:1052C80007F1805808F1FF3814BF4FF0020A4FF079
:1052D800010A07F1FF3903EB0818B9F1000F19DBD0
:1052E800D8F80470013710D0D8F808707E1C0CD19B
:1052F80098F800B0D34540F0298187600CF1010788
:10530800C8F8087003EB091C11E009F1FF39A8F18E
:105318001008E2E7B9F1FF3F40F0028116E109F118
:10532800FF39B9F1FF3FACF1100C00F0F980DCF85F
:1053380004700137F3D0DCF808700137EFD1C0F8FA
:105348000890EDE011F80870002F68D0222F09D0DE
:105358005C2F26D0076801370760D0F800804245E7
:10536800F0D85CE0002B00F0CE804768099EBE4272
:1053780040F2F78007F1010C3F01C0F804C003EBCD
:10538800070C0026CCF80850CCF80450CCF80C6078
:10539800D0F8008003F807E0CCF80490CCF8088037
:1053A800B1E008F10107BA42D4D90760CF5D662F92
:1053B800D0D008D82F2FCDD001D8222F07E05C2FCE
:1053C800C8D0622F03E0722FC4D002D86E2F75D1D7
:1053D800C0E7742FBED0752F70D108F1020707609F
:1053E8004FF0040AD0F80080424503D80768013F0F
:1053F8000760AFE711F80870002FF7D0A7F1300B5E
:10540800BBF1090F04D927F02007413F052F55D8D4
:1054180008F10107BAF1010A0760E3D1E6E7C0F82D
:1054280000C09AE04768013F876079E0002B77D099
:1054380087687E1C74D03F01DF5D013F012F6FD963
:10544800476807F1FF3803EB071CB8F1000F67DB6B
:105458001CF8107C013F012F0AD85CF80C7C01373E
:1054680006D05CF8087C013702D1C0F8088057E004
:1054780008F1FF38ACF1100CE7E711F8087007B332
:10548800202F1ED010D8092F0AD2203F5E2F15D802
:1054980008F101070760D0F800804245EDD810E018
:1054A8000A2F0ED90D2F07E03A2F0AD001D82C2F3A
:1054B80002E05D2F05D07D2FE7D102E0C0F800C0E3
:1054C80044E013B908F1FF371CE04768099EBE4263
:1054D80047D907F101083F01C0F8048003EB07082A
:1054E8000026C8F80850C8F80450C8F80C604FF0F7
:1054F8000406D0F80090DE55C8F804C0C8F8089033
:105508000768013F076087687E1C04F1010407D023
:1055180033B103EB071CDCF80C700137CCF80C70C6
:105528000768013707605CE6A3B14268511E03EBC8
:10553800021300290EDB53F80C2C013203D053F868
:10554800082C013209D00139103BF2E76FF0010055
:10555800BDE8F08F2046BDE8F08F6FF00200BDE88F
:10556800F08FC0F800C04FF0FF30BDE8F08FF7B5FE
:105578004369044600F12006F3B100220262426248
:105588004FF0FF328262C2690092C26841683046B9
:10559800FFF720FE431C09D1257C0DB1002033E024
:1055A800606900F08DFD6561E56105E00028F5DBC7
:1055B800636903EB001325E000254FF0FF372562F0
:1055C8006562A76200952B46E26861683046FFF77E
:1055D80001FE0028E2DBE06113D0000100F068FD65
:1055E800E26960610346009225626562A762E2682B
:1055F80061683046FFF7EEFD636903EB0010A061B8
:1056080001E06369A361012003B0F0BD00F02ABB8B
:1056180000F018BB00F00EBB10B50446C06808B116
:1056280000F04EFD23781BB10021E07902F060FB09
:10563800204610BD38B50446C0680D4608B100F0D4
:105648003FFDA379062B0CBF0420032010FB05F0B7
:1056580080B2A08000F02CFDE06028B1A288002173
:1056680004F0E2FB658038BDA080608038BD10B5CD
:1056780004460121C07902F03BFB0021E07902F0E9
:1056880048FB0123237010BD38B5037805460C4646
:105698001BB10021C07902F02BFB2B78EC7153B1C0
:1056A800A4B22046012102F023FB20460021BDE8D8
:1056B800384002F02EBB38BD70B5002504461646AA
:1056C800837105700572C5600561FFF7B3FF204659
:1056D8003146FFF7D9FF204670BD0000C368002B94
:1056E80000F08B812DE9F04F8379023BDBB2042B6C
:1056F8009CBFC44A52F8234087B0054688BF32246D
:10570800FFF786FF2B69C01AA042F9D3BE4AAB88BF
:1057180007CA06AC04E90700039C1B01D4F800255E
:105728000433019322B9D4F86035002BC0F25581B7
:10573800049CD4F8003523B9D4F86035002BC0F2A6
:105748003C81059CD4F800351BB9D4F86035002B92
:105758006EDBAE4BEA791E68AD4CAE49E0681201CB
:10576800B31840F080705B78B75CE0600A6803F0BB
:105778001F0343EA471301273A430A600C46A888E7
:10578800D5F80C90D4F804A09F408846002844D04F
:10579800CC4600224FF0A0411CF801EB08208026DF
:1057A80063689B1A462BFBD9D8F80420D1F8083532
:1057B8001EEA060F43EA0703C1F808352FD06368CD
:1057C8009B1A282BFBD9D1F80C35013843EA07037B
:1057D8004FEA5606C1F80C35E2D1C9EB0C03A8888C
:1057E8009BB29842D8D84FF4307303FB00F063683B
:1057F8009B1A462BFBD9D8F80430CAEB030A82451A
:10580800C0F0D5804FF49670FFF704FFA888D5F84C
:105818000C90D4F804A00028BAD10246E7E76368E0
:105828009B1A112BCFD863689B1A112BF7D9CAE79B
:10583800D4F86435002B8CDAD4F86835002B88DA74
:10584800D4F86C35002B84DA019800F031FC00287C
:105858003FF47FAFAB88002B00F0D08000273B4699
:105868006D4E6E4900E01346EA68D25D03F1010E01
:1058780012F0800F14BFB04688461FFA8EFE12F051
:10588800400F14BFB146894612F0200F20F813804C
:1058980018BFB24620F81E9008BF8A4603F10208D6
:1058A80012F0100F03F1030E14BFB4468C461FFA12
:1058B80088F812F0080F1FFA8EFE03F104091FFA88
:1058C80089F914BFB3468B4612F0040F20F818A0CC
:1058D80020F81EC014BFB2468A4603F1050812F02C
:1058E800020F03F1060C03F1070E20F819B01FFA96
:1058F8008EFE14BFB14689461FFA88F812F0010FD0
:105908001FFA8CFC14BF32460A4620F818A020F86B
:105918001C9020F81E200137B5F804E0BFB203F14F
:105928000802BE4592B29ED803F109020A3392B228
:105938009BB252005B0001994FF400468652490819
:10594800C65200221423C4F80425304EC4F80C258E
:10595800C4F80835C4F81425C4F81025C4F820057F
:10596800C4F82415C4F82825C4F82C25EB79316827
:105978001B01CE18C95C737803F01F0343EA411377
:105988000121C4F86035C4F80015C4F81021A160DD
:10599800D4F81031002BFBD000234FF0FF32C4F8AD
:1059A8001031C4F80035C4F8602500F089FBFFF712
:1059B8002FFE286107B0BDE8F08FD4F86435002BBE
:1059C800BFF6BFAED4F86835002BBFF6BAAED4F830
:1059D8006C35002BBFF6B5AE36E7D4F86435002B2E
:1059E800BFF6A6AED4F86835002BBFF6A1AED4F842
:1059F8006C35002BBFF69CAE26E7704704230222C5
:105A080099E700BF2CBC0D0020BC0D00D0E303209B
:105A1800F0ED00E0001000E00D80FFFF0680FFFFC2
:105A2800F0B544889DF814508C4227D9047A44B1C3
:105A380012FB04F214FB03F314FB05F4120A1B0A0D
:105A4800250A8779C66801EB4101082F06EB010496
:105A580011D80120B84010F4D27F08D1C0060AD569
:105A6800FF2A08BFFE2272546570A370F0BD7354FC
:105A78006270A570F0BD72546370A570F0BD438864
:105A88008B42F0B545D9057AC2F30743C2F3072420
:105A9800D6B245B16B436C436E43C3F30723C4F3DB
:105AA8000724C6F3072690F806C0C768BCF1060F9E
:105AB8000CBF042503256943BCF1080F07EB01055A
:105AC80024D84FF0010E0EFA0CFE1EF4D27F0CD132
:105AD8001EF0400F0DD11EF0100F17D0FF2B08BF7E
:105AE800FE237B546E70AC70F0BD7C546B70AE704E
:105AF800F0BD7B546C70AE70037A120E0BB9D2B243
:105B080002E05A43C2F30722EA70F0BD7B546C707E
:105B1800AE70F0BD42EA012242EA00407047408878
:105B280070474A1C037AD2B29A4270B51ED0013B24
:105B380013F0FF03C4680CD0FF291FBF110201F145
:105B4800FF3191FBF3F39BB204BF4FF6FF7191FB5A
:105B5800F3F32546291B868889B28E4205D9297810
:105B68005943091205F8011BF4E7027270BD0000E1
:105B780008B500F077F800F075F8014B186008BD1B
:105B8800D0E3032008B5024B1B685B68019308BD8E
:105B98004802030008B5024B1B689B68019308BDC7
:105BA8004802030008B5024B1B681B69019308BD36
:105BB8004802030008B5024B1B685B69019308BDE6
:105BC8004802030008B5024B1B681B6B019308BD14
:105BD8004802030008B5024B1B685B6C019308BDC3
:105BE8004802030008B5024B1B68DB6C019308BD33
:105BF8004802030008B5024B1B685B6D019308BDA2
:105C08004802030008B5024B1B68DB6E019308BD10
:105C18004802030008B5024B1B685B68019308BD86
:105C28001802030008B5024B1B689B68019308BD66
:105C38001802030008B5024B1B68DB68019308BD16
:105C48001802030008B5024B1B681B69019308BDC5
:105C58001802030008B5024B1B685B69019308BD75
:105C68001802030008B5024B1B681B68019308BDA6
:105C78002C02030008B5024B1B689B68019308BD02
:105C88002C02030008B5024B1B68DB68019308BDB2
:105C98002C02030008B5024B1B681B69019308BD61
:105CA8002C02030008B5024B1B681B6A019308BD50
:105CB8002802030008B5024B1B685B6A019308BD04
:105CC8002802030008B5024B1B689B6A019308BDB4
:105CD8002802030008B5024B1B68DB6A019308BD64
:105CE8002802030008B5024B1B681B6B019308BD13
:105CF8002802030008B5024B1B685B6B019308BDC3
:105D08002802030008B5024B1B681B6C019308BDF1
:105D18002802030008B5024B1B681B69019308BDE4
:105D28006C02030008B5024B1B685B69019308BD50
:105D38006C02030008B5024B1B689B69019308BD00
:105D48006C02030008B5024B1B685B6D019308BD2C
:105D58006C02030008B5024B1B689B6D019308BDDC
:105D68006C02030008B5024B1B685B69019308BD10
:105D78006402030008B5024B1B689B69019308BDC8
:105D88006402030008B5024B1B681B6A019308BD37
:105D98006402030008B5024B1B685B6A019308BDE7
:105DA8006402030008B5024B1B689B6A019308BD97
:105DB8006402030008B5024B1B689B68019308BD89
:105DC8006802030008B5024B1B68DB68019308BD35
:105DD8006802030008B5024B1B685B68019308BDA5
:105DE8003802030008B5024B1B689B69019308BD84
:105DF8003802030008B5024B1B68DB69019308BD34
:105E08003802030008B5024B1B68DB6A019308BD22
:105E18003802030008B5024B1B685B6B019308BD91
:105E28003802030008B5024B1B689B6B019308BD41
:105E38003802030008B5024B1B68DB69019308BDF3
:105E48003002030008B5024B1B681B6A019308BDAA
:105E58003002030008B5024B1B681B68019308BD9C
:105E68003C02030008B5024B1B68DB68019308BDC0
:105E78003C02030008B5024B1B681B69019308BD6F
:105E88003C02030008B5024B1B685B69019308BD1F
:105E98003C02030008B5024B1B689B69019308BDCF
:105EA8003C02030008B5024B1B68DB69019308BD7F
:105EB8003C02030008B5024B1B681B6A019308BD2E
:105EC8003C02030008B5024B1B689B6A019308BD9E
:105ED8003C02030008B5024B1B681B68019308BD10
:105EE8004C02030008B5024B1B685B68019308BDB0
:105EF8004C02030008B5024B1B681B69019308BDDF
:105F08004C02030008B5024B1B685B69019308BD8E
:105F18004C02030008B5024B1B689B69019308BD3E
:105F28004C02030008B5024B1B68DB69019308BDEE
:105F38004C02030008B5024B1B681B6A019308BD9D
:105F48004C02030008B5024B1B681B6D019308BD8A
:105F58006002030008B5024B1B685B68019308BD2B
:105F68002002030008B5024B1B685B69019308BD5A
:105F78002002030008B5024B1B68DB6C019308BDC7
:105F88002002030008B5024B1B685B6D019308BD36
:105F98002002030008B5034B1B68D3F8883001932F
:105FA80008BD00002002030008B5034B1B68D3F8A6
:105FB8009430019308BD00002002030008B5034B8C
:105FC8001B68D3F8A430019308BD00002002030029
:105FD80008B5024B1B681B68019308BD4402030007
:105FE80008B5024B1B685B68019308BD44020300B7
:105FF80008B5024B1B681B6A019308BD44020300E5
:1060080008B5024B1B68DB6B019308BD4402030013
:1060180008B5024B1B685B68019308BD400203008A
:1060280008B5024B1B689B68019308BD400203003A
:1060380008B5024B1B68DB68019308BD40020300EA
:1060480008B5024B1B681B69019308BD4002030099
:1060580008B5024B1B685B69019308BD4002030049
:1060680008B5024B1B689B69019308BD40020300F9
:1060780008B5024B1B68DB69019308BD40020300A9
:1060880008B5024B1B681B6A019308BD4002030058
:1060980008B5024B1B681B6B019308BD4002030047
:1060A80008B5024B1B685B6B019308BD40020300F7
:1060B80008B5024B1B681B68019308BD1C0203004E
:1060C80008B5024B1B685B68019308BD1C020300FE
:1060D80008B5024B1B689B68019308BD1C020300AE
:1060E80008B5024B1B685B69019308BD1C020300DD
:1060F80008B5024B1B68DB6A019308BD1C0203004C
:1061080008B5024B1B681B6B019308BD1C020300FA
:1061180008B5024B1B68DB6B019308BD1C0203002A
:106128000021FFF71FBF10B5836804460BB901F0C3
:106138006AFEC3689847A3681BB10322214620461C
:1061480098472046BDE81040FDF7A5BF70470020DE
:10615800704710B50446FDF79EFF204610BD08B5F0
:1061680008B1FFF7F6FF08BD10B58368044613B100
:10617800032201469847204610BD38B5C468D4B1FB
:106188002378022B02D1E068FFF79AFF65682DB1EA
:106198002846FFF7E9FF2846FDF77DFFA5682DB1E2
:1061A8002846FFF7E1FF2846FDF775FF2046BDE8C2
:1061B8003840FDF770BF38BD10B588B00446684652
:1061C80001F050F8694604A801F06EF804A8A04749
:1061D800044604A800F0FFFF684600F0FCFF2046D4
:1061E80008B010BDF0B5102485B007460E46154618
:1061F80000212246684603F017FE00226946104631
:10620800ADF80040029703960195FFF7E9FE05B047
:10621800F0BD38B5046805467CB16368013B63602E
:106228005BB9236820469B689847A368013BA36035
:106238001BB923682046DB689847284638BD13B544
:10624800044691E8050000234B600B602060626003
:1062580001A801930093FFF7DCFF204602B010BDB0
:106268000B68036013B15A6801325A607047F7B57A
:106278000C4602AD54F8043B45F8083D06460F4667
:1062880001A82146FFF7ECFF29463046FFF7D7FF64
:1062980001A8FFF7BEFF2046FFF7BBFF3846FDF712
:1062A800FAFE304603B0F0BD13B50B46044603C8EA
:1062B8008DE8030093E8030084E803009DE80300E9
:1062C80083E8030002B010BD826810B50AB901F076
:1062D8009AFDC368BDE81040184708B5006800F18A
:1062E8001001FFF7F1FF08BD826810B50AB901F087
:1062F8008AFDC368BDE81040184708B5006800F17A
:106308001001FFF7F1FF08BD38B5002383608B68E3
:1063180004460D462BB102229847EB68E360AB6850
:10632800A360204638BD00002DE9F0414FF69C736C
:1063380086B00468B1F904208B8000230F688DF8BB
:1063480000300B604FF00200D4E84F1F994203D190
:10635800C4E8450F002DF7D102D08DF800106AE08F
:1063680014F10C051EBFE76022821F460123BFF30C
:106378005F8F0020637004F10803BFF35F8F53E859
:10638800006F43E80002002AF9D1BFF35F8F002EA7
:1063980051D0FFF7EFFD20B129463046FFF794FFB3
:1063A80043E031466846FFF7AFFFE068B4F91050A4
:1063B80008B103F0B5FD04901020ADF81450FDF7B6
:1063C80066FE054630B34FF00008C0F80880182074
:1063D800FDF75DFE0446C0B1C0F808800146684676
:1063E800FFF762FF029BA268A360039B0292E26828
:1063F800E360BDF81430A3824FF69C73ADF81430F7
:10640800049B03922361CDF810800E4BEB600E4B7A
:106418002C60AB600498FFF753FE6846FFF7A4FEB4
:10642800002229460948FFF7ADFD3046FFF79CFEDC
:106438003046FDF730FE3846FFF742FE06B0BDE8AD
:10644800F08100BFE3620D0041650D002F610D0072
:106458002DE9F04F8BB007AD4FF0000B064699467B
:1064680014200C230F4690469DF850A0C5F804B0A0
:10647800C5F808B00793FDF70AFE044638B180F85E
:1064880000B080F801B0C0F804B0C0F808B000232C
:10649800102003940493FDF7FAFD28B1012343600B
:1064A8008360234B0360C4600490224B0893082048
:1064B800FDF7EDFD044628B1039B40F8043B04A911
:1064C800FFF7CEFE00955FFA8AF34A464146384602
:1064D8000994FFF78DFDB8B9039B5B7803F0FF02C1
:1064E80093B94FF69C7305A903A80592ADF8183027
:1064F800FFF71AFF0598FFF7E3FD05A80999FFF7CD
:10650800B6FE06A8FFF785FE039B059304A906A817
:10651800FFF7A6FE05A93046FFF791FE06A8FFF78C
:1065280078FE04A8FFF775FE30460BB0BDE8F08F83
:1065380048BC0D00A9660D00022AF8B5044606D02D
:10654800032A17D0012A20D10B6803601DE0182008
:106558000E68FDF79CFD054650B13146FFF7D4FEA5
:106568003069B6F9147008B103F0DAFC2861AF821B
:1065780025600AE0046844B12069FFF7A1FD2046C0
:10658800FFF7F2FD2046FDF786FD0020F8BD38B57F
:10659800002383608B6804460D462BB1022298477E
:1065A800EB68E360AB68A360204638BD022A70B58B
:1065B800044606D0032A11D0012A17D10B680360BC
:1065C80014E014200E68FDF762FD054620B131463F
:1065D800FFF7DDFF337C2B74256007E004682CB1DE
:1065E8002046FFF7C1FD2046FDF755FD002070BD90
:1065F800F0B5002387B00C46BFF35F8F50E8006FFB
:1066080040E80032002AF9D1BFF35F8F002E3ED058
:106618001846FFF7AFFC074620B121463046FFF782
:1066280063FE2EE0314601A8FFF7B1FF23788DF80D
:1066380014301020FDF72BFD0546D0B187601420DB
:10664800FDF725FD044678B18760014601A8FFF7EC
:106658002BFE039BA268A360049B0392E268E3609D
:106668009DF81430049223740A4BEB600A4B2C609B
:10667800AB6001A8FFF778FD002229460748FFF71D
:1066880081FC3046FFF770FD3046FDF704FD07B08A
:10669800F0BD00BF03630D00B5650D002F610D004F
:1066A80030B585B004460D4668461146FFF7DFFD54
:1066B8007CB124B228460DB103F032FC029002A945
:1066C8006846ADF80C40FFF72FFE0298FFF7F8FC7C
:1066D8001DE000988DF808404FF00102D0E84F3FC8
:1066E800A34203D1C0E8412F0029F7D102D08DF889
:1066F80008300CE010F10C014FF0010318BF0373D0
:10670800BFF35F8F043000F8033CFFF771FF01A867
:10671800FFF77FFD05B030BD002211464068FFF746
:10672800AFBC002211464068FFF7BABC002240689F
:10673800FFF7AEBC002281F001014068FFF798BC6A
:1067480000231A4619464068FFF78ABC00231A46F8
:1067580019464068FFF77CBC002211464068FFF7E5
:106768006FBC002211464068FFF75ABC0022022184
:106778004068FFF75DBC00231A464068FFF748BC35
:10678800024B03225A60024A1A607047D4E303207E
:1067980064BC0D007047F8B5064615460C468F18C0
:1067A800BC4206D0336814F8011B9B6830469847F2
:1067B800F6E72846F8BD0022007CFFF773BA0021EF
:1067C800007CFFF777BA0021007CFFF77BBA002135
:1067D800007CFFF77FBA0021007CFFF783BA10B571
:1067E8000446FDF758FC204610BD000010B50446CD
:1067F8004FF47A730846A3600021044B207461604B
:106808002360FFF77FFA204610BD00BF98BC0D003B
:106818000021007CFFF76EBA704710B50446FDF7FB
:106828003AFC204610BDF0B5037D062B8DB00E4610
:1068380000F104074FF0000402D000F1080518E049
:106848000CAD394605F8304D2F232A460A20FFF7AC
:1068580089FA284603F07FFB33680246DB6829463D
:10686800304698470FE024B12E21304600F038FC1E
:10687800044415F8011D0A22304600F061FCBD42AF
:106888000444F0D120460DB0F0BD000010B5054B12
:106898000446112240F8043B002103F0C5FA2046C3
:1068A80010BD00BFC0BC0D000346074A10B543F831
:1068B800042B01F1100251F8044B43F8044B9142A8
:1068C800F9D10A781A7010BDC0BC0D00037D042BE5
:1068D80001D1406808E0062B0AD1436853B18368A8
:1068E80043B1C36833B10069003018BF0120704755
:1068F800002070471846704710B59DF8084044EAD4
:10690800032343EA024242EA01610423416003751A
:1069180010BD37B50D788B784A78C978009129462B
:10692800FFF7EAFF03B030BD014B024A1A60704717
:10693800DCE303207FBD0D0010B5836804460BB16E
:10694800C06806E0406828B183680BB901F05BFABB
:10695800C3689847012323740020BDE81040FFF75F
:1069680051B9002211464068FFF78ABB0022114640
:106978004068FFF795BB00224068FFF789BB0022FB
:1069880081F001014068FFF773BB00231A461946DE
:106998004068FFF765BB00231A4619464068FFF7B1
:1069A80057BB002211464068FFF74ABB0022114638
:1069B8004068FFF735BB002202214068FFF738BB6B
:1069C80000231A464068FFF723BB10B103685B68D1
:1069D8001847704738B504460068D0B1FFF7DAF8B1
:1069E800B8B9237C1BB9206808B1FFF7DBF86568E4
:1069F80055B1AB681BB1032229462846984728465B
:106A0800FDF749FB002363602068FFF7D3F80023F4
:106A1800236038BD38B50B4B03600446D0F8CC0171
:106A280008B1FDF73AFBD4F8C4512DB12846FFF759
:106A3800D1FF2846FDF72FFBA06808B1FFF7C5FF77
:106A4800204638BDB0BD0D000068FFF7CBB82DE972
:106A5800F84F0B9F9DF828B00646884691469A46FF
:106A680004460025236C4B4529D1636C534526D138
:106A780094F848305B4522D14021404603F088FA1B
:106A880041460246204603F06EFAC0B96FB10C21A8
:106A9800384603F07DFA024638B1582303FB0560F7
:106AA8003946493003F05FFA04E0582000FB0565D9
:106AB80095F84900B0FA80F04009BDE8F88F013533
:106AC800052D04F15804CDD10020BDE8F88F000051
:106AD8002DE9F04F85B007469DF838A00F9E019626
:106AE800CDF800A0894602920393FFF7B0FF002873
:106AF8003CD10446582303FB0475D5F84080B8F10F
:106B0800000F2ED14021484603F042FA49468346F9
:106B18000246284603F07DF9CBF14002414605EBD9
:106B28000B0003F081F9029B2B64039B6B6485F8CF
:106B380049802EB10C21304603F02AFA054600E0C0
:106B480035465820444338193C442A463146493092
:106B5800254403F05EF9002085F8490084F848A030
:106B680005E00134052CC6D1024800E0002005B03C
:106B7800BDE8F08FFCFEFFFF07B5002301930093EB
:106B8800FFF7A6FF03B05DF804FB2DE9F3410446C7
:106B980008460D46904603F0DEF904F5DC76074614
:106BA800236CABB14021204603F0F2F9874202463C
:106BB8000BD32946204603F01DF930B9009043460F
:106BC8002A4621465820FFF7F9F95834B442E7D14C
:106BD80002B0BDE8F081000030B58DB00446112246
:106BE800002101A803F020F9062301AA09498DF81C
:106BF80014300A20FFF7BEF807AD01A906A8FFF771
:106C080053FE0FCD04340FC42B68237000200DB041
:106C180030BD00BFDCBD0D0030B5044689B000F5BD
:106C2800E070FFF711FF236883BB4C20FDF72FFAB4
:106C3800054608B100F048FE2068256008B1FFF756
:106C4800C4FE206820B300224FF49A6100F06BFE66
:106C580008A9002501F8195D1148FFF75BF82068BD
:106C68009DF80720036849F269011B6A984702A842
:106C7800FFF70CFE02A8FFF7AFFF002804DB02A90C
:106C8800206800F0B8FE04E0054602E0002500E0B8
:106C9800044DD4F8C001FEF7ADFF284609B030BD59
:106CA800E9BD0D00FCFEFFFF2DE9F04705468CB05D
:106CB80016460F4609B10B780BB9354C64E0084607
:106CC80003F049F98046002E5CD0304603F043F9C2
:106CD800441C08F102032344B3F59A6F4FD805F515
:106CE800E070FFF7B1FE2846FFF796FF002840DB6B
:106CF8006846FFF7CBFD6846FFF76EFF002838DBD4
:106D0800D5F800A0DAF800300DF1040CD3F838906B
:106D1800204B0693BCE80F000DF11C0EAEE80F00E7
:106D2800DCF800308EF8003049F2690206A95046B6
:106D3800C84700281DDB002328688DF81830036831
:106D48000122DB6806A998472868036808F1010250
:106D5800DB68394698472CB1286803682246DB6807
:106D680031469847286803681B6C984700EAE07426
:106D780000E00446D5F8C001FEF73CFF04E06FF0E0
:106D8800BD0401E03446A4E720460CB0BDE8F08716
:106D9800F2FEFFFFC0BC0D002DE9F341044600F5EB
:106DA800E0700F469046FFF74FFED4F8BC61FEB97D
:106DB8001A49142001F016F8054670B1184B836083
:106DC8004FF4406306604660C46006740322019372
:106DD8000090144B1449FEF7D5FED4F8BC61C4F8F2
:106DE800BC512EB13046FFF7F5FD3046FDF753F99B
:106DF8002046FFF711FF002807DB42463946201DD1
:106E0800FFF7BAFE00EAE07500E00546D4F8C001D5
:106E1800FEF7F0FE284602B0BDE8F0814CBF0D0039
:106E2800456F0D0041690D00EDBD0D002DE9F041E4
:106E3800054600F5E0768AB03046FFF705FE2C6877
:106E4800D5F8C001FEF7D6FE002C63D0D5F8C431C2
:106E580063B12368D5F8C4111F6B20464FF47A73C9
:106E68004FF49A62B847041E13DC56E02D494FF4DC
:106E78009A6000F0C6FFD5F8C431C5F8C40113B153
:106E88001846FDF70AF9D5F8C431002BE1D1264898
:106E980044E02023254A029300920023019402AA89
:106EA800234903930120FFF74DF8D5F8C4315F1C3F
:106EB8001B786BBB013C2146384603F069F838B3B0
:106EC800241A002C07EB000822DD3B5C03BB013CC5
:106ED8000ED008F101082146404603F059F8241A5B
:106EE800002C15DD18F8003093B9012C02D00FE002
:106EF800DFF844803046FFF7A7FD42463946281D93
:106F0800FFF743FED5F8C001FEF774FE002005E048
:106F1800084803E06420FEF785FE20460AB0BDE875
:106F2800F08100BF4CBF0D00FCFEFFFFFCBD0D0053
:106F3800F5BD0D00E8FEFFFFE0BC0D0008B50446F6
:106F48002046FFF773FFFBE738B50D4C0D4B236068
:106F58000025022304F5E4706360A560C4F8C451F9
:106F6800C4F8C851FEF736FE074BC4F8CC5123606D
:106F78002046064A0649BDE8384000F025BF00BF54
:106F8800E0E3032014BE0D00B0BD0D0000D50320C2
:106F98001D6A0D0000231A464068FFF739B8002221
:106FA80002214068FFF744B8002211464068FFF705
:106FB80037B8002211464068FFF742B800231A4646
:106FC80019464068FFF744B800231A461946406836
:106FD800FFF746B8002281F001014068FFF748B882
:106FE80000224068FFF754B8002211464068FFF7B6
:106FF80057B8002211464068FFF742B870B58CB008
:1070080014460646FFF742FC0CAB0022114643F833
:10701800302D2046FEF7D6FE014658BB009B4BB3E9
:107028005A68022A0ED00A2A24D15C69112201A8C2
:1070380002F0FAFE06238DF8143001AD04F10803BE
:10704800183405E0596930460431FFF762FC11E055
:10705800186859682A4603C20833A3421546F7D16F
:1070680001A906A807ADFFF71FFC0FCD341D0FC4FB
:107078002B6823700098FEF79DFE30460CB070BD5B
:10708800024B034A1A6000225A607047B0E5032099
:1070980014BE0D00F8B506460D468F180024BD42F3
:1070A8000CD0336815F8011B9B68304698470028B8
:1070B80001DB0444F3E7002C08BF04462046F8BD72
:1070C80070B505460C46084649B102F044FF2B68E6
:1070D800024621462846DB68BDE87040184770BD67
:1070E80003689B68184730B58BB00B4600218DF8B4
:1070F8002410012A98BF0A220DF12304B3FBF2F5EC
:1071080005FB123303F0FF03092B94BF30333733E9
:10711800DBB2214604F801392B46002DEED1FFF7EA
:10712800CFFF0BB030BD10B42AB903685DF8044B2B
:107138009B68C9B21847D2B25DF8044BFFF7D3BFBA
:10714800FFF7F1BF10B5044630B102F09DFE90FB89
:10715800F4F303FB140010BD10BD884210B50446BB
:1071680004DA081AFFF7EEFF204410BD10BD10B571
:107178000446FEF7F9FF204610BD00000348044A04
:1071880004490023836000F01FBE00BFB8E5032058
:1071980000D5032077710D00704710B50446FCF741
:1071A8007AFF204610BD000070B5084B0360044606
:1071B80000250E4640F80C5FFEF704FD30462671A8
:1071C800FEF738FEA560204670BD00BF48BE0D0022
:1071D8000079FEF737BE10B504460068FEF770FF69
:1071E800204610BD10B50446006808B1FEF768FFD8
:1071F80000232360A360636010BD38B504460D46C4
:1072080000680131FEF764FF10B184E82100012015
:1072180038BD10B50368044613B143688B4207D2E2
:107228002046FFF7EAFF20B1A3680BB92268137064
:10723800012010BD70B50E46114604461546FFF7ED
:10724800E8FF18B92046FFF7CDFF09E02A46314686
:10725800A560206802F0DDFD2268A3680021D154F2
:10726800204670BD38B50023044603604360836040
:1072780003730D4639B1084602F06DFE29460246F1
:107288002046FFF7D7FF204638BD884210B50B4689
:10729800044607D0096819B19A68FFF7CBFF01E0E7
:1072A800FFF7A0FF204610BD10B500230446036079
:1072B800436083600373FFF7E8FF204610BD38B5CD
:1072C80005460C4641B1084602F045FE21460246F5
:1072D8002846FFF7AFFF01E0FFF784FF284638BDD7
:1072E80070B504460E4609B9002070BD6AB18368BE
:1072F800D5182946FFF78DFF0028F5D02068A36828
:107308003146184402F004FEA560012070BD07B59F
:1073180000238DF80410012201A98DF80530FFF72C
:10732800DFFF03B05DF804FB08B582680B4612B9AD
:1073380019B9012008BD11B90368187802E000687E
:1073480002F0DCFDB0FA80F0400908BD006808B121
:1073580002F03ABD70470000044B00204FF6FF7260
:10736800187058809A80FEF7F5BD00BFC8E5032065
:10737800024B1A68024B1A60704700BF58D40320AA
:10738800D0E5032010B40468246BA4465DF8044BD0
:10739800604703689B6C1847808E7047028FC08EC9
:1073A800101A704713B502AB026803F8011DD468C0
:1073B80019460122A04702B010BD10B503681B6929
:1073C8000446984728B1E38EE26B591CE186D05CED
:1073D80010BD4FF0FF3010BD10B503681B6904469F
:1073E800984718B1E38EE26BD05C10BD4FF0FF30C8
:1073F80010BD704710B403460846DC6BD98E1A8F4F
:107408000368521ADB6821445DF8044B1847A0F161
:107418001000FFF7EFBFF0B503688DB01C265B6A5C
:1074280004460F461546984701233246002105A811
:10743800029302F0F9FC8DF8146038460A268DF89C
:107448001560FEF7AFFC1122ADF816000221304698
:10745800FEF7E8FC0028606124DB0422009202ABFE
:1074680040F6FF71FEF7BEFCE0B995B10390ADF8A8
:10747800100003A9E8B2FEF755FC98B9062300935B
:1074880041F20B0203AB40F6FF716069FEF7AAFCFC
:1074980040B91C2205A96069FEF79CFC10B9656417
:1074A800012004E0236820465B6A984700200DB05D
:1074B800F0BD10B504464069002801DBFEF79AFCD0
:1074C8004FF0FF3363610023E386238710BD38B58F
:1074D800C36B0546C08E13B12C6C241A00E01C4601
:1074E800944228BF14462246184402F092FCEB8EC0
:1074F8002344EB86204638BD70B503681B690446F3
:107508000E461546984788B1236820461B69984758
:10751800E38EE16B8542A8BF054619442A463046EA
:1075280002F077FCE38E2B44E38601E04FF0FF3551
:10753800284670BD70B50446054B44F8043B01F17C
:10754800200506460FCD0FC42B682370304670BD4A
:10755800C0BC0D00F0B59446026889B0976A0A4A23
:1075680002921D1D8E4606460FCD03AC0FC42B6834
:107578002370BDF838300093624602AB714630463E
:10758800B84709B0F0BD00BFC0BC0D00F0B5036836
:10759800B0F836E09F6A0D4B89B000F1200604462A
:1075A80002930FCE03AD0FC533682B70A38E0093E3
:1075B800724602ABE16B2046B84723680546DB6993
:1075C80020469847284609B0F0BD00BFC0BC0D0052
:1075D800F0B54378022B8DB005460C46174601D10D
:1075E800011D33E00A2B35D11122002101A802F038
:1075F8001BFCAB6843B9EB6833B94FF6FF702E69D3
:10760800FEF7C0FB86421FD005F1080301AE05F165
:10761800180E18685968324603C20833734516466F
:10762800F7D1062301A906A807AE8DF81430FFF795
:107638003BF90FCE04340FC43368237057B1688800
:10764800FEF7A8FB388005E005F114012046FFF796
:1076580060F9F3E70DB0F0BD2DE9F0418EB00EAB47
:10766800002506461746084643F8345D2A4629464B
:10767800FEF7A8FB00281FDB019BFBB15B69EBB1A0
:1076880002A8FFF703F9019B2A46586902A9FFF7E8
:107698009FFF02A8FFF71AF980B1336803ADD3F84A
:1076A80038800B4B08930FCD09AC0FC42B6823709F
:1076B8003A4608A93046C047044601E04FF0FF3477
:1076C8000198FEF777FB20460EB0BDE8F08100BFB9
:1076D800C0BC0D002DE9F047D0F81480B8F1000FB8
:1076E8008CB005460C461746994600DB11B94FF099
:1076F800FF3035E04FF01C0A05AE524600213046F7
:1077080002F092FBCDF808A0B9F1000F14D04FF4A5
:107718007A72B9FBF2F1039102FB11914A430823F3
:107728000492009341F2060203AB40F6FF71404613
:10773800FEF758FB08B113E0082002AB019321467D
:10774800034600963A466869FEF75CFB041E06DBB2
:1077580005F1340205F11C013046FFF739FF2046D8
:107768000CB0BDE8F08738B5054614462B7D062BCE
:10777800084611D11C2313700A235370FEF712FB1D
:10778800083424F8060C2B1D143553F8042B44F840
:10779800042BAB42F9D138BD042B0AD11023137046
:1077A80002235370FEF7FEFA60806868FEF7EAFA73
:1077B800606038BD2DE9F0438BB003AC1C259946B9
:1077C80006460F46904600212A46204602F02CFB2A
:1077D8002246BDF848104846FFF7C5FF9DF80D3012
:1077E80043B18DE830000023424639467069FEF700
:1077F80011FB01E04FF0FF300BB0BDE8F083F0B5AE
:1078080091B00C4606460021154609A81C221F46C1
:1078180002F00AFB09AA00212046FFF7A4FF9DF801
:107828002530022B2ED1002305930A9B0493DDB14A
:1078380002A92846FEF77EFAB0B910A941F8340D1E
:107848000298FEF77FFA60B9039B53B1DA681268B1
:107858005178022903D152680AB1059201E01B68E8
:10786800F3E70398FEF776FA002F4FF0080300932A
:1078780018BF032204AB08BF042200213046FEF7DC
:10788800B1FA1EE00A2B1AD104AC142200212046BA
:1078980002F0CAFA0BAB0FCB002F84E80F004FF0B1
:1078A8001403009318BF0C22234608BF0D22292178
:1078B80030460895FEF796FA00EAE07001E04FF0CE
:1078C800FF3011B0F0BD000038B54FF47A73836013
:1078D8000B4B03F108026C33002503614FF0FF33B3
:1078E80004464560026043611C30FEF7CFFF4FF449
:1078F8000073E5862587E56323646564204638BD03
:107908007CBE0D0010B590F8483004461BB1C06B22
:1079180008B1FCF7C0FB0023E36384F84830236414
:10792800E386238710BD70B5044616460D46FFF75B
:10793800E9FF0023E66323643EB935B12846FCF726
:10794800A8FB0123E06384F84830E36B03B12564A6
:10795800206C003018BF012070BDF8B51746C26B07
:1079680005460C461AB9016C09B1FFF7DCFF04346F
:107978000FCC05F120060FC6236833700023AF86AD
:10798800EB862B87286CF8BD70B5C26B04461AB914
:10799800016C09B1FFF7C7FFE16B0023E38623877A
:1079A80041B1226C32B12068056B2046A8470028F7
:1079B800C8BF2087236820461B69BDE87040184768
:1079C80010B5074B03F108026C33044602600361EB
:1079D800FFF76FFD2046FFF795FF204610BD00BF5B
:1079E8007CBE0D0010B50446FFF7EAFF2046FCF701
:1079F80052FB204610BD02464069002804DB0123E3
:107A080092F84420FFF7FBBE4FF0FF3070477047F5
:107A180041747047007CFEF755BA007CFEF72ABA1D
:107A2800007CFEF737BA007CFEF72CBA007CFEF724
:107A380039BA10B50446FCF72EFB204610BD70B5C8
:107A4800457C04460E4625B9007CFEF73BFA002823
:107A580005DD3146207CBDE87040FEF703BA2846B4
:107A680070BD000010B50446084611460022626049
:107A78004FF47A72A260054A22600122207462746F
:107A88001A46FEF7E7F9204610BD00BFF4BE0D0008
:107A9800007CFEF70FBA000038B50C4D296811F0CC
:107AA800010411D12846FCF7FAFA68B1084A094BD3
:107AB80009482146FFF7D6FF2846FCF7F5FA074A9A
:107AC8000749054800F080F9034838BD6CE60320F3
:107AD80070E60320E8E50320D4E5032000D5032061
:107AE800177A0D004174704770470021007CFEF73B
:107AF80011BA0121007CFEF70DBA007CFEF702BA2C
:107B0800007CFEF7F7B938B50446007C0D46FEF751
:107B1800F9F9002801DC607C20B12946207CFEF7B9
:107B280001FA012038BD007CFEF704BA10B50446FE
:107B3800FCF7B1FA204610BD10B504460023636077
:107B48004FF47A73A360054B236001230846217420
:107B580063741146FEF7BEF9204610BD24BF0D0020
:107B68000022007CFEF7BEB910B51422044600219D
:107B780002F05AF9204610BD30B50E4D87B001A865
:107B8800FFF7F2FF296811F0010410D12846FCF72D
:107B980086FA60B101AA21460748FFF7CDFF2846BB
:107BA800FCF782FA054A0649034800F00DF9024835
:107BB80007B030BDF4E60320F8E6032000D5032023
:107BC800F17A0D0008B50F4B33B1FFF7D5FF036805
:107BD8001B69984700280DDC0B4B33B1FFF75CFF9E
:107BE80003681B699847002807DC084B43B1AFF3CB
:107BF800008008BDAFF30080EEE7AFF30080F4E744
:107C080008BD00BF000000000000000000000000E8
:107C180008B5FFF7D7FFFEF71DF8014B186008BD40
:107C280010E7032007B5002300931A466FF0770189
:107C3800FEF7BAF903B05DF804FB000007B5438806
:107C48000A2B08D0502B09D1094B1B683BB103B054
:107C58005DF804EB1847FFF7E5FF06E00023009303
:107C68001A466FF07701FEF79FF903B05DF804FB41
:107C78000CE7032010B5FDF7CDFF044602F0DCF851
:107C8800074B13B12046AFF3008000210448FEF7EC
:107C9800B7F900210348BDE81040FEF77BB900BFE3
:107CA80000000000457C0D0010B504460F48FFF7A2
:107CB8008FFA28B1A4F10B03022B01D8002010BDC4
:107CC80000F040F8FEF7A4FD08B1012CF6D9FFF743
:107CD800E3FEFFF7DDFE18B1A4F10903012BEDD98E
:107CE8001E2C8CBF0020012010BD00BF2CE70320F4
:107CF8001E2838B504460D460AD8FF2908D0FFF7D4
:107D0800D3FF28B129462046BDE83840FDF7B2BF69
:107D180038BD38B504460D46FDF7B4FFFF2810D02E
:107D2800062804D84D2323FA00F0C30709D42046B7
:107D3800FFF7BAFF28B129462046BDE83840FDF7CD
:107D4800A9BF38BD38B50B4D296811F001040FD112
:107D58002846FCF7A4F958B121460748FEF746FD26
:107D68002846FCF7A1F9054A0549034800F02CF814
:107D7800014838BD14E7032018E7032000D5032085
:107D88009D670D0070B50C4C0C4E0D4D0021204622
:107D9800FFF70AFA20460B4C3246294600F014F841
:107DA80001212046FFF700FA324629462046BDE861
:107DB800704000F009B800BF2CE7032000D503206D
:107DC800A1710D003CE703200B460146184601F05F
:107DD800FFBF0000024B1868BFF35F8F704700BFFA
:107DE8004CE7032010B5002814BF044601242046A0
:107DF800FEF75EF920B9FFF7EDFF08B18047F6E717
:107E080010BDFFF7EFBF08B5FEF772F9244B1A68EB
:107E1800D0075CBF01221A60224B1A68D1075CBFE9
:107E280001221A60204B1A68D2075CBF01221A602F
:107E38001E4B1A68D0075CBF01221A601C4B1A68D7
:107E4800D1075CBF01221A601A4B1A68D2075CBFBF
:107E580001221A60184B1A68D0075CBF01221A6009
:107E6800164B1A68D1075CBF01221A60144B1A68B6
:107E7800D2075CBF01221A60124B1A68D0075CBF98
:107E880001221A60104B1A68D1075CBF01221A60E0
:107E98000E4B1A68D2075CBF01221A60704700BFF8
:107EA8007CE7032078E7032074E7032070E70320CA
:107EB8006CE7032068E7032064E7032060E70320FA
:107EC8005CE7032058E7032054E7032050E703202A
:107ED800184B1A68D1075CBF01221A60164B1A6842
:107EE800D2075CBF01221A60144B1A68D0075CBF26
:107EF80001221A60124B1A68D1075CBF01221A606E
:107F0800104B1A68D2075CBF01221A600E4B1A6820
:107F1800D0075CBF01221A600C4B1A68D1075CBFFE
:107F280001221A600A4B1A68D2075CBF01221A6044
:107F3800704700BF9CE7032098E7032094E70320DD
:107F480090E703208CE7032088E7032084E70320D9
:107F580080E70320184B1A68D1075CBF01221A601A
:107F6800164B1A68D2075CBF01221A60144B1A68B4
:107F7800D0075CBF01221A60124B1A68D1075CBF98
:107F880001221A60104B1A68D2075CBF01221A60DE
:107F98000E4B1A68D0075CBF01221A600C4B1A6896
:107FA800D1075CBF01221A600A4B1A68D2075CBF6E
:107FB80001221A60704700BFBCE70320B8E703201E
:107FC800B4E70320B0E70320ACE70320A8E70320C9
:107FD800A4E70320A0E70320244B1A68D0075CBF5E
:107FE80001221A60224B1A68D1075CBF01221A606D
:107FF800204B1A68D2075CBF01221A601E4B1A6810
:10800800D0075CBF01221A601C4B1A68D1075CBFFD
:1080180001221A601A4B1A68D2075CBF01221A6043
:10802800184B1A68D0075CBF01221A60164B1A68F1
:10803800D1075CBF01221A60144B1A68D2075CBFD3
:1080480001221A60124B1A68D0075CBF01221A601D
:10805800104B1A68D1075CBF01221A600E4B1A68D0
:10806800D2075CBF01221A60704700BFECE703200B
:10807800E8E70320E4E70320E0E70320DCE7032048
:10808800D8E70320D4E70320D0E70320CCE7032078
:10809800C8E70320C4E70320C0E70320F8B553EC82
:1080A800102BC3F30A54A4F2FF301328194610EE1C
:1080B800107A12DC002832DB234E064133421D467B
:1080C8002AD04FF400210141294421EA0601002465
:1080D8000B46224643EC102BF8BD332805DDB0F5DE
:1080E800806F22D043EC102BF8BDA4F213444FF05C
:1080F800FF3525FA04F42242F4D00123C0F13300FD
:1081080003FA00F0C01928BFC91820EA04040B4676
:10811800224643EC102BF8BD002AD2D1E2E7013009
:1081280003F0004109D00024D2E710EE100A1946E6
:1081380001F04CF941EC100BF8BD41F07F5141F4CE
:1081480040110024C4E700BFFFFF0F00000000003B
:108158002DE9F04F2DED028BDFF824A38BB057ECFF
:10816800106B55EC114B00F08FF99AF90080B0EEC6
:10817800408AF0EE608AB8F1FF3F48D022462B468D
:108188002046294601F06EFD834600283FD132463D
:108198003B463046394601F065FD8146002840F0EF
:1081A8009080304639460022002301F029FD00283E
:1081B80036D0002200232046294601F021FD8346BF
:1081C800B8B19FEDA57B0122A94BCDF82090009274
:1081D800CDE90267CDE904458DED067B0193B8F141
:1081E800000F5BD09FED9E0B0BB0BDEC028BBDE882
:1081F800F08F45EC104B00F0A7FF40B100220023A0
:108208002046294601F006FD002840F0C580B0EE62
:10821800480AF0EE680A0BB0BDEC028BBDE8F08F9F
:10822800B0EE480AF0EE680A00F08EFF804600289B
:1082380061D04FF000084FF0000951EC180B42468E
:108248004B4601F0DDFC0028E1D047EC106B00F054
:108258007BFF0028DBD045EC104B00F075FF0028B1
:10826800D5D09AF90030824A019204210022022BCB
:10827800CDE90267CDE90445CDE906890091089268
:1082880003D0684600F068FF70B9FDF741FF22236C
:10829800036009E09FED707B8DED067B684600F07A
:1082A8005BFF002800F08E80089B1BB1FDF730FFB4
:1082B800089B03609DED060B0BB0BDEC028BBDE87F
:1082C800F08F002200232046294601F099FC00285F
:1082D8009DD09FED630B664BCDF820B00122B8F11D
:1082E800020FCDE90267CDE904458DED060B8DE857
:1082F8000C00D3D18FE747EC106B00F025FF002866
:1083080097D045EC104B00F01FFF002891D053EC9C
:10831800182B18EE100A194601F0A4FC00287CD18D
:1083280003239AF900800093514B0890CDE9026726
:10833800CDE904450193B8F1000F48D1DFF8449125
:108348004FF060480022002330463946CDE90689BF
:1083580001F060FC002894D00022464B20462946B4
:1083680001F0E6F904460D4645EC104B00F000FF1D
:10837800204653EC102B294601F042FC002849D135
:108388003D4B9AF900804FF06042CDE90623B8F1E1
:10839800020F7FF476AF78E7354A9AF90030CDF8C6
:1083A80020B00121CDE90267CDE904458DE806003A
:1083B800002B3FF46FAF31490020022BCDE90601B5
:1083C8007FF46CAFFDF7A4FE212303606CE79FEDFB
:1083D800267B00220023304639468DED067B01F0CE
:1083E80019FC0028D3D00022224B2046294601F050
:1083F8009FF904460D4645EC104B00F0B9FE2046A7
:1084080053EC102B294601F0FBFB18B91B4B00223B
:10841800CDE906239AF90080B9E7154B9AF900903F
:10842800CDF820800122CDE90267CDE904458DE829
:108438000C00B9F1000F3FF42DAF002200231046C5
:10844800194601F09FFAB9F1020FCDE90601B9D03A
:1084580024E700BFAFF30080000000000000000028
:10846800000000000000F03F000000000000F07F66
:1084780050BF0D000000E03FFFFFEFC70000F0FF16
:108488005CD40320FFFFEF472DE9F04F51EC110BAF
:1084980021F0004858EA000493B03CD053EC102B6C
:1084A8006D4E23F00044B44210EE10AA1D462BDC9A
:1084B800894611EE10EA26D0B04525DC664EB04557
:1084C80077D0002D16461F46CDE9000175DB4FF029
:1084D800000BBEF1000F2DD15F4B984500F089804D
:1084E8005E4B98455ED0B9F1804F00F0DE835C4B5F
:1084F80099451FD1002D1DDB47EC106B13B0BDE86B
:10850800F04F00F049BD5AB104F1404404F580141D
:1085180054EA0A0306D19FED4A0B13B0BDE8F08F69
:10852800A045CBDD4F4813B0BDE8F04F00F018BEB2
:108538004FF0000B47EC106B00F0FEFD51EC100BF8
:10854800BAF1000F1ED0ED0F05F1FF3A5BEA0A03FE
:1085580063D0454B984540F38D8003F104739845EB
:1085680040F33884414B9C4262DDB9F1000F62DD73
:1085780035A3D3E900231046194601F0D9F841EC98
:10858800100BCAE724B1354B25F040429A42DAD1A4
:10859800B9F1000FC0F2CB83002DC0F2748341EC17
:1085A800100BBAE7B9F1000FC0F27A8447EC106BF0
:1085B800B3E7BEF1000F84D0A6E72D4B984529DC20
:1085C800A3F15473984582DD4FEA2853A3F2FF3391
:1085D800142B40F37F84C3F134032EFA03F202FA1A
:1085E80003F39E457FF473AF02F00102C2F1020B60
:1085F8006FE704F1404303F5801353EA0A038AD076
:108608001A4B9C4240F38583B9F1000F13DB9DEDB3
:10861800000B82E74FF0020B5BE732463B46104601
:10862800194600F0D1FE02460B4601F0ABF9B6E759
:10863800B9F1000F9CDB9FED060B6EE7AFF30080EE
:10864800000000000000F03F9C7500883CE4377E85
:1086580000000000000000000000F07F0000F03F74
:108668000000E03F54BF0D000000E041FFFFEF3F76
:10867800FFFF3F43B4F5801F4FF0000205DAD64BE9
:1086880001F056F86FF034020C462315D34EC4F3AC
:108698001304A3F2FF33134444F07F55B4421A463F
:1086A8000D9345F4401540F34983CD4B9C4240F36C
:1086B8002D849FEDB37B8DED087B8DED0E7B9FEDBB
:1086C800B27B13468DED067B01330D93A5F580151E
:1086D8004FF00008DDE906232946CDE90A0100F03C
:1086E80073FEDDE9062306460F46DDE90A0100F0C0
:1086F8006DFE02460B460020BA4901F043F90346D5
:108708000C46CDE9103402460B463046394601F096
:108718000FF86B1043F0005303F5002303EB080533
:108728000A4600230146CDE902120293DDE90289D7
:108738000024CDE904122B4622464046494600F063
:10874800F7FF02460B463046394600F03DFEDDE9AC
:10875800062306460F462046294600F035FE024607
:108768000B46DDE90A0100F02FFE42464B4600F0B9
:10877800DFFF02460B463046394600F025FEDDE9AC
:10878800102300F0D5FFDDE90445CDE906012246B6
:108798002B462046294600F0CBFF7DA3D3E90023D2
:1087A80004460D4600F0C4FF7BA3D3E9002300F084
:1087B8000DFE22462B4600F0BBFF79A3D3E9002328
:1087C80000F004FE22462B4600F0B2FF76A3D3E960
:1087D800002300F0FBFD22462B4600F0A9FF74A3FE
:1087E800D3E9002300F0F2FD22462B4600F0A0FF5B
:1087F80071A3D3E9002300F0E9FD224606460F469F
:108808002B462046294600F093FF02460B46304689
:10881800394600F08DFF424604460D464B46DDE9D9
:10882800040100F0D3FDDDE9062300F081FF2246B4
:108838002B4600F0CBFD424606460F464B464046C7
:10884800494600F075FF0022674BCDE90A0100F0A8
:10885800BDFD32463B4600F0B9FD02980D46044680
:1088680022462B464046494600F062FF00228046D9
:1088780089465D4B2046294600F0A6FDDDE90A231E
:1088880000F0A2FD02460B463046394600F09CFD3A
:10889800DDE9042300F04CFF224606460F462B462E
:1088A800DDE9060100F044FF02460B463046394632
:1088B80000F08CFD06460F4602460B4640464946E8
:1088C800CDE9048900F082FD02983DA3D3E9002395
:1088D80004460D4600F02CFFDDE904238046894656
:1088E8002046294600F070FD02460B4630463946C0
:1088F80000F06AFD34A3D3E9002300F019FF34A384
:10890800D3E9002306460F462046294600F010FF0B
:1089180002460B463046394600F058FDDDE90E2385
:1089280000F054FD06460D980F4600F09BFE3246B7
:1089380004460D463B464046494600F047FDDDE902
:10894800082300F043FD22462B4600F03FFD029825
:1089580022462B46CDE9020100F036FDDDE9082369
:1089680000F032FD42464B4600F02EFD02460B4613
:108978003046394600F028FD8046894636E000BF7B
:108988000000000000000000000000000000F03FB0
:10899800EF4E454A287ECA3F65DBC9934A86CD3FDC
:1089A80001411DA96074D13F4D268F515555D53FC2
:1089B800FFAB6FDBB66DDB3F033333333333E33F5A
:1089C800000000E009C7EE3FFD033ADC09C7EE3FAF
:1089D800F5015B14E02F3EBE000040438E98030073
:1089E80079B60B000000F03F000008400BF1FF33A0
:1089F80053EA0A0300F088819FEDD77B8DED067B53
:108A0800DDE900AB53465C46CDE900340023009312
:108A1800DDE90045504622462B46594600F0D4FC75
:108A2800DDE9022300F084FE524606460F465B4607
:108A38004046494600F07CFE02460B463046394621
:108A480000F0C4FC2246804689462B46DDE9020137
:108A5800CDE9048900F06CFE0B46024606460F4637
:108A68004046494600F0B2FCD54B994204460D46B3
:108A78008A4640F3238101F13F4303F5E0030343B2
:108A880040F01882B6A3D3E90023DDE9040100F021
:108A98009DFC3246804689463B462046294600F0E2
:108AA80093FC02460B464046494601F0D1F800289F
:108AB80040F00082A8464FEA28534FF48012A3F2F0
:108AC800FE3342FA03F35344C3F30A52BD4DA2F2F4
:108AD800FF321541C3F3130B0020C2F1140423EA3B
:108AE80005014BF4801BBAF1000F02460B464BFA06
:108AF80004FB30463946B8BFCBF1000B00F064FCEC
:108B080002460B4606460F46DDE9040100F05EFC0E
:108B18004FEA0B5A002494A3D3E9002320460D46BC
:108B280000F006FE3246804689463B4620462946E6
:108B380000F04AFC02460B46DDE9040100F044FC63
:108B48008BA3D3E9002300F0F3FD8BA3D3E9002323
:108B580006460F462046294600F0EAFD02460B4627
:108B68003046394600F032FC06460F4602460B46B0
:108B78004046494600F02AFC42464B4604460D460C
:108B880000F022FC02460B463046394600F01CFC39
:108B98002246804689462B462046294600F0C8FDD5
:108BA80077A3D3E9002306460F4600F0C1FD76A35C
:108BB800D3E9002300F008FC32463B4600F0B8FD3C
:108BC80073A3D3E9002300F001FC32463B4600F0D2
:108BD800AFFD71A3D3E9002300F0F6FB32463B4614
:108BE80000F0A6FD6EA3D3E9002300F0EFFB3246A8
:108BF8003B4600F09DFD02460B462046294600F004
:108C0800E3FB06460F4602460B462046294600F07F
:108C18008FFD0022CDE900014FF0804330463946F0
:108C280000F0D2FB02460B46DDE9000100F0AAFE87
:108C3800424606460F464B462046294600F078FD38
:108C480042464B4600F0C2FB02460B4630463946C8
:108C580000F0BAFB22462B4600F0B6FB02460B4654
:108C68000020594900F0B0FB8A44BAF5801F02463B
:108C78000B46C0F25B815146DDE9062300F058FD42
:108C880041EC100B49E404F1404404F5801454EA23
:108C98000B0300F03781BBF1010F7FF480AC024673
:108CA80001F1004343EC102B37E432463B46304693
:108CB800394600F03DFD41EC100B2EE4434B21F00A
:108CC8000048984540F31581414B0B4403430CD1B0
:108CD80032463B4600F078FB02460B46DDE90401CC
:108CE80000F0A2FF00283FF4E6AE2FA3D3E900234B
:108CF800DDE9060100F01CFD2BA3D3E9002300F0F9
:108D080017FD41EC100B08E49FED297B8DED067BE8
:108D180076E6B9F1000FBFF68EACDDE9003400EE5F
:108D2800103A04F1004300EE903AFFF7F6BB024612
:108D38000B460020244900F025FE2DE49FED1E7B04
:108D48008DED087B8DED0E7B9FED037B4FF00008CA
:108D58008DED067BBEE400BF000000000000F03F80
:108D6800FE822B654715973C00000000432EE63F26
:108D7800EF39FAFE422EE63F396CA80C615C20BE42
:108D8800D0A4BE726937663EF16BD2C541BDBB3E09
:108D98002CDE25AF6A56113F93BDBE166CC1663FE7
:108DA8003E5555555555C53F59F3F8C21F6EA50197
:108DB800000000000000F0BF0000000000000000FC
:108DC800FFFF8F40FFFF0F000000F03FFFCB9040F8
:108DD80000346F3F6C4B9C427FF72AAC6B4B9C4234
:108DE8003FF7C3AB0022694B00F0EEFA56A3D3E974
:108DF800002304460D4600F09BFC55A3D3E900234D
:108E0800804689462046294600F092FC0022CDE99A
:108E180002015F4B2046294600F08AFC02460B46B9
:108E28004DA1D1E9000100F0CFFA22462B4600F00F
:108E38007FFC02460B460020564900F0C5FA224640
:108E48002B4606460F462046294600F071FC02468E
:108E58000B463046394600F06BFC41A3D3E90023AA
:108E680000F066FC02460B46DDE9020100F0ACFAB0
:108E780002460B4604460D464046494600F0A6FA0F
:108E880042464B460020CDE9020100F09DFA024619
:108E98000B462046294600F097FA80468946A5E504
:108EA80032463B460020394900F06CFD41EC100B7E
:108EB800FFF733BB2CA3D3E90023DDE9060100F05B
:108EC80037FC29A3D3E9002300F032FC41EC100B56
:108ED800FFF723BBBEF1000F7FF42AABC3F11403E5
:108EE80048FA03F202FA03F3984527D0F346FFF74E
:108EF800F7BA284B98453FF7DEADDDE900349A46CE
:108F08009B4607E602460B46FFF789BB9FED187B99
:108F18008DED087B9FED187B8DED0E7B9FED187B0B
:108F28004FF480288DED067BFFF7D4BB584643EC01
:108F3800102B00F0B1F951EC100B9DE602F0010284
:108F4800C2F1020BFFF7CCBA000000604715F73FEB
:108F580044DF5DF80BAE543E555555555555D53F34
:108F6800FE822B654715F73F9C7500883CE4377EE9
:108F78000000004003B8E23F06D0CF43EBFD4C3E73
:108F8800000000000000F83FFEFFEF3F0000F03F48
:108F98000000D03F0000E03F2DE9F041654955EC65
:108FA800104B0E462940B14200F09780002D2B4609
:108FB80010EE102A74DD2F157FD0A7F2FF37C3F308
:108FC8001303F90743F4801365D403EBD271002629
:108FD8000B447F105200B64616204FF400110EEBDA
:108FE80001049C424FEAD2754FEA420203DC1B1B84
:108FF80004EB010E0E44013805EB43034FEA51011F
:10900800EDD1844620244FF0004109E020D003EB45
:10901800D275013C4FEA51012B444FEA420220D05D
:109028009E4501EB0C05F1DA002D05EB010C09DB7F
:10903800F0469542CEEB030300D9013B521B08448E
:10904800C646E4E7BCF1000FF2DB0EF10108F0E7D9
:1090580095421ED8002D05EB010C50DB98460023E5
:10906800ECE7134304D0421C4DD000F00103184430
:1090780040087110F30701F17F5101F5001148BF55
:1090880040F0004001EB0753024643EC102BBDE8CB
:10909800F0817346BBE75B0003EBD273520094E7A1
:1090A80025F00041214328D0ADBB2F46D30A153FF8
:1090B8005205002BFAD0DD0228D4002100E0014639
:1090C8005B00DC0201F10100F9D5C0F1200422FAAD
:1090D80004F423437F1A82406FE710EE102A2B46D0
:1090E80010EE100A294600F023FB22462B4600F01A
:1090F8006DF941EC100BBDE8F081BDE8F081BCF1E1
:10910800000FA2DAAAE701362046B2E720244FF082
:10911800FF310020DBE710EE102A2B4620462946B7
:1091280000F052F902460B4600F02CFC41EC100B03
:10913800BDE8F0810000F07F53EC102B23F00043D2
:1091480043EC102B704700BF10EE903A43F00040FC
:1091580000F58010C00F7047002070470000000025
:109168009FED010B704700BF000000000000F87F72
:10917800F0B553EC102BC3F30A56A6F2FF301328B0
:1091880083B019464FEAD37410EE105A2FDC00282A
:1091980049DB3F4E064103EA060717432CD0760801
:1091A80033401D430CD04FF48023132821EA0606D0
:1091B80043FA00F141EA06010CBF4FF000450025D3
:1091C800344800EBC4042A46D4E9004510462B462F
:1091D800224600F0FBF8CDE9000122462B46DDE9E6
:1091E800000100F0F1F841EC100B03B0F0BD33289A
:1091F80006DDB0F5806F42D043EC102B03B0F0BD14
:10920800A6F213464FF0FF30F0400242F4D0400877
:109218000242D5D04FF0804325EA000043FA06F613
:1092280046EA0005CCE723F00040104310EE107A20
:10923800E2D0C3F313000743784207431548590C9B
:109248003F0B490407F4002700EBC40047EA010379
:10925800D0E90067194610463B46324600F0B6F89A
:10926800CDE900013B463246DDE9000100F0ACF8EB
:1092780021F0004343EAC47141EC100BBEE710EE45
:10928800100A194600F0A2F841EC100BB6E700BF2F
:10929800FFFF0F0058BF0D0053EC102B70B5C3F340
:1092A8000A541946054614BB23F0004111432AD03D
:1092B80019460022384B394E10EE100A00F038FAE1
:1092C800B54202460B461FDBC1F30A54363C2C4418
:1092D80040F2FE7084421FDC002C2DDD21F0FF419E
:1092E80021F4E00141EA045343EC102B70BD40F235
:1092F800FF708442EBD110EE100A194600F066F8B0
:1093080041EC100B70BD70BD1FA3D3E9002300F022
:109318000FFA41EC100B70BD43EC112B9FED1C0BA9
:1093280000F040F81AA3D3E9002351EC100B00F029
:10933800FFF941EC100B70BD14F1350F13DA4CF244
:1093480050318D4243EC112BE8DC9FED0F0B00F000
:1093580029F80DA3D3E9002351EC100B00F0E8F92C
:1093680041EC100B70BD21F0FF4121F4E0013634CF
:1093780041EA0453104619460022094B00F0D8F977
:1093880041EC100B70BD00BF59F3F8C21F6EA50168
:109398009C7500883CE4377E00005043B03CFFFFDA
:1093A8000000903C53EC102B11EE900A23F0004182
:1093B80000F0004041EA000343EC102B704700BF67
:1093C80081F0004102E000BF83F0004330B54FEA6E
:1093D80041044FEA430594EA050F08BF90EA020FDB
:1093E8001FBF54EA000C55EA020C7FEA645C7FEA6E
:1093F800655C00F0E2804FEA5454D4EB5555B8BF91
:109408006D420CDD2C4480EA020281EA030382EA01
:10941800000083EA010180EA020281EA0303362D93
:1094280088BF30BD11F0004F4FEA01314FF4801C66
:109438004CEA113102D0404261EB410113F0004F78
:109448004FEA03334CEA133302D0524263EB43032F
:1094580094EA050F00F0A780A4F10104D5F1200ECD
:109468000DDB02FA0EFC22FA05F2801841F1000128
:1094780003FA0EF2801843FA05F359410EE0A5F1FC
:1094880020050EF1200E012A03FA0EFC28BF4CF02D
:10949800020C43FA05F3C01851EBE37101F00045E3
:1094A80007D54FF0000EDCF1000C7EEB00006EEBF0
:1094B8000101B1F5801F1BD3B1F5001F0CD349087A
:1094C8005FEA30004FEA3C0C04F101044FEA4452D1
:1094D80012F5800F80F09A80BCF1004F08BF5FEA58
:1094E800500C50F1000041EB045141EA050130BD38
:1094F8005FEA4C0C404141EB010111F4801FA4F1DB
:109508000104E9D191F0000F04BF01460020B1FA2F
:1095180081F308BF2033A3F10B03B3F120020CDA67
:109528000C3208DD02F1140CC2F10C0201FA0CF045
:1095380021FA02F10CE002F11402D8BFC2F1200CAA
:1095480001FA02F120FA0CFCDCBF41EA0C01904060
:10955800E41AA2BF01EB0451294330BD6FEA0404A9
:109568001F3C1CDA0C340EDC04F11404C4F1200294
:1095780020FA04F001FA02F340EA030021FA04F3A6
:1095880045EA030130BDC4F10C04C4F1200220FAFD
:1095980002F001FA04F340EA0300294630BD21FA3B
:1095A80004F0294630BD94F0000F83F4801306BF01
:1095B80081F480110134013D4EE77FEA645C18BFF5
:1095C8007FEA655C29D094EA050F08BF90EA020F8C
:1095D80005D054EA000C04BF1946104630BD91EA84
:1095E800030F1EBF0021002030BD5FEA545C05D187
:1095F8004000494128BF41F0004130BD14F58004C6
:109608003CBF01F5801130BD01F0004545F0FE4139
:1096180041F470014FF0000030BD7FEA645C1ABF6E
:10962800194610467FEA655C1CBF0B46024650EAA5
:10963800013406BF52EA033591EA030F41F40021D1
:1096480030BD00BF90F0000F04BF0021704730B557
:109658004FF4806404F132044FF000054FF000012C
:1096680050E700BF90F0000F04BF0021704730B5ED
:109678004FF4806404F1320410F0004548BF4042C2
:109688004FF000013EE700BF42004FEAE2014FEA17
:1096980031014FEA02701FBF12F07F4393F07F4FF2
:1096A80081F06051704792F0000F14BF93F07F4F24
:1096B800704730B54FF4607401F0004521F0004167
:1096C80020E700BF50EA010208BF704730B54FF0ED
:1096D80000050AE050EA010208BF704730B511F0F2
:1096E800004502D5404261EB41014FF4806404F12A
:1096F80032045FEA915C3FF4DCAE4FF003025FEAAC
:10970800DC0C18BF03325FEADC0C18BF033202EB33
:10971800DC02C2F1200300FA03FC20FA02F001FA8D
:1097280003FE40EA0E0021FA02F11444C1E600BF2C
:1097380070B54FF0FF0C4CF4E06C1CEA11541DBFDF
:109748001CEA135594EA0C0F95EA0C0F00F0DEF8AA
:109758002C4481EA030621EA4C5123EA4C5350EA8F
:10976800013518BF52EA033541F4801143F48013E0
:1097780038D0A0FB02CE4FF00005E1FB02E506F071
:109788000042E0FB03E54FF00006E1FB03569CF0C6
:10979800000F18BF4EF0010EA4F1FF04B6F5007FCC
:1097A80064F5407404D25FEA4E0E6D4146EB06063E
:1097B80042EAC62141EA55514FEAC52040EA5E50C7
:1097C8004FEACE2EB4F1FD0C88BFBCF5E06F1ED871
:1097D800BEF1004F08BF5FEA500E50F1000041EBA8
:1097E800045170BD06F0004646EA010140EA020055
:1097F80081EA0301B4EB5C04C2BFD4EB0C0541EA77
:10980800045170BD41F480114FF0000E013C00F38B
:10981800AB8014F1360FDEBF002001F0004170BDAF
:10982800C4F10004203C35DA0C341BDC04F11404C8
:10983800C4F1200500FA05F320FA04F001FA05F254
:1098480040EA020001F0004221F0004110EBD37021
:1098580021FA04F642EB06015EEA430E08BF20EA4D
:10986800D37070BDC4F10C04C4F1200500FA04F3F0
:1098780020FA05F001FA04F240EA020001F0004182
:1098880010EBD37041F100015EEA430E08BF20EAF5
:10989800D37070BDC4F1200500FA05F24EEA020E3D
:1098A80020FA04F301FA05F243EA020321FA04F06C
:1098B80001F0004121FA04F220EA020000EBD37023
:1098C8005EEA430E08BF20EAD37070BD94F0000F23
:1098D8000FD101F00046400041EB010111F4801F57
:1098E80008BF013CF7D041EA060195F0000F18BF08
:1098F800704703F00046520043EB030313F4801F44
:1099080008BF013DF7D043EA0603704794EA0C0FFD
:109918000CEA135518BF95EA0C0F0CD050EA410613
:1099280018BF52EA4306D1D181EA030101F0004190
:109938004FF0000070BD50EA410606BF10461946B8
:1099480052EA430619D094EA0C0F02D150EA0136C4
:1099580013D195EA0C0F05D152EA03361CBF104605
:1099680019460AD181EA030101F0004141F0FE41A4
:1099780041F470014FF0000070BD41F0FE4141F428
:10998800780170BD70B54FF0FF0C4CF4E06C1CEA28
:1099980011541DBF1CEA135594EA0C0F95EA0C0FDD
:1099A80000F0A7F8A4EB050481EA030E52EA033598
:1099B8004FEA013100F088804FEA03334FF08055B9
:1099C80045EA131343EA12634FEA022245EA1115E6
:1099D80045EA10654FEA00260EF000419D4208BF97
:1099E800964244F1FD0404F5407402D25B084FEA44
:1099F8003202B61A65EB03055B084FEA32024FF4F0
:109A080080104FF4002CB6EB020E75EB030E22BF4C
:109A1800B61A754640EA0C005B084FEA3202B6EB0C
:109A2800020E75EB030E22BFB61A754640EA5C00BB
:109A38005B084FEA3202B6EB020E75EB030E22BF4B
:109A4800B61A754640EA9C005B084FEA3202B6EB4C
:109A5800020E75EB030E22BFB61A754640EADC000B
:109A680055EA060E18D04FEA051545EA16754FEA6D
:109A780006164FEAC30343EA52734FEAC2025FEA8B
:109A88001C1CC0D111F4801F0BD141EA00014FF01A
:109A980000004FF0004CB6E711F4801F04BF0143EB
:109AA8000020B4F1FD0C88BFBCF5E06F3FF6AFAE07
:109AB800B5EB030C04BFB6EB020C5FEA500C50F197
:109AC800000041EB045170BD0EF0004E4EEA11311A
